{
  "_format": "hh-sol-artifact-1",
  "contractName": "MeerkatV1",
  "sourceName": "contracts/MeerkatV1.sol",
  "abi": [
    {
      "anonymous": false,
      "inputs": [
        {
          "indexed": false,
          "internalType": "address",
          "name": "_competition",
          "type": "address"
        },
        {
          "indexed": true,
          "internalType": "address",
          "name": "_owner",
          "type": "address"
        }
      ],
      "name": "CompetitionAdded",
      "type": "event"
    },
    {
      "anonymous": false,
      "inputs": [
        {
          "indexed": false,
          "internalType": "uint8",
          "name": "version",
          "type": "uint8"
        }
      ],
      "name": "Initialized",
      "type": "event"
    },
    {
      "inputs": [
        {
          "internalType": "address",
          "name": "_competition",
          "type": "address"
        }
      ],
      "name": "addCompetition",
      "outputs": [],
      "stateMutability": "nonpayable",
      "type": "function"
    },
    {
      "inputs": [
        {
          "internalType": "uint256",
          "name": "",
          "type": "uint256"
        }
      ],
      "name": "competitions",
      "outputs": [
        {
          "internalType": "address",
          "name": "",
          "type": "address"
        }
      ],
      "stateMutability": "view",
      "type": "function"
    }
  ],
  "bytecode": "0x608060405234801561001057600080fd5b50610117806100206000396000f3fe6080604052348015600f57600080fd5b506004361060325760003560e01c80638c8f52111460375780639f6828d9146047575b600080fd5b60456042366004609b565b50565b005b6056605236600460c9565b6072565b6040516001600160a01b03909116815260200160405180910390f35b60018181548110608157600080fd5b6000918252602090912001546001600160a01b0316905081565b60006020828403121560ac57600080fd5b81356001600160a01b038116811460c257600080fd5b9392505050565b60006020828403121560da57600080fd5b503591905056fea26469706673582212200d38405f5277921c6ac5d4e61fe99d1c2920d6e9be9d8f6f0de4c523146bfb1f64736f6c63430008110033",
  "linkReferences": {},
  "deployedLinkReferences": {}
}