{
  "_format": "hh-sol-artifact-1",
  "contractName": "MeerkatV1",
  "sourceName": "contracts/MeerkatV1.sol",
  "abi": [
    {
      "anonymous": false,
      "inputs": [
        {
          "indexed": false,
          "internalType": "uint8",
          "name": "version",
          "type": "uint8"
        }
      ],
      "name": "Initialized",
      "type": "event"
    },
    {
      "inputs": [
        {
          "internalType": "string",
          "name": "_name",
          "type": "string"
        }
      ],
      "name": "addCompetition",
      "outputs": [
        {
          "internalType": "uint256",
          "name": "",
          "type": "uint256"
        }
      ],
      "stateMutability": "nonpayable",
      "type": "function"
    },
    {
      "inputs": [
        {
          "internalType": "uint256",
          "name": "_competitionId",
          "type": "uint256"
        },
        {
          "internalType": "string",
          "name": "_homeCompetitor",
          "type": "string"
        },
        {
          "internalType": "string",
          "name": "_awayCompetitor",
          "type": "string"
        },
        {
          "internalType": "uint256",
          "name": "_startTime",
          "type": "uint256"
        }
      ],
      "name": "addGame",
      "outputs": [],
      "stateMutability": "nonpayable",
      "type": "function"
    },
    {
      "inputs": [
        {
          "internalType": "string",
          "name": "s1",
          "type": "string"
        },
        {
          "internalType": "string",
          "name": "s2",
          "type": "string"
        }
      ],
      "name": "compareStringsbyBytes",
      "outputs": [
        {
          "internalType": "bool",
          "name": "",
          "type": "bool"
        }
      ],
      "stateMutability": "pure",
      "type": "function"
    },
    {
      "inputs": [
        {
          "internalType": "address",
          "name": "",
          "type": "address"
        },
        {
          "internalType": "uint256",
          "name": "",
          "type": "uint256"
        }
      ],
      "name": "competitions",
      "outputs": [
        {
          "internalType": "uint256",
          "name": "id",
          "type": "uint256"
        },
        {
          "internalType": "address",
          "name": "owner",
          "type": "address"
        },
        {
          "internalType": "string",
          "name": "name",
          "type": "string"
        }
      ],
      "stateMutability": "view",
      "type": "function"
    },
    {
      "inputs": [
        {
          "internalType": "uint256",
          "name": "",
          "type": "uint256"
        },
        {
          "internalType": "uint256",
          "name": "",
          "type": "uint256"
        }
      ],
      "name": "games",
      "outputs": [
        {
          "internalType": "uint256",
          "name": "id",
          "type": "uint256"
        },
        {
          "internalType": "uint256",
          "name": "competitionId",
          "type": "uint256"
        },
        {
          "internalType": "string",
          "name": "homeCompetitor",
          "type": "string"
        },
        {
          "internalType": "string",
          "name": "awayCompetitor",
          "type": "string"
        },
        {
          "internalType": "uint256",
          "name": "startTime",
          "type": "uint256"
        },
        {
          "internalType": "uint8",
          "name": "homeScore",
          "type": "uint8"
        },
        {
          "internalType": "uint8",
          "name": "awayScore",
          "type": "uint8"
        }
      ],
      "stateMutability": "view",
      "type": "function"
    },
    {
      "inputs": [
        {
          "internalType": "uint256",
          "name": "_competitionId",
          "type": "uint256"
        }
      ],
      "name": "getCompetition",
      "outputs": [
        {
          "internalType": "uint256",
          "name": "",
          "type": "uint256"
        },
        {
          "internalType": "address",
          "name": "",
          "type": "address"
        },
        {
          "internalType": "string",
          "name": "",
          "type": "string"
        }
      ],
      "stateMutability": "view",
      "type": "function"
    },
    {
      "inputs": [
        {
          "internalType": "uint256",
          "name": "_competitionId",
          "type": "uint256"
        }
      ],
      "name": "getGames",
      "outputs": [
        {
          "components": [
            {
              "internalType": "uint256",
              "name": "id",
              "type": "uint256"
            },
            {
              "internalType": "uint256",
              "name": "competitionId",
              "type": "uint256"
            },
            {
              "internalType": "string",
              "name": "homeCompetitor",
              "type": "string"
            },
            {
              "internalType": "string",
              "name": "awayCompetitor",
              "type": "string"
            },
            {
              "internalType": "uint256",
              "name": "startTime",
              "type": "uint256"
            },
            {
              "internalType": "uint8",
              "name": "homeScore",
              "type": "uint8"
            },
            {
              "internalType": "uint8",
              "name": "awayScore",
              "type": "uint8"
            }
          ],
          "internalType": "struct MeerkatV1.Game[]",
          "name": "",
          "type": "tuple[]"
        }
      ],
      "stateMutability": "view",
      "type": "function"
    },
    {
      "inputs": [],
      "name": "initialize",
      "outputs": [],
      "stateMutability": "nonpayable",
      "type": "function"
    },
    {
      "inputs": [],
      "name": "lastCompetitionId",
      "outputs": [
        {
          "internalType": "uint256",
          "name": "",
          "type": "uint256"
        }
      ],
      "stateMutability": "view",
      "type": "function"
    },
    {
      "inputs": [],
      "name": "lastGameId",
      "outputs": [
        {
          "internalType": "uint256",
          "name": "",
          "type": "uint256"
        }
      ],
      "stateMutability": "view",
      "type": "function"
    },
    {
      "inputs": [
        {
          "internalType": "uint256",
          "name": "_competitionId",
          "type": "uint256"
        },
        {
          "internalType": "string",
          "name": "_name",
          "type": "string"
        }
      ],
      "name": "updateCompetition",
      "outputs": [],
      "stateMutability": "nonpayable",
      "type": "function"
    }
  ],
  "bytecode": "0x608060405234801561001057600080fd5b5061114d806100206000396000f3fe608060405234801561001057600080fd5b50600436106100a95760003560e01c80639d6aaa7d116100715780639d6aaa7d1461011c578063cf0cefa11461013c578063e55394061461014f578063e942f9fe14610175578063e9a734ff1461017e578063f4036466146101a157600080fd5b80631f90e3d5146100ae5780633ee9d648146100c35780637178d540146100df5780637efb6ac0146100f25780638129fc1c14610114575b600080fd5b6100c16100bc366004610bdc565b6101b4565b005b6100cc60025481565b6040519081526020015b60405180910390f35b6100c16100ed366004610c51565b6102d3565b610105610100366004610c98565b610326565b6040516100d693929190610d20565b6100c16103e6565b61012f61012a366004610d53565b6104f7565b6040516100d69190610d6c565b6100cc61014a366004610e2f565b6106c3565b61016261015d366004610e6c565b610757565b6040516100d69796959493929190610e8e565b6100cc60015481565b61019161018c366004610ee3565b6108cd565b60405190151581526020016100d6565b6101056101af366004610d53565b610926565b6101bd84610a19565b6101e25760405162461bcd60e51b81526004016101d990610f3d565b60405180910390fd5b60006040518060e001604052806002600081548092919061020290610f8b565b909155508152602080820188905260408083018890526060830187905260808301869052600060a0840181905260c09093018390528883526004825280832080546001818101835591855293839020855160069095020193845591840151918301919091558201519192508291600282019061027e908261103b565b5060608201516003820190610293908261103b565b506080820151600482015560a08201516005909101805460c09093015160ff9081166101000261ffff199094169216919091179190911790555050505050565b6102dc82610a19565b6102f85760405162461bcd60e51b81526004016101d990610f3d565b336000908152600360209081526040808320858452909152902060028101610320838261103b565b50505050565b600360209081526000928352604080842090915290825290208054600182015460028301805492936001600160a01b039092169261036390610fb2565b80601f016020809104026020016040519081016040528092919081815260200182805461038f90610fb2565b80156103dc5780601f106103b1576101008083540402835291602001916103dc565b820191906000526020600020905b8154815290600101906020018083116103bf57829003601f168201915b5050505050905083565b600054610100900460ff16158080156104065750600054600160ff909116105b806104205750303b158015610420575060005460ff166001145b6104835760405162461bcd60e51b815260206004820152602e60248201527f496e697469616c697a61626c653a20636f6e747261637420697320616c72656160448201526d191e481a5b9a5d1a585b1a5e995960921b60648201526084016101d9565b6000805460ff1916600117905580156104a6576000805461ff0019166101001790555b600180805560025580156104f4576000805461ff0019169055604051600181527f7f26b83ff96e1f2b6a682f133852f6798a09c465da95921460cefb38474024989060200160405180910390a15b50565b6000818152600460209081526040808320805482518185028101850190935280835260609493849084015b828210156106b757838290600052602060002090600602016040518060e0016040529081600082015481526020016001820154815260200160028201805461056990610fb2565b80601f016020809104026020016040519081016040528092919081815260200182805461059590610fb2565b80156105e25780601f106105b7576101008083540402835291602001916105e2565b820191906000526020600020905b8154815290600101906020018083116105c557829003601f168201915b505050505081526020016003820180546105fb90610fb2565b80601f016020809104026020016040519081016040528092919081815260200182805461062790610fb2565b80156106745780601f1061064957610100808354040283529160200191610674565b820191906000526020600020905b81548152906001019060200180831161065757829003601f168201915b5050509183525050600482015460208083019190915260059092015460ff8082166040840152610100909104166060909101529082526001929092019101610522565b50929695505050505050565b60018054600091829190826106d783610f8b565b9091555060408051606081018252828152336020808301828152838501898152600093845260038352858420878552909252939091208251815592516001840180546001600160a01b0319166001600160a01b039092169190911790555192935091829190600282019061074b908261103b565b50509051949350505050565b6004602052816000526040600020818154811061077357600080fd5b9060005260206000209060060201600091509150508060000154908060010154908060020180546107a390610fb2565b80601f01602080910402602001604051908101604052809291908181526020018280546107cf90610fb2565b801561081c5780601f106107f15761010080835404028352916020019161081c565b820191906000526020600020905b8154815290600101906020018083116107ff57829003601f168201915b50505050509080600301805461083190610fb2565b80601f016020809104026020016040519081016040528092919081815260200182805461085d90610fb2565b80156108aa5780601f1061087f576101008083540402835291602001916108aa565b820191906000526020600020905b81548152906001019060200180831161088d57829003601f168201915b50505050600483015460059093015491929160ff80821692506101009091041687565b6000816040516020016108e091906110fb565b604051602081830303815290604052805190602001208360405160200161090791906110fb565b6040516020818303038152906040528051906020012014905092915050565b33600090815260036020908152604080832084845282528083208151606081810184528254825260018301546001600160a01b0316948201949094526002820180548695948694929084019161097b90610fb2565b80601f01602080910402602001604051908101604052809291908181526020018280546109a790610fb2565b80156109f45780601f106109c9576101008083540402835291602001916109f4565b820191906000526020600020905b8154815290600101906020018083116109d757829003601f168201915b5050509190925250508151602083015160409093015190989297509550909350505050565b336000908152600360209081526040808320848452825280832081516060810183528154815260018201546001600160a01b03169381019390935260028101805485949384019190610a6a90610fb2565b80601f0160208091040260200160405190810160405280929190818152602001828054610a9690610fb2565b8015610ae35780601f10610ab857610100808354040283529160200191610ae3565b820191906000526020600020905b815481529060010190602001808311610ac657829003601f168201915b50505091909252505081519192505015801590610b0c575060208101516001600160a01b031615155b8015610b325750610b308160400151604051806020016040528060008152506108cd565b155b9392505050565b634e487b7160e01b600052604160045260246000fd5b600082601f830112610b6057600080fd5b813567ffffffffffffffff80821115610b7b57610b7b610b39565b604051601f8301601f19908116603f01168101908282118183101715610ba357610ba3610b39565b81604052838152866020858801011115610bbc57600080fd5b836020870160208301376000602085830101528094505050505092915050565b60008060008060808587031215610bf257600080fd5b84359350602085013567ffffffffffffffff80821115610c1157600080fd5b610c1d88838901610b4f565b94506040870135915080821115610c3357600080fd5b50610c4087828801610b4f565b949793965093946060013593505050565b60008060408385031215610c6457600080fd5b82359150602083013567ffffffffffffffff811115610c8257600080fd5b610c8e85828601610b4f565b9150509250929050565b60008060408385031215610cab57600080fd5b82356001600160a01b0381168114610cc257600080fd5b946020939093013593505050565b60005b83811015610ceb578181015183820152602001610cd3565b50506000910152565b60008151808452610d0c816020860160208601610cd0565b601f01601f19169290920160200192915050565b8381526001600160a01b0383166020820152606060408201819052600090610d4a90830184610cf4565b95945050505050565b600060208284031215610d6557600080fd5b5035919050565b60006020808301818452808551808352604092508286019150828160051b87010184880160005b83811015610e2157603f19898403018552815160e0815185528882015189860152878201518189870152610dc982870182610cf4565b91505060608083015186830382880152610de38382610cf4565b6080858101519089015260a08086015160ff908116918a019190915260c0958601511694909701939093525050509386019390860190600101610d93565b509098975050505050505050565b600060208284031215610e4157600080fd5b813567ffffffffffffffff811115610e5857600080fd5b610e6484828501610b4f565b949350505050565b60008060408385031215610e7f57600080fd5b50508035926020909101359150565b87815286602082015260e060408201526000610ead60e0830188610cf4565b8281036060840152610ebf8188610cf4565b6080840196909652505060ff92831660a0820152911660c090910152949350505050565b60008060408385031215610ef657600080fd5b823567ffffffffffffffff80821115610f0e57600080fd5b610f1a86838701610b4f565b93506020850135915080821115610f3057600080fd5b50610c8e85828601610b4f565b6020808252602e908201527f436f6d7065746974696f6e206f776e656420627920746869732075736572206460408201526d6f6573206e6f742065786973742160901b606082015260800190565b600060018201610fab57634e487b7160e01b600052601160045260246000fd5b5060010190565b600181811c90821680610fc657607f821691505b602082108103610fe657634e487b7160e01b600052602260045260246000fd5b50919050565b601f82111561103657600081815260208120601f850160051c810160208610156110135750805b601f850160051c820191505b818110156110325782815560010161101f565b5050505b505050565b815167ffffffffffffffff81111561105557611055610b39565b611069816110638454610fb2565b84610fec565b602080601f83116001811461109e57600084156110865750858301515b600019600386901b1c1916600185901b178555611032565b600085815260208120601f198616915b828110156110cd578886015182559484019460019091019084016110ae565b50858210156110eb5787850151600019600388901b60f8161c191681555b5050505050600190811b01905550565b6000825161110d818460208701610cd0565b919091019291505056fea2646970667358221220c61535f5fd8a0b03c7a15ba77577822707354188de9dcb733a8b4f39576f7d4a64736f6c63430008110033",
  "linkReferences": {},
  "deployedLinkReferences": {}
}