{
  "_format": "hh-sol-artifact-1",
  "contractName": "MeerkatV1",
  "sourceName": "contracts/MeerkatV1.sol",
  "abi": [
    {
      "anonymous": false,
      "inputs": [
        {
          "indexed": false,
          "internalType": "uint8",
          "name": "version",
          "type": "uint8"
        }
      ],
      "name": "Initialized",
      "type": "event"
    },
    {
      "inputs": [
        {
          "internalType": "string",
          "name": "_name",
          "type": "string"
        }
      ],
      "name": "addCompetition",
      "outputs": [
        {
          "internalType": "uint256",
          "name": "",
          "type": "uint256"
        }
      ],
      "stateMutability": "nonpayable",
      "type": "function"
    },
    {
      "inputs": [
        {
          "internalType": "uint256",
          "name": "_competitionId",
          "type": "uint256"
        },
        {
          "internalType": "string",
          "name": "_homeCompetitor",
          "type": "string"
        },
        {
          "internalType": "string",
          "name": "_awayCompetitor",
          "type": "string"
        },
        {
          "internalType": "uint256",
          "name": "_startTime",
          "type": "uint256"
        }
      ],
      "name": "addGame",
      "outputs": [],
      "stateMutability": "nonpayable",
      "type": "function"
    },
    {
      "inputs": [
        {
          "internalType": "address",
          "name": "",
          "type": "address"
        },
        {
          "internalType": "uint256",
          "name": "",
          "type": "uint256"
        }
      ],
      "name": "competitions",
      "outputs": [
        {
          "internalType": "uint256",
          "name": "id",
          "type": "uint256"
        },
        {
          "internalType": "address",
          "name": "owner",
          "type": "address"
        },
        {
          "internalType": "string",
          "name": "name",
          "type": "string"
        }
      ],
      "stateMutability": "view",
      "type": "function"
    },
    {
      "inputs": [
        {
          "internalType": "uint256",
          "name": "_competitionId",
          "type": "uint256"
        }
      ],
      "name": "deleteCompetition",
      "outputs": [],
      "stateMutability": "nonpayable",
      "type": "function"
    },
    {
      "inputs": [
        {
          "internalType": "uint256",
          "name": "",
          "type": "uint256"
        },
        {
          "internalType": "uint256",
          "name": "",
          "type": "uint256"
        }
      ],
      "name": "games",
      "outputs": [
        {
          "internalType": "uint256",
          "name": "id",
          "type": "uint256"
        },
        {
          "internalType": "uint256",
          "name": "competitionId",
          "type": "uint256"
        },
        {
          "internalType": "string",
          "name": "homeCompetitor",
          "type": "string"
        },
        {
          "internalType": "string",
          "name": "awayCompetitor",
          "type": "string"
        },
        {
          "internalType": "uint256",
          "name": "startTime",
          "type": "uint256"
        },
        {
          "internalType": "uint8",
          "name": "homeScore",
          "type": "uint8"
        },
        {
          "internalType": "uint8",
          "name": "awayScore",
          "type": "uint8"
        }
      ],
      "stateMutability": "view",
      "type": "function"
    },
    {
      "inputs": [
        {
          "internalType": "uint256",
          "name": "_competitionId",
          "type": "uint256"
        }
      ],
      "name": "getCompetition",
      "outputs": [
        {
          "internalType": "uint256",
          "name": "",
          "type": "uint256"
        },
        {
          "internalType": "address",
          "name": "",
          "type": "address"
        },
        {
          "internalType": "string",
          "name": "",
          "type": "string"
        }
      ],
      "stateMutability": "view",
      "type": "function"
    },
    {
      "inputs": [
        {
          "internalType": "uint256",
          "name": "_competitionId",
          "type": "uint256"
        }
      ],
      "name": "getGames",
      "outputs": [
        {
          "components": [
            {
              "internalType": "uint256",
              "name": "id",
              "type": "uint256"
            },
            {
              "internalType": "uint256",
              "name": "competitionId",
              "type": "uint256"
            },
            {
              "internalType": "string",
              "name": "homeCompetitor",
              "type": "string"
            },
            {
              "internalType": "string",
              "name": "awayCompetitor",
              "type": "string"
            },
            {
              "internalType": "uint256",
              "name": "startTime",
              "type": "uint256"
            },
            {
              "internalType": "uint8",
              "name": "homeScore",
              "type": "uint8"
            },
            {
              "internalType": "uint8",
              "name": "awayScore",
              "type": "uint8"
            }
          ],
          "internalType": "struct MeerkatV1.Game[]",
          "name": "",
          "type": "tuple[]"
        }
      ],
      "stateMutability": "view",
      "type": "function"
    },
    {
      "inputs": [],
      "name": "initialize",
      "outputs": [],
      "stateMutability": "nonpayable",
      "type": "function"
    },
    {
      "inputs": [],
      "name": "lastCompetitionId",
      "outputs": [
        {
          "internalType": "uint256",
          "name": "",
          "type": "uint256"
        }
      ],
      "stateMutability": "view",
      "type": "function"
    },
    {
      "inputs": [],
      "name": "lastGameId",
      "outputs": [
        {
          "internalType": "uint256",
          "name": "",
          "type": "uint256"
        }
      ],
      "stateMutability": "view",
      "type": "function"
    },
    {
      "inputs": [
        {
          "internalType": "uint256",
          "name": "_competitionId",
          "type": "uint256"
        },
        {
          "internalType": "string",
          "name": "_name",
          "type": "string"
        }
      ],
      "name": "updateCompetition",
      "outputs": [],
      "stateMutability": "nonpayable",
      "type": "function"
    }
  ],
  "bytecode": "0x608060405234801561001057600080fd5b50611197806100206000396000f3fe608060405234801561001057600080fd5b50600436106100a95760003560e01c8063931f2ca311610071578063931f2ca31461011c5780639d6aaa7d1461012f578063cf0cefa11461014f578063e553940614610162578063e942f9fe14610188578063f40364661461019157600080fd5b80631f90e3d5146100ae5780633ee9d648146100c35780637178d540146100df5780637efb6ac0146100f25780638129fc1c14610114575b600080fd5b6100c16100bc366004610c81565b6101a4565b005b6100cc60025481565b6040519081526020015b60405180910390f35b6100c16100ed366004610cf6565b6102c3565b610105610100366004610d3d565b610316565b6040516100d693929190610dc5565b6100c16103d6565b6100c161012a366004610df8565b6104e7565b61014261013d366004610df8565b61054e565b6040516100d69190610e11565b6100cc61015d366004610ed4565b61071a565b610175610170366004610f11565b6107ae565b6040516100d69796959493929190610f33565b6100cc60015481565b61010561019f366004610df8565b610924565b6101ad84610a17565b6101d25760405162461bcd60e51b81526004016101c990610f88565b60405180910390fd5b60006040518060e00160405280600260008154809291906101f290610fd6565b909155508152602080820188905260408083018890526060830187905260808301869052600060a0840181905260c09093018390528883526004825280832080546001818101835591855293839020855160069095020193845591840151918301919091558201519192508291600282019061026e9082611085565b50606082015160038201906102839082611085565b506080820151600482015560a08201516005909101805460c09093015160ff9081166101000261ffff199094169216919091179190911790555050505050565b6102cc82610a17565b6102e85760405162461bcd60e51b81526004016101c990610f88565b3360009081526003602090815260408083208584529091529020600281016103108382611085565b50505050565b600360209081526000928352604080842090915290825290208054600182015460028301805492936001600160a01b039092169261035390610ffd565b80601f016020809104026020016040519081016040528092919081815260200182805461037f90610ffd565b80156103cc5780601f106103a1576101008083540402835291602001916103cc565b820191906000526020600020905b8154815290600101906020018083116103af57829003601f168201915b5050505050905083565b600054610100900460ff16158080156103f65750600054600160ff909116105b806104105750303b158015610410575060005460ff166001145b6104735760405162461bcd60e51b815260206004820152602e60248201527f496e697469616c697a61626c653a20636f6e747261637420697320616c72656160448201526d191e481a5b9a5d1a585b1a5e995960921b60648201526084016101c9565b6000805460ff191660011790558015610496576000805461ff0019166101001790555b600180805560025580156104e4576000805461ff0019169055604051600181527f7f26b83ff96e1f2b6a682f133852f6798a09c465da95921460cefb38474024989060200160405180910390a15b50565b6104f081610a17565b61050c5760405162461bcd60e51b81526004016101c990610f88565b33600090815260036020908152604080832084845290915281208181556001810180546001600160a01b0319169055906105496002830182610b90565b505050565b6000818152600460209081526040808320805482518185028101850190935280835260609493849084015b8282101561070e57838290600052602060002090600602016040518060e001604052908160008201548152602001600182015481526020016002820180546105c090610ffd565b80601f01602080910402602001604051908101604052809291908181526020018280546105ec90610ffd565b80156106395780601f1061060e57610100808354040283529160200191610639565b820191906000526020600020905b81548152906001019060200180831161061c57829003601f168201915b5050505050815260200160038201805461065290610ffd565b80601f016020809104026020016040519081016040528092919081815260200182805461067e90610ffd565b80156106cb5780601f106106a0576101008083540402835291602001916106cb565b820191906000526020600020905b8154815290600101906020018083116106ae57829003601f168201915b5050509183525050600482015460208083019190915260059092015460ff8082166040840152610100909104166060909101529082526001929092019101610579565b50929695505050505050565b600180546000918291908261072e83610fd6565b9091555060408051606081018252828152336020808301828152838501898152600093845260038352858420878552909252939091208251815592516001840180546001600160a01b0319166001600160a01b03909216919091179055519293509182919060028201906107a29082611085565b50509051949350505050565b600460205281600052604060002081815481106107ca57600080fd5b9060005260206000209060060201600091509150508060000154908060010154908060020180546107fa90610ffd565b80601f016020809104026020016040519081016040528092919081815260200182805461082690610ffd565b80156108735780601f1061084857610100808354040283529160200191610873565b820191906000526020600020905b81548152906001019060200180831161085657829003601f168201915b50505050509080600301805461088890610ffd565b80601f01602080910402602001604051908101604052809291908181526020018280546108b490610ffd565b80156109015780601f106108d657610100808354040283529160200191610901565b820191906000526020600020905b8154815290600101906020018083116108e457829003601f168201915b50505050600483015460059093015491929160ff80821692506101009091041687565b33600090815260036020908152604080832084845282528083208151606081810184528254825260018301546001600160a01b0316948201949094526002820180548695948694929084019161097990610ffd565b80601f01602080910402602001604051908101604052809291908181526020018280546109a590610ffd565b80156109f25780601f106109c7576101008083540402835291602001916109f2565b820191906000526020600020905b8154815290600101906020018083116109d557829003601f168201915b5050509190925250508151602083015160409093015190989297509550909350505050565b336000908152600360209081526040808320848452825280832081516060810183528154815260018201546001600160a01b03169381019390935260028101805485949384019190610a6890610ffd565b80601f0160208091040260200160405190810160405280929190818152602001828054610a9490610ffd565b8015610ae15780601f10610ab657610100808354040283529160200191610ae1565b820191906000526020600020905b815481529060010190602001808311610ac457829003601f168201915b50505091909252505081519192505015801590610b0a575060208101516001600160a01b031615155b8015610b305750610b2e816040015160405180602001604052806000815250610b37565b155b9392505050565b600081604051602001610b4a9190611145565b6040516020818303038152906040528051906020012083604051602001610b719190611145565b6040516020818303038152906040528051906020012014905092915050565b508054610b9c90610ffd565b6000825580601f10610bac575050565b601f0160209004906000526020600020908101906104e491905b80821115610bda5760008155600101610bc6565b5090565b634e487b7160e01b600052604160045260246000fd5b600082601f830112610c0557600080fd5b813567ffffffffffffffff80821115610c2057610c20610bde565b604051601f8301601f19908116603f01168101908282118183101715610c4857610c48610bde565b81604052838152866020858801011115610c6157600080fd5b836020870160208301376000602085830101528094505050505092915050565b60008060008060808587031215610c9757600080fd5b84359350602085013567ffffffffffffffff80821115610cb657600080fd5b610cc288838901610bf4565b94506040870135915080821115610cd857600080fd5b50610ce587828801610bf4565b949793965093946060013593505050565b60008060408385031215610d0957600080fd5b82359150602083013567ffffffffffffffff811115610d2757600080fd5b610d3385828601610bf4565b9150509250929050565b60008060408385031215610d5057600080fd5b82356001600160a01b0381168114610d6757600080fd5b946020939093013593505050565b60005b83811015610d90578181015183820152602001610d78565b50506000910152565b60008151808452610db1816020860160208601610d75565b601f01601f19169290920160200192915050565b8381526001600160a01b0383166020820152606060408201819052600090610def90830184610d99565b95945050505050565b600060208284031215610e0a57600080fd5b5035919050565b60006020808301818452808551808352604092508286019150828160051b87010184880160005b83811015610ec657603f19898403018552815160e0815185528882015189860152878201518189870152610e6e82870182610d99565b91505060608083015186830382880152610e888382610d99565b6080858101519089015260a08086015160ff908116918a019190915260c0958601511694909701939093525050509386019390860190600101610e38565b509098975050505050505050565b600060208284031215610ee657600080fd5b813567ffffffffffffffff811115610efd57600080fd5b610f0984828501610bf4565b949350505050565b60008060408385031215610f2457600080fd5b50508035926020909101359150565b87815286602082015260e060408201526000610f5260e0830188610d99565b8281036060840152610f648188610d99565b6080840196909652505060ff92831660a0820152911660c090910152949350505050565b6020808252602e908201527f436f6d7065746974696f6e206f776e656420627920746869732075736572206460408201526d6f6573206e6f742065786973742160901b606082015260800190565b600060018201610ff657634e487b7160e01b600052601160045260246000fd5b5060010190565b600181811c9082168061101157607f821691505b60208210810361103157634e487b7160e01b600052602260045260246000fd5b50919050565b601f82111561054957600081815260208120601f850160051c8101602086101561105e5750805b601f850160051c820191505b8181101561107d5782815560010161106a565b505050505050565b815167ffffffffffffffff81111561109f5761109f610bde565b6110b3816110ad8454610ffd565b84611037565b602080601f8311600181146110e857600084156110d05750858301515b600019600386901b1c1916600185901b17855561107d565b600085815260208120601f198616915b82811015611117578886015182559484019460019091019084016110f8565b50858210156111355787850151600019600388901b60f8161c191681555b5050505050600190811b01905550565b60008251611157818460208701610d75565b919091019291505056fea26469706673582212200da89094df38b40b2904edf214415051bb056dec0326783f6b9798b714e3f9cc64736f6c63430008110033",
  "linkReferences": {},
  "deployedLinkReferences": {}
}