{
  "_format": "hh-sol-artifact-1",
  "contractName": "MeerkatV1",
  "sourceName": "contracts/MeerkatV1.sol",
  "abi": [
    {
      "anonymous": false,
      "inputs": [
        {
          "indexed": false,
          "internalType": "uint8",
          "name": "version",
          "type": "uint8"
        }
      ],
      "name": "Initialized",
      "type": "event"
    },
    {
      "inputs": [
        {
          "internalType": "string",
          "name": "_name",
          "type": "string"
        }
      ],
      "name": "addCompetition",
      "outputs": [
        {
          "internalType": "uint256",
          "name": "",
          "type": "uint256"
        }
      ],
      "stateMutability": "nonpayable",
      "type": "function"
    },
    {
      "inputs": [
        {
          "internalType": "address",
          "name": "",
          "type": "address"
        },
        {
          "internalType": "uint256",
          "name": "",
          "type": "uint256"
        }
      ],
      "name": "competitions",
      "outputs": [
        {
          "internalType": "uint256",
          "name": "id",
          "type": "uint256"
        },
        {
          "internalType": "address",
          "name": "owner",
          "type": "address"
        },
        {
          "internalType": "string",
          "name": "name",
          "type": "string"
        }
      ],
      "stateMutability": "view",
      "type": "function"
    },
    {
      "inputs": [
        {
          "internalType": "uint256",
          "name": "compId",
          "type": "uint256"
        }
      ],
      "name": "getCompetition",
      "outputs": [
        {
          "internalType": "uint256",
          "name": "",
          "type": "uint256"
        },
        {
          "internalType": "address",
          "name": "",
          "type": "address"
        },
        {
          "internalType": "string",
          "name": "",
          "type": "string"
        }
      ],
      "stateMutability": "view",
      "type": "function"
    },
    {
      "inputs": [],
      "name": "initialize",
      "outputs": [],
      "stateMutability": "nonpayable",
      "type": "function"
    },
    {
      "inputs": [],
      "name": "lastCompetitionId",
      "outputs": [
        {
          "internalType": "uint256",
          "name": "",
          "type": "uint256"
        }
      ],
      "stateMutability": "view",
      "type": "function"
    }
  ],
  "bytecode": "0x608060405234801561001057600080fd5b50610748806100206000396000f3fe608060405234801561001057600080fd5b50600436106100575760003560e01c80637efb6ac01461005c5780638129fc1c14610087578063cf0cefa114610091578063e942f9fe146100b2578063f4036466146100bb575b600080fd5b61006f61006a366004610425565b6100ce565b60405161007e9392919061045d565b60405180910390f35b61008f61018c565b005b6100a461009f3660046104d8565b61029e565b60405190815260200161007e565b6100a460015481565b61006f6100c9366004610589565b610332565b6002602081815260009384526040808520909152918352912080546001820154928201805491936001600160a01b03169291610109906105a2565b80601f0160208091040260200160405190810160405280929190818152602001828054610135906105a2565b80156101825780601f1061015757610100808354040283529160200191610182565b820191906000526020600020905b81548152906001019060200180831161016557829003601f168201915b5050505050905083565b600054610100900460ff16158080156101ac5750600054600160ff909116105b806101c65750303b1580156101c6575060005460ff166001145b61022d5760405162461bcd60e51b815260206004820152602e60248201527f496e697469616c697a61626c653a20636f6e747261637420697320616c72656160448201526d191e481a5b9a5d1a585b1a5e995960921b606482015260840160405180910390fd5b6000805460ff191660011790558015610250576000805461ff0019166101001790555b6000600155801561029b576000805461ff0019169055604051600181527f7f26b83ff96e1f2b6a682f133852f6798a09c465da95921460cefb38474024989060200160405180910390a15b50565b60018054600091829190826102b2836105dc565b909155506040805160608101825282815233602080830182815283850189815260009384526002808452868520888652909352949092208351815591516001830180546001600160a01b0319166001600160a01b039092169190911790559251939450909283928201906103269082610652565b50509051949350505050565b33600090815260026020818152604080842085855282528084208151606081810184528254825260018301546001600160a01b03169482019490945293810180548695869490939290840191610387906105a2565b80601f01602080910402602001604051908101604052809291908181526020018280546103b3906105a2565b80156104005780601f106103d557610100808354040283529160200191610400565b820191906000526020600020905b8154815290600101906020018083116103e357829003601f168201915b5050509190925250508151602083015160409093015190989297509550909350505050565b6000806040838503121561043857600080fd5b82356001600160a01b038116811461044f57600080fd5b946020939093013593505050565b8381526000602060018060a01b0385168184015260606040840152835180606085015260005b8181101561049f57858101830151858201608001528201610483565b506000608082860101526080601f19601f83011685010192505050949350505050565b634e487b7160e01b600052604160045260246000fd5b6000602082840312156104ea57600080fd5b813567ffffffffffffffff8082111561050257600080fd5b818401915084601f83011261051657600080fd5b813581811115610528576105286104c2565b604051601f8201601f19908116603f01168101908382118183101715610550576105506104c2565b8160405282815287602084870101111561056957600080fd5b826020860160208301376000928101602001929092525095945050505050565b60006020828403121561059b57600080fd5b5035919050565b600181811c908216806105b657607f821691505b6020821081036105d657634e487b7160e01b600052602260045260246000fd5b50919050565b6000600182016105fc57634e487b7160e01b600052601160045260246000fd5b5060010190565b601f82111561064d57600081815260208120601f850160051c8101602086101561062a5750805b601f850160051c820191505b8181101561064957828155600101610636565b5050505b505050565b815167ffffffffffffffff81111561066c5761066c6104c2565b6106808161067a84546105a2565b84610603565b602080601f8311600181146106b5576000841561069d5750858301515b600019600386901b1c1916600185901b178555610649565b600085815260208120601f198616915b828110156106e4578886015182559484019460019091019084016106c5565b50858210156107025787850151600019600388901b60f8161c191681555b5050505050600190811b0190555056fea264697066735822122027d1bb74fac62eb4a0a474539a9d6b321b5e86eb71d3eae43270891ff01a0e1264736f6c63430008110033",
  "linkReferences": {},
  "deployedLinkReferences": {}
}