{
  "_format": "hh-sol-artifact-1",
  "contractName": "MeerkatV1",
  "sourceName": "contracts/MeerkatV1.sol",
  "abi": [
    {
      "anonymous": false,
      "inputs": [
        {
          "indexed": false,
          "internalType": "uint8",
          "name": "version",
          "type": "uint8"
        }
      ],
      "name": "Initialized",
      "type": "event"
    },
    {
      "inputs": [
        {
          "internalType": "string",
          "name": "_name",
          "type": "string"
        }
      ],
      "name": "addCompetition",
      "outputs": [
        {
          "internalType": "uint256",
          "name": "",
          "type": "uint256"
        }
      ],
      "stateMutability": "nonpayable",
      "type": "function"
    },
    {
      "inputs": [
        {
          "internalType": "uint256",
          "name": "_competitionId",
          "type": "uint256"
        },
        {
          "internalType": "string",
          "name": "_homeCompetitor",
          "type": "string"
        },
        {
          "internalType": "string",
          "name": "_awayCompetitor",
          "type": "string"
        },
        {
          "internalType": "uint256",
          "name": "_startTime",
          "type": "uint256"
        }
      ],
      "name": "addGame",
      "outputs": [],
      "stateMutability": "nonpayable",
      "type": "function"
    },
    {
      "inputs": [
        {
          "internalType": "address",
          "name": "",
          "type": "address"
        },
        {
          "internalType": "uint256",
          "name": "",
          "type": "uint256"
        }
      ],
      "name": "competitions",
      "outputs": [
        {
          "internalType": "uint256",
          "name": "id",
          "type": "uint256"
        },
        {
          "internalType": "address",
          "name": "owner",
          "type": "address"
        },
        {
          "internalType": "string",
          "name": "name",
          "type": "string"
        }
      ],
      "stateMutability": "view",
      "type": "function"
    },
    {
      "inputs": [
        {
          "internalType": "uint256",
          "name": "_competitionId",
          "type": "uint256"
        }
      ],
      "name": "deleteCompetition",
      "outputs": [],
      "stateMutability": "nonpayable",
      "type": "function"
    },
    {
      "inputs": [
        {
          "internalType": "uint256",
          "name": "_competitionId",
          "type": "uint256"
        },
        {
          "internalType": "uint256",
          "name": "_gameId",
          "type": "uint256"
        }
      ],
      "name": "deleteGame",
      "outputs": [],
      "stateMutability": "nonpayable",
      "type": "function"
    },
    {
      "inputs": [
        {
          "internalType": "uint256",
          "name": "",
          "type": "uint256"
        },
        {
          "internalType": "uint256",
          "name": "",
          "type": "uint256"
        }
      ],
      "name": "games",
      "outputs": [
        {
          "internalType": "uint256",
          "name": "id",
          "type": "uint256"
        },
        {
          "internalType": "uint256",
          "name": "competitionId",
          "type": "uint256"
        },
        {
          "internalType": "string",
          "name": "homeCompetitor",
          "type": "string"
        },
        {
          "internalType": "string",
          "name": "awayCompetitor",
          "type": "string"
        },
        {
          "internalType": "uint256",
          "name": "startTime",
          "type": "uint256"
        },
        {
          "internalType": "uint8",
          "name": "homeScore",
          "type": "uint8"
        },
        {
          "internalType": "uint8",
          "name": "awayScore",
          "type": "uint8"
        }
      ],
      "stateMutability": "view",
      "type": "function"
    },
    {
      "inputs": [
        {
          "internalType": "uint256",
          "name": "_competitionId",
          "type": "uint256"
        }
      ],
      "name": "getCompetition",
      "outputs": [
        {
          "components": [
            {
              "internalType": "uint256",
              "name": "id",
              "type": "uint256"
            },
            {
              "internalType": "address",
              "name": "owner",
              "type": "address"
            },
            {
              "internalType": "string",
              "name": "name",
              "type": "string"
            }
          ],
          "internalType": "struct MeerkatV1.Competition",
          "name": "",
          "type": "tuple"
        }
      ],
      "stateMutability": "view",
      "type": "function"
    },
    {
      "inputs": [
        {
          "internalType": "uint256",
          "name": "_competitionId",
          "type": "uint256"
        }
      ],
      "name": "getGames",
      "outputs": [
        {
          "components": [
            {
              "internalType": "uint256",
              "name": "id",
              "type": "uint256"
            },
            {
              "internalType": "uint256",
              "name": "competitionId",
              "type": "uint256"
            },
            {
              "internalType": "string",
              "name": "homeCompetitor",
              "type": "string"
            },
            {
              "internalType": "string",
              "name": "awayCompetitor",
              "type": "string"
            },
            {
              "internalType": "uint256",
              "name": "startTime",
              "type": "uint256"
            },
            {
              "internalType": "uint8",
              "name": "homeScore",
              "type": "uint8"
            },
            {
              "internalType": "uint8",
              "name": "awayScore",
              "type": "uint8"
            }
          ],
          "internalType": "struct MeerkatV1.Game[]",
          "name": "",
          "type": "tuple[]"
        }
      ],
      "stateMutability": "view",
      "type": "function"
    },
    {
      "inputs": [],
      "name": "initialize",
      "outputs": [],
      "stateMutability": "nonpayable",
      "type": "function"
    },
    {
      "inputs": [],
      "name": "lastCompetitionId",
      "outputs": [
        {
          "internalType": "uint256",
          "name": "",
          "type": "uint256"
        }
      ],
      "stateMutability": "view",
      "type": "function"
    },
    {
      "inputs": [],
      "name": "lastGameId",
      "outputs": [
        {
          "internalType": "uint256",
          "name": "",
          "type": "uint256"
        }
      ],
      "stateMutability": "view",
      "type": "function"
    },
    {
      "inputs": [
        {
          "internalType": "uint256",
          "name": "_competitionId",
          "type": "uint256"
        },
        {
          "internalType": "string",
          "name": "_name",
          "type": "string"
        }
      ],
      "name": "updateCompetition",
      "outputs": [],
      "stateMutability": "nonpayable",
      "type": "function"
    },
    {
      "inputs": [
        {
          "internalType": "uint256",
          "name": "_competitionId",
          "type": "uint256"
        },
        {
          "internalType": "uint256",
          "name": "_gameId",
          "type": "uint256"
        },
        {
          "internalType": "string",
          "name": "_homeCompetitor",
          "type": "string"
        },
        {
          "internalType": "string",
          "name": "_awayCompetitor",
          "type": "string"
        },
        {
          "internalType": "uint256",
          "name": "_startTime",
          "type": "uint256"
        },
        {
          "internalType": "uint8",
          "name": "_homeScore",
          "type": "uint8"
        },
        {
          "internalType": "uint8",
          "name": "_awayScore",
          "type": "uint8"
        }
      ],
      "name": "updateGame",
      "outputs": [],
      "stateMutability": "nonpayable",
      "type": "function"
    }
  ],
  "bytecode": "0x608060405234801561001057600080fd5b50611730806100206000396000f3fe608060405234801561001057600080fd5b50600436106100cf5760003560e01c80639d6aaa7d1161008c578063e553940611610066578063e55394061461019b578063e60fa47b146101c1578063e942f9fe146101d4578063f4036466146101dd57600080fd5b80639d6aaa7d14610155578063a2c0cfcc14610175578063cf0cefa11461018857600080fd5b80631f90e3d5146100d45780633ee9d648146100e95780637178d540146101055780637efb6ac0146101185780638129fc1c1461013a578063931f2ca314610142575b600080fd5b6100e76100e2366004611115565b6101fd565b005b6100f260025481565b6040519081526020015b60405180910390f35b6100e761011336600461118a565b61031c565b61012b6101263660046111d1565b61036f565b6040516100fc93929190611259565b6100e761042f565b6100e761015036600461128c565b610540565b61016861016336600461128c565b6105a7565b6040516100fc91906112a5565b6100e761018336600461137e565b610773565b6100f2610196366004611420565b6109e0565b6101ae6101a936600461145d565b610a74565b6040516100fc979695949392919061147f565b6100e76101cf36600461145d565b610bea565b6100f260015481565b6101f06101eb36600461128c565b610cdc565b6040516100fc91906114d4565b61020684610dce565b61022b5760405162461bcd60e51b81526004016102229061150b565b60405180910390fd5b60006040518060e001604052806002600081548092919061024b90611559565b909155508152602080820188905260408083018890526060830187905260808301869052600060a0840181905260c0909301839052888352600482528083208054600181810183559185529383902085516006909502019384559184015191830191909155820151919250829160028201906102c79082611608565b50606082015160038201906102dc9082611608565b506080820151600482015560a08201516005909101805460c09093015160ff9081166101000261ffff199094169216919091179190911790555050505050565b61032582610dce565b6103415760405162461bcd60e51b81526004016102229061150b565b3360009081526003602090815260408083208584529091529020600281016103698382611608565b50505050565b600360209081526000928352604080842090915290825290208054600182015460028301805492936001600160a01b03909216926103ac90611580565b80601f01602080910402602001604051908101604052809291908181526020018280546103d890611580565b80156104255780601f106103fa57610100808354040283529160200191610425565b820191906000526020600020905b81548152906001019060200180831161040857829003601f168201915b5050505050905083565b600054610100900460ff161580801561044f5750600054600160ff909116105b806104695750303b158015610469575060005460ff166001145b6104cc5760405162461bcd60e51b815260206004820152602e60248201527f496e697469616c697a61626c653a20636f6e747261637420697320616c72656160448201526d191e481a5b9a5d1a585b1a5e995960921b6064820152608401610222565b6000805460ff1916600117905580156104ef576000805461ff0019166101001790555b6001808055600255801561053d576000805461ff0019169055604051600181527f7f26b83ff96e1f2b6a682f133852f6798a09c465da95921460cefb38474024989060200160405180910390a15b50565b61054981610dce565b6105655760405162461bcd60e51b81526004016102229061150b565b33600090815260036020908152604080832084845290915281208181556001810180546001600160a01b0319169055906105a26002830182611024565b505050565b6000818152600460209081526040808320805482518185028101850190935280835260609493849084015b8282101561076757838290600052602060002090600602016040518060e0016040529081600082015481526020016001820154815260200160028201805461061990611580565b80601f016020809104026020016040519081016040528092919081815260200182805461064590611580565b80156106925780601f1061066757610100808354040283529160200191610692565b820191906000526020600020905b81548152906001019060200180831161067557829003601f168201915b505050505081526020016003820180546106ab90611580565b80601f01602080910402602001604051908101604052809291908181526020018280546106d790611580565b80156107245780601f106106f957610100808354040283529160200191610724565b820191906000526020600020905b81548152906001019060200180831161070757829003601f168201915b5050509183525050600482015460208083019190915260059092015460ff80821660408401526101009091041660609091015290825260019290920191016105d2565b50929695505050505050565b61077c87610dce565b6107985760405162461bcd60e51b81526004016102229061150b565b6000806107a58989610eee565b91509150816107ed5760405162461bcd60e51b815260206004820152601460248201527347616d6520646f6573206e6f742065786973742160601b6044820152606401610222565b600089815260046020526040812080548390811061080d5761080d6116c8565b906000526020600020906006020190506108b381600201805461082f90611580565b80601f016020809104026020016040519081016040528092919081815260200182805461085b90611580565b80156108a85780601f1061087d576101008083540402835291602001916108a8565b820191906000526020600020905b81548152906001019060200180831161088b57829003601f168201915b505050505089610f6a565b6108c757600281016108c58982611608565b505b61095d8160030180546108d990611580565b80601f016020809104026020016040519081016040528092919081815260200182805461090590611580565b80156109525780601f1061092757610100808354040283529160200191610952565b820191906000526020600020905b81548152906001019060200180831161093557829003601f168201915b505050505088610f6a565b610971576003810161096f8882611608565b505b8581600401541461098457600481018690555b600581015460ff8681169116146109a75760058101805460ff191660ff87161790555b600581015460ff85811661010090920416146109d45760058101805461ff00191661010060ff8716021790555b50505050505050505050565b60018054600091829190826109f483611559565b9091555060408051606081018252828152336020808301828152838501898152600093845260038352858420878552909252939091208251815592516001840180546001600160a01b0319166001600160a01b0390921691909117905551929350918291906002820190610a689082611608565b50509051949350505050565b60046020528160005260406000208181548110610a9057600080fd5b906000526020600020906006020160009150915050806000015490806001015490806002018054610ac090611580565b80601f0160208091040260200160405190810160405280929190818152602001828054610aec90611580565b8015610b395780601f10610b0e57610100808354040283529160200191610b39565b820191906000526020600020905b815481529060010190602001808311610b1c57829003601f168201915b505050505090806003018054610b4e90611580565b80601f0160208091040260200160405190810160405280929190818152602001828054610b7a90611580565b8015610bc75780601f10610b9c57610100808354040283529160200191610bc7565b820191906000526020600020905b815481529060010190602001808311610baa57829003601f168201915b50505050600483015460059093015491929160ff80821692506101009091041687565b610bf382610dce565b610c0f5760405162461bcd60e51b81526004016102229061150b565b600080610c1c8484610eee565b9150915081610c645760405162461bcd60e51b815260206004820152601460248201527347616d6520646f6573206e6f742065786973742160601b6044820152606401610222565b610c6d82610fc3565b6000848152600460205260409020805482908110610c8d57610c8d6116c8565b6000918252602082206006909102018181556001810182905590610cb46002830182611024565b610cc2600383016000611024565b5060006004820155600501805461ffff1916905550505050565b60408051606080820183526000808352602080840182905283850183905233825260038152848220868352815290849020845192830185528054835260018101546001600160a01b031691830191909152600281018054939492939192840191610d4590611580565b80601f0160208091040260200160405190810160405280929190818152602001828054610d7190611580565b8015610dbe5780601f10610d9357610100808354040283529160200191610dbe565b820191906000526020600020905b815481529060010190602001808311610da157829003601f168201915b5050505050815250509050919050565b336000908152600360209081526040808320848452825280832081516060810183528154815260018201546001600160a01b03169381019390935260028101805485949384019190610e1f90611580565b80601f0160208091040260200160405190810160405280929190818152602001828054610e4b90611580565b8015610e985780601f10610e6d57610100808354040283529160200191610e98565b820191906000526020600020905b815481529060010190602001808311610e7b57829003601f168201915b50505091909252505081519192505015801590610ec1575060208101516001600160a01b031615155b8015610ee75750610ee5816040015160405180602001604052806000815250610f6a565b155b9392505050565b60008281526004602052604081208190815b8154811015610f59576000828281548110610f1d57610f1d6116c8565b9060005260206000209060060201905085816000015403610f465750600193509150610f639050565b5080610f5181611559565b915050610f00565b5060008092509250505b9250929050565b600081604051602001610f7d91906116de565b6040516020818303038152906040528051906020012083604051602001610fa491906116de565b6040516020818303038152906040528051906020012014905092915050565b604051811515602482015261053d9060440160408051601f198184030181529190526020810180516001600160e01b03166332458eed60e01b17905261053d8160006a636f6e736f6c652e6c6f679050600080835160208501845afa505050565b50805461103090611580565b6000825580601f10611040575050565b601f01602090049060005260206000209081019061053d91905b8082111561106e576000815560010161105a565b5090565b634e487b7160e01b600052604160045260246000fd5b600082601f83011261109957600080fd5b813567ffffffffffffffff808211156110b4576110b4611072565b604051601f8301601f19908116603f011681019082821181831017156110dc576110dc611072565b816040528381528660208588010111156110f557600080fd5b836020870160208301376000602085830101528094505050505092915050565b6000806000806080858703121561112b57600080fd5b84359350602085013567ffffffffffffffff8082111561114a57600080fd5b61115688838901611088565b9450604087013591508082111561116c57600080fd5b5061117987828801611088565b949793965093946060013593505050565b6000806040838503121561119d57600080fd5b82359150602083013567ffffffffffffffff8111156111bb57600080fd5b6111c785828601611088565b9150509250929050565b600080604083850312156111e457600080fd5b82356001600160a01b03811681146111fb57600080fd5b946020939093013593505050565b60005b8381101561122457818101518382015260200161120c565b50506000910152565b60008151808452611245816020860160208601611209565b601f01601f19169290920160200192915050565b8381526001600160a01b03831660208201526060604082018190526000906112839083018461122d565b95945050505050565b60006020828403121561129e57600080fd5b5035919050565b60006020808301818452808551808352604092508286019150828160051b87010184880160005b8381101561135a57603f19898403018552815160e08151855288820151898601528782015181898701526113028287018261122d565b9150506060808301518683038288015261131c838261122d565b6080858101519089015260a08086015160ff908116918a019190915260c09586015116949097019390935250505093860193908601906001016112cc565b509098975050505050505050565b803560ff8116811461137957600080fd5b919050565b600080600080600080600060e0888a03121561139957600080fd5b8735965060208801359550604088013567ffffffffffffffff808211156113bf57600080fd5b6113cb8b838c01611088565b965060608a01359150808211156113e157600080fd5b506113ee8a828b01611088565b9450506080880135925061140460a08901611368565b915061141260c08901611368565b905092959891949750929550565b60006020828403121561143257600080fd5b813567ffffffffffffffff81111561144957600080fd5b61145584828501611088565b949350505050565b6000806040838503121561147057600080fd5b50508035926020909101359150565b87815286602082015260e06040820152600061149e60e083018861122d565b82810360608401526114b0818861122d565b6080840196909652505060ff92831660a0820152911660c090910152949350505050565b602081528151602082015260018060a01b03602083015116604082015260006040830151606080840152611455608084018261122d565b6020808252602e908201527f436f6d7065746974696f6e206f776e656420627920746869732075736572206460408201526d6f6573206e6f742065786973742160901b606082015260800190565b60006001820161157957634e487b7160e01b600052601160045260246000fd5b5060010190565b600181811c9082168061159457607f821691505b6020821081036115b457634e487b7160e01b600052602260045260246000fd5b50919050565b601f8211156105a257600081815260208120601f850160051c810160208610156115e15750805b601f850160051c820191505b81811015611600578281556001016115ed565b505050505050565b815167ffffffffffffffff81111561162257611622611072565b611636816116308454611580565b846115ba565b602080601f83116001811461166b57600084156116535750858301515b600019600386901b1c1916600185901b178555611600565b600085815260208120601f198616915b8281101561169a5788860151825594840194600190910190840161167b565b50858210156116b85787850151600019600388901b60f8161c191681555b5050505050600190811b01905550565b634e487b7160e01b600052603260045260246000fd5b600082516116f0818460208701611209565b919091019291505056fea2646970667358221220ed110babad5f07dd2f8e7e499a648a126b82a8f358489059178cea33fc3fbd8364736f6c63430008110033",
  "linkReferences": {},
  "deployedLinkReferences": {}
}