{"contracts/MeerkatCompetition.sol":{"MeerkatCompetitionV1":{"abi":[{"anonymous":false,"inputs":[{"indexed":false,"internalType":"uint8","name":"version","type":"uint8"}],"name":"Initialized","type":"event"},{"inputs":[{"internalType":"string","name":"_homeCompetitor","type":"string"},{"internalType":"string","name":"_awayCompetitor","type":"string"},{"internalType":"uint256","name":"_startTime","type":"uint256"}],"name":"addGame","outputs":[],"stateMutability":"nonpayable","type":"function"},{"inputs":[{"internalType":"uint256","name":"_gameId","type":"uint256"},{"internalType":"uint8","name":"_homeScore","type":"uint8"},{"internalType":"uint8","name":"_awayScore","type":"uint8"}],"name":"addOrUpdatePrediction","outputs":[],"stateMutability":"nonpayable","type":"function"},{"inputs":[{"internalType":"uint256","name":"_gameId","type":"uint256"}],"name":"deleteGame","outputs":[],"stateMutability":"nonpayable","type":"function"},{"inputs":[{"internalType":"uint256","name":"_gameId","type":"uint256"}],"name":"getGame","outputs":[{"components":[{"internalType":"uint256","name":"id","type":"uint256"},{"internalType":"string","name":"homeCompetitor","type":"string"},{"internalType":"string","name":"awayCompetitor","type":"string"},{"internalType":"uint256","name":"startTime","type":"uint256"},{"internalType":"uint8","name":"homeScore","type":"uint8"},{"internalType":"uint8","name":"awayScore","type":"uint8"},{"internalType":"bool","name":"isFinalized","type":"bool"}],"internalType":"struct MeerkatCompetitionV1.Game","name":"","type":"tuple"}],"stateMutability":"view","type":"function"},{"inputs":[],"name":"getGames","outputs":[{"components":[{"internalType":"uint256","name":"id","type":"uint256"},{"internalType":"string","name":"homeCompetitor","type":"string"},{"internalType":"string","name":"awayCompetitor","type":"string"},{"internalType":"uint256","name":"startTime","type":"uint256"},{"internalType":"uint8","name":"homeScore","type":"uint8"},{"internalType":"uint8","name":"awayScore","type":"uint8"},{"internalType":"bool","name":"isFinalized","type":"bool"}],"internalType":"struct MeerkatCompetitionV1.Game[]","name":"","type":"tuple[]"}],"stateMutability":"view","type":"function"},{"inputs":[],"name":"getPoints","outputs":[{"components":[{"internalType":"address","name":"user","type":"address"},{"internalType":"uint8","name":"points","type":"uint8"},{"internalType":"uint8","name":"correctPredictions","type":"uint8"},{"internalType":"uint8","name":"correctOutcomes","type":"uint8"},{"internalType":"uint8","name":"totalNumberOfPredictions","type":"uint8"}],"internalType":"struct MeerkatCompetitionV1.UserScore[]","name":"","type":"tuple[]"}],"stateMutability":"view","type":"function"},{"inputs":[{"internalType":"uint256","name":"_gameId","type":"uint256"}],"name":"getPrediction","outputs":[{"components":[{"internalType":"uint256","name":"gameId","type":"uint256"},{"internalType":"uint8","name":"homeScore","type":"uint8"},{"internalType":"uint8","name":"awayScore","type":"uint8"}],"internalType":"struct MeerkatCompetitionV1.Prediction","name":"","type":"tuple"}],"stateMutability":"view","type":"function"},{"inputs":[{"internalType":"address","name":"_user","type":"address"}],"name":"getPredictions","outputs":[{"components":[{"internalType":"uint256","name":"gameId","type":"uint256"},{"internalType":"uint8","name":"homeScore","type":"uint8"},{"internalType":"uint8","name":"awayScore","type":"uint8"}],"internalType":"struct MeerkatCompetitionV1.Prediction[]","name":"","type":"tuple[]"}],"stateMutability":"view","type":"function"},{"inputs":[{"internalType":"string","name":"_name","type":"string"}],"name":"initialize","outputs":[],"stateMutability":"nonpayable","type":"function"},{"inputs":[],"name":"name","outputs":[{"internalType":"string","name":"","type":"string"}],"stateMutability":"view","type":"function"},{"inputs":[],"name":"owner","outputs":[{"internalType":"address","name":"","type":"address"}],"stateMutability":"view","type":"function"},{"inputs":[{"internalType":"uint256","name":"_gameId","type":"uint256"},{"internalType":"string","name":"_homeCompetitor","type":"string"},{"internalType":"string","name":"_awayCompetitor","type":"string"},{"internalType":"uint256","name":"_startTime","type":"uint256"},{"internalType":"uint8","name":"_homeScore","type":"uint8"},{"internalType":"uint8","name":"_awayScore","type":"uint8"},{"internalType":"bool","name":"_isFinalized","type":"bool"}],"name":"updateGame","outputs":[],"stateMutability":"nonpayable","type":"function"}],"evm":{"bytecode":{"linkReferences":{},"object":"608060405234801561001057600080fd5b50611d65806100206000396000f3fe608060405234801561001057600080fd5b50600436106100b45760003560e01c8063aaa2835d11610071578063aaa2835d1461015d578063b799bb0f14610170578063c04c594714610190578063f4b7095b146101a5578063f62d1888146101ba578063fe83bece146101cd57600080fd5b806306fdde03146100b9578063248a55a1146100d757806373abca82146100ec5780638da5cb5b146100ff578063a2f77bcc1461012a578063a5c86b771461014a575b600080fd5b6100c16101ed565b6040516100ce9190611622565b60405180910390f35b6100ea6100e536600461163c565b61027b565b005b6100ea6100fa36600461170e565b61034c565b600254610112906001600160a01b031681565b6040516001600160a01b0390911681526020016100ce565b61013d61013836600461163c565b6105a9565b6040516100ce9190611835565b6100ea610158366004611848565b610738565b6100ea61016b3660046118b5565b610872565b61018361017e3660046118f1565b610a6b565b6040516100ce919061191a565b610198610bd4565b6040516100ce9190611985565b6101ad610e01565b6040516100ce91906119e7565b6100ea6101c8366004611a68565b610ef4565b6101e06101db36600461163c565b61101d565b6040516100ce9190611aa5565b600180546101fa90611ad0565b80601f016020809104026020016040519081016040528092919081815260200182805461022690611ad0565b80156102735780601f1061024857610100808354040283529160200191610273565b820191906000526020600020905b81548152906001019060200180831161025657829003601f168201915b505050505081565b6002546001600160a01b031633146102ae5760405162461bcd60e51b81526004016102a590611b04565b60405180910390fd5b600081815260036020526040812080548392036102dd5760405162461bcd60e51b81526004016102a590611b33565b6000838152600360205260408120818155906102fc6001830182611537565b61030a600283016000611537565b50600060038201556004908101805462ffffff1916905561032c600185611b77565b8154811061033c5761033c611b8a565b6000918252602082200155505050565b6002546001600160a01b031633146103765760405162461bcd60e51b81526004016102a590611b04565b600087815260036020526040812080548992036103a55760405162461bcd60e51b81526004016102a590611b33565b600089815260036020526040902060018101805461044b91906103c790611ad0565b80601f01602080910402602001604051908101604052809291908181526020018280546103f390611ad0565b80156104405780601f1061041557610100808354040283529160200191610440565b820191906000526020600020905b81548152906001019060200180831161042357829003601f168201915b50505050508a6110b8565b61045f576001810161045d8a82611bef565b505b6104f581600201805461047190611ad0565b80601f016020809104026020016040519081016040528092919081815260200182805461049d90611ad0565b80156104ea5780601f106104bf576101008083540402835291602001916104ea565b820191906000526020600020905b8154815290600101906020018083116104cd57829003601f168201915b5050505050896110b8565b61050957600281016105078982611bef565b505b8681600301541461051c57600381018790555b600481015460ff87811691161461053f5760048101805460ff191660ff88161790555b600481015460ff868116610100909204161461056c5760048101805461ff00191661010060ff8816021790555b600481015460ff620100009091041615158415151461059d5760048101805462ff0000191662010000861515021790555b50505050505050505050565b6105b1611574565b600360008381526020019081526020016000206040518060e0016040529081600082015481526020016001820180546105e990611ad0565b80601f016020809104026020016040519081016040528092919081815260200182805461061590611ad0565b80156106625780601f1061063757610100808354040283529160200191610662565b820191906000526020600020905b81548152906001019060200180831161064557829003601f168201915b5050505050815260200160028201805461067b90611ad0565b80601f01602080910402602001604051908101604052809291908181526020018280546106a790611ad0565b80156106f45780601f106106c9576101008083540402835291602001916106f4565b820191906000526020600020905b8154815290600101906020018083116106d757829003601f168201915b50505091835250506003820154602082015260049091015460ff80821660408401526101008204811660608401526201000090910416151560809091015292915050565b6002546001600160a01b031633146107625760405162461bcd60e51b81526004016102a590611b04565b600060056000815461077390611caf565b91829055506040805160e08101825282815260208082018881528284018890526060830187905260006080840181905260a0840181905260c0840181905285815260039092529290208151815591519293509160018201906107d59082611bef565b50604082015160028201906107ea9082611bef565b506060820151600382015560808201516004918201805460a085015160c0909501511515620100000262ff00001960ff9687166101000261ffff19909316969094169590951717919091169290921790915580546001810182556000919091527f8a35acfbc15ff81a39ae7d344fd709f28e8600b4aa8c65c6b64bfe7fe36bd19b0155505050565b600083815260036020526040812080548592036108a15760405162461bcd60e51b81526004016102a590611b33565b33600090815260066020908152604080832088845282528083206003928390529220015442908111156109165760405162461bcd60e51b815260206004820152601960248201527f47616d652068617320616c72656164792073746172746564210000000000000060448201526064016102a5565b3360009081526008602052604090205460ff1661098a57336000818152600860205260408120805460ff191660019081179091556009805491820181559091527f6e1540171b6c0c960b71a7020d9f60077f6af931a8bbf590da0223dacf75c7af0180546001600160a01b03191690911790555b8154600003610a12576040805160608101825288815260ff8089166020808401918252898316848601908152336000818152600684528781208f8252845287812096518755935160019687018054935187166101000261ffff199094169190961617919091179093559181526007825292832080549283018155835290912001879055610a62565b600182015460ff878116911614610a355760018201805460ff191660ff88161790555b600182015460ff8681166101009092041614610a625760018201805461ff00191661010060ff8816021790555b50505050505050565b6001600160a01b0381166000908152600760205260408120546060919067ffffffffffffffff811115610aa057610aa0611655565b604051908082528060200260200182016040528015610aeb57816020015b6040805160608101825260008082526020808301829052928201528252600019909201910181610abe5790505b50905060005b6001600160a01b038416600090815260076020526040902054811015610bcd576001600160a01b038416600090815260066020908152604080832060079092528220805483919085908110610b4857610b48611b8a565b9060005260206000200154815260200190815260200160002090508060000154600014610bba576040805160608101825282548152600183015460ff808216602084015261010090910416918101919091528351849084908110610bae57610bae611b8a565b60200260200101819052505b5080610bc581611caf565b915050610af1565b5092915050565b60045460609060009067ffffffffffffffff811115610bf557610bf5611655565b604051908082528060200260200182016040528015610c2e57816020015b610c1b611574565b815260200190600190039081610c135790505b50905060005b600454811015610dfb5760036000610c4d836001611cc8565b81526020019081526020016000206040518060e001604052908160008201548152602001600182018054610c8090611ad0565b80601f0160208091040260200160405190810160405280929190818152602001828054610cac90611ad0565b8015610cf95780601f10610cce57610100808354040283529160200191610cf9565b820191906000526020600020905b815481529060010190602001808311610cdc57829003601f168201915b50505050508152602001600282018054610d1290611ad0565b80601f0160208091040260200160405190810160405280929190818152602001828054610d3e90611ad0565b8015610d8b5780601f10610d6057610100808354040283529160200191610d8b565b820191906000526020600020905b815481529060010190602001808311610d6e57829003601f168201915b50505091835250506003820154602082015260049091015460ff8082166040840152610100820481166060840152620100009091041615156080909101528251839083908110610ddd57610ddd611b8a565b60200260200101819052508080610df390611caf565b915050610c34565b50919050565b60095460609060009067ffffffffffffffff811115610e2257610e22611655565b604051908082528060200260200182016040528015610e7b57816020015b6040805160a081018252600080825260208083018290529282018190526060820181905260808201528252600019909201910181610e405790505b50905060005b600954811015610dfb57600060098281548110610ea057610ea0611b8a565b60009182526020822001546001600160a01b03169150610ebf82611112565b905080848481518110610ed457610ed4611b8a565b602002602001018190525050508080610eec90611caf565b915050610e81565b600054610100900460ff1615808015610f145750600054600160ff909116105b80610f2e5750303b158015610f2e575060005460ff166001145b610f915760405162461bcd60e51b815260206004820152602e60248201527f496e697469616c697a61626c653a20636f6e747261637420697320616c72656160448201526d191e481a5b9a5d1a585b1a5e995960921b60648201526084016102a5565b6000805460ff191660011790558015610fb4576000805461ff0019166101001790555b6001610fc08382611bef565b50600280546001600160a01b031916331790558015611019576000805461ff0019169055604051600181527f7f26b83ff96e1f2b6a682f133852f6798a09c465da95921460cefb38474024989060200160405180910390a15b5050565b6040805160608101825260008082526020820181905291810191909152600082815260036020526040812080548492036110695760405162461bcd60e51b81526004016102a590611b33565b50503360009081526006602090815260408083209483529381529083902083516060810185528154815260019091015460ff808216938301939093526101009004909116928101929092525090565b6000816040516020016110cb9190611cdb565b60405160208183030381529060405280519060200120836040516020016110f29190611cdb565b604051602081830303815290604052805190602001201490505b92915050565b6040805160a0810182526000808252602082018190529181018290526060810182905260808101919091526040805160a0810182526001600160a01b03841681526000602082018190529181018290526060810182905260808101829052905b600454811015610bcd5760006004828154811061119157611191611b8a565b906000526020600020015490506000600360008381526020019081526020016000206040518060e0016040529081600082015481526020016001820180546111d890611ad0565b80601f016020809104026020016040519081016040528092919081815260200182805461120490611ad0565b80156112515780601f1061122657610100808354040283529160200191611251565b820191906000526020600020905b81548152906001019060200180831161123457829003601f168201915b5050505050815260200160028201805461126a90611ad0565b80601f016020809104026020016040519081016040528092919081815260200182805461129690611ad0565b80156112e35780601f106112b8576101008083540402835291602001916112e3565b820191906000526020600020905b8154815290600101906020018083116112c657829003601f168201915b50505091835250506003820154602082015260049091015460ff80821660408401526101008204811660608401526201000090910416151560809091015260c081015190915015611458576001600160a01b03861660009081526006602090815260408083208584528252918290208251606081018452815480825260019092015460ff808216948301949094526101009004909216928201929092529015611456576113a282608001518360a001518360200151846040015161146d565b156113f1576003856020018181516113ba9190611cf7565b60ff16905250604085018051906113d082611d10565b60ff16905250606085018051906113e682611d10565b60ff1690525061143f565b61140d82608001518360a0015183602001518460400151611492565b1561143f576020850180519061142282611d10565b60ff169052506060850180519061143882611d10565b60ff169052505b6080850180519061144f82611d10565b60ff169052505b505b5050808061146590611caf565b915050611172565b60008260ff168560ff1614801561148957508160ff168460ff16145b95945050505050565b60006114a0858585856114c4565b806114b257506114b2858585856114e5565b80611489575061148985858585611506565b60008360ff168560ff1611801561148957505060ff90811691161192915050565b60008360ff168560ff1610801561148957505060ff90811691161092915050565b60008360ff168560ff1614801561152257508160ff168360ff16145b8015611489575050505060ff91821691161490565b50805461154390611ad0565b6000825580601f10611553575050565b601f01602090049060005260206000209081019061157191906115b9565b50565b6040518060e0016040528060008152602001606081526020016060815260200160008152602001600060ff168152602001600060ff1681526020016000151581525090565b5b808211156115ce57600081556001016115ba565b5090565b60005b838110156115ed5781810151838201526020016115d5565b50506000910152565b6000815180845261160e8160208601602086016115d2565b601f01601f19169290920160200192915050565b60208152600061163560208301846115f6565b9392505050565b60006020828403121561164e57600080fd5b5035919050565b634e487b7160e01b600052604160045260246000fd5b600082601f83011261167c57600080fd5b813567ffffffffffffffff8082111561169757611697611655565b604051601f8301601f19908116603f011681019082821181831017156116bf576116bf611655565b816040528381528660208588010111156116d857600080fd5b836020870160208301376000602085830101528094505050505092915050565b803560ff8116811461170957600080fd5b919050565b600080600080600080600060e0888a03121561172957600080fd5b87359650602088013567ffffffffffffffff8082111561174857600080fd5b6117548b838c0161166b565b975060408a013591508082111561176a57600080fd5b506117778a828b0161166b565b9550506060880135935061178d608089016116f8565b925061179b60a089016116f8565b915060c088013580151581146117b057600080fd5b8091505092959891949750929550565b805182526000602082015160e060208501526117df60e08501826115f6565b9050604083015184820360408601526117f882826115f6565b9150506060830151606085015260ff608084015116608085015260ff60a08401511660a085015260c0830151151560c08501528091505092915050565b60208152600061163560208301846117c0565b60008060006060848603121561185d57600080fd5b833567ffffffffffffffff8082111561187557600080fd5b6118818783880161166b565b9450602086013591508082111561189757600080fd5b506118a48682870161166b565b925050604084013590509250925092565b6000806000606084860312156118ca57600080fd5b833592506118da602085016116f8565b91506118e8604085016116f8565b90509250925092565b60006020828403121561190357600080fd5b81356001600160a01b038116811461163557600080fd5b6020808252825182820181905260009190848201906040850190845b81811015611979576119668385518051825260ff602082015116602083015260ff60408201511660408301525050565b9284019260609290920191600101611936565b50909695505050505050565b6000602080830181845280855180835260408601915060408160051b870101925083870160005b828110156119da57603f198886030184526119c88583516117c0565b945092850192908501906001016119ac565b5092979650505050505050565b602080825282518282018190526000919060409081850190868401855b82811015611a5b57815180516001600160a01b031685528681015160ff9081168887015286820151811687870152606080830151821690870152608091820151169085015260a09093019290850190600101611a04565b5091979650505050505050565b600060208284031215611a7a57600080fd5b813567ffffffffffffffff811115611a9157600080fd5b611a9d8482850161166b565b949350505050565b6060810161110c82848051825260ff602082015116602083015260ff60408201511660408301525050565b600181811c90821680611ae457607f821691505b602082108103610dfb57634e487b7160e01b600052602260045260246000fd5b602080825260159082015274556e617574686f72697a656420726571756573742160581b604082015260600190565b60208082526014908201527347616d6520646f6573206e6f742065786973742160601b604082015260600190565b634e487b7160e01b600052601160045260246000fd5b8181038181111561110c5761110c611b61565b634e487b7160e01b600052603260045260246000fd5b601f821115611bea57600081815260208120601f850160051c81016020861015611bc75750805b601f850160051c820191505b81811015611be657828155600101611bd3565b5050505b505050565b815167ffffffffffffffff811115611c0957611c09611655565b611c1d81611c178454611ad0565b84611ba0565b602080601f831160018114611c525760008415611c3a5750858301515b600019600386901b1c1916600185901b178555611be6565b600085815260208120601f198616915b82811015611c8157888601518255948401946001909101908401611c62565b5085821015611c9f5787850151600019600388901b60f8161c191681555b5050505050600190811b01905550565b600060018201611cc157611cc1611b61565b5060010190565b8082018082111561110c5761110c611b61565b60008251611ced8184602087016115d2565b9190910192915050565b60ff818116838216019081111561110c5761110c611b61565b600060ff821660ff8103611d2657611d26611b61565b6001019291505056fea2646970667358221220966aac2e0cbfe42d9e279f2bf089d9922d63471355dc185ef2b809d8a464435064736f6c63430008110033","opcodes":"PUSH1 0x80 PUSH1 0x40 MSTORE CALLVALUE DUP1 ISZERO PUSH2 0x10 JUMPI PUSH1 0x0 DUP1 REVERT JUMPDEST POP PUSH2 0x1D65 DUP1 PUSH2 0x20 PUSH1 0x0 CODECOPY PUSH1 0x0 RETURN INVALID PUSH1 0x80 PUSH1 0x40 MSTORE CALLVALUE DUP1 ISZERO PUSH2 0x10 JUMPI PUSH1 0x0 DUP1 REVERT JUMPDEST POP PUSH1 0x4 CALLDATASIZE LT PUSH2 0xB4 JUMPI PUSH1 0x0 CALLDATALOAD PUSH1 0xE0 SHR DUP1 PUSH4 0xAAA2835D GT PUSH2 0x71 JUMPI DUP1 PUSH4 0xAAA2835D EQ PUSH2 0x15D JUMPI DUP1 PUSH4 0xB799BB0F EQ PUSH2 0x170 JUMPI DUP1 PUSH4 0xC04C5947 EQ PUSH2 0x190 JUMPI DUP1 PUSH4 0xF4B7095B EQ PUSH2 0x1A5 JUMPI DUP1 PUSH4 0xF62D1888 EQ PUSH2 0x1BA JUMPI DUP1 PUSH4 0xFE83BECE EQ PUSH2 0x1CD JUMPI PUSH1 0x0 DUP1 REVERT JUMPDEST DUP1 PUSH4 0x6FDDE03 EQ PUSH2 0xB9 JUMPI DUP1 PUSH4 0x248A55A1 EQ PUSH2 0xD7 JUMPI DUP1 PUSH4 0x73ABCA82 EQ PUSH2 0xEC JUMPI DUP1 PUSH4 0x8DA5CB5B EQ PUSH2 0xFF JUMPI DUP1 PUSH4 0xA2F77BCC EQ PUSH2 0x12A JUMPI DUP1 PUSH4 0xA5C86B77 EQ PUSH2 0x14A JUMPI JUMPDEST PUSH1 0x0 DUP1 REVERT JUMPDEST PUSH2 0xC1 PUSH2 0x1ED JUMP JUMPDEST PUSH1 0x40 MLOAD PUSH2 0xCE SWAP2 SWAP1 PUSH2 0x1622 JUMP JUMPDEST PUSH1 0x40 MLOAD DUP1 SWAP2 SUB SWAP1 RETURN JUMPDEST PUSH2 0xEA PUSH2 0xE5 CALLDATASIZE PUSH1 0x4 PUSH2 0x163C JUMP JUMPDEST PUSH2 0x27B JUMP JUMPDEST STOP JUMPDEST PUSH2 0xEA PUSH2 0xFA CALLDATASIZE PUSH1 0x4 PUSH2 0x170E JUMP JUMPDEST PUSH2 0x34C JUMP JUMPDEST PUSH1 0x2 SLOAD PUSH2 0x112 SWAP1 PUSH1 0x1 PUSH1 0x1 PUSH1 0xA0 SHL SUB AND DUP2 JUMP JUMPDEST PUSH1 0x40 MLOAD PUSH1 0x1 PUSH1 0x1 PUSH1 0xA0 SHL SUB SWAP1 SWAP2 AND DUP2 MSTORE PUSH1 0x20 ADD PUSH2 0xCE JUMP JUMPDEST PUSH2 0x13D PUSH2 0x138 CALLDATASIZE PUSH1 0x4 PUSH2 0x163C JUMP JUMPDEST PUSH2 0x5A9 JUMP JUMPDEST PUSH1 0x40 MLOAD PUSH2 0xCE SWAP2 SWAP1 PUSH2 0x1835 JUMP JUMPDEST PUSH2 0xEA PUSH2 0x158 CALLDATASIZE PUSH1 0x4 PUSH2 0x1848 JUMP JUMPDEST PUSH2 0x738 JUMP JUMPDEST PUSH2 0xEA PUSH2 0x16B CALLDATASIZE PUSH1 0x4 PUSH2 0x18B5 JUMP JUMPDEST PUSH2 0x872 JUMP JUMPDEST PUSH2 0x183 PUSH2 0x17E CALLDATASIZE PUSH1 0x4 PUSH2 0x18F1 JUMP JUMPDEST PUSH2 0xA6B JUMP JUMPDEST PUSH1 0x40 MLOAD PUSH2 0xCE SWAP2 SWAP1 PUSH2 0x191A JUMP JUMPDEST PUSH2 0x198 PUSH2 0xBD4 JUMP JUMPDEST PUSH1 0x40 MLOAD PUSH2 0xCE SWAP2 SWAP1 PUSH2 0x1985 JUMP JUMPDEST PUSH2 0x1AD PUSH2 0xE01 JUMP JUMPDEST PUSH1 0x40 MLOAD PUSH2 0xCE SWAP2 SWAP1 PUSH2 0x19E7 JUMP JUMPDEST PUSH2 0xEA PUSH2 0x1C8 CALLDATASIZE PUSH1 0x4 PUSH2 0x1A68 JUMP JUMPDEST PUSH2 0xEF4 JUMP JUMPDEST PUSH2 0x1E0 PUSH2 0x1DB CALLDATASIZE PUSH1 0x4 PUSH2 0x163C JUMP JUMPDEST PUSH2 0x101D JUMP JUMPDEST PUSH1 0x40 MLOAD PUSH2 0xCE SWAP2 SWAP1 PUSH2 0x1AA5 JUMP JUMPDEST PUSH1 0x1 DUP1 SLOAD PUSH2 0x1FA SWAP1 PUSH2 0x1AD0 JUMP JUMPDEST DUP1 PUSH1 0x1F ADD PUSH1 0x20 DUP1 SWAP2 DIV MUL PUSH1 0x20 ADD PUSH1 0x40 MLOAD SWAP1 DUP2 ADD PUSH1 0x40 MSTORE DUP1 SWAP3 SWAP2 SWAP1 DUP2 DUP2 MSTORE PUSH1 0x20 ADD DUP3 DUP1 SLOAD PUSH2 0x226 SWAP1 PUSH2 0x1AD0 JUMP JUMPDEST DUP1 ISZERO PUSH2 0x273 JUMPI DUP1 PUSH1 0x1F LT PUSH2 0x248 JUMPI PUSH2 0x100 DUP1 DUP4 SLOAD DIV MUL DUP4 MSTORE SWAP2 PUSH1 0x20 ADD SWAP2 PUSH2 0x273 JUMP JUMPDEST DUP3 ADD SWAP2 SWAP1 PUSH1 0x0 MSTORE PUSH1 0x20 PUSH1 0x0 KECCAK256 SWAP1 JUMPDEST DUP2 SLOAD DUP2 MSTORE SWAP1 PUSH1 0x1 ADD SWAP1 PUSH1 0x20 ADD DUP1 DUP4 GT PUSH2 0x256 JUMPI DUP3 SWAP1 SUB PUSH1 0x1F AND DUP3 ADD SWAP2 JUMPDEST POP POP POP POP POP DUP2 JUMP JUMPDEST PUSH1 0x2 SLOAD PUSH1 0x1 PUSH1 0x1 PUSH1 0xA0 SHL SUB AND CALLER EQ PUSH2 0x2AE JUMPI PUSH1 0x40 MLOAD PUSH3 0x461BCD PUSH1 0xE5 SHL DUP2 MSTORE PUSH1 0x4 ADD PUSH2 0x2A5 SWAP1 PUSH2 0x1B04 JUMP JUMPDEST PUSH1 0x40 MLOAD DUP1 SWAP2 SUB SWAP1 REVERT JUMPDEST PUSH1 0x0 DUP2 DUP2 MSTORE PUSH1 0x3 PUSH1 0x20 MSTORE PUSH1 0x40 DUP2 KECCAK256 DUP1 SLOAD DUP4 SWAP3 SUB PUSH2 0x2DD JUMPI PUSH1 0x40 MLOAD PUSH3 0x461BCD PUSH1 0xE5 SHL DUP2 MSTORE PUSH1 0x4 ADD PUSH2 0x2A5 SWAP1 PUSH2 0x1B33 JUMP JUMPDEST PUSH1 0x0 DUP4 DUP2 MSTORE PUSH1 0x3 PUSH1 0x20 MSTORE PUSH1 0x40 DUP2 KECCAK256 DUP2 DUP2 SSTORE SWAP1 PUSH2 0x2FC PUSH1 0x1 DUP4 ADD DUP3 PUSH2 0x1537 JUMP JUMPDEST PUSH2 0x30A PUSH1 0x2 DUP4 ADD PUSH1 0x0 PUSH2 0x1537 JUMP JUMPDEST POP PUSH1 0x0 PUSH1 0x3 DUP3 ADD SSTORE PUSH1 0x4 SWAP1 DUP2 ADD DUP1 SLOAD PUSH3 0xFFFFFF NOT AND SWAP1 SSTORE PUSH2 0x32C PUSH1 0x1 DUP6 PUSH2 0x1B77 JUMP JUMPDEST DUP2 SLOAD DUP2 LT PUSH2 0x33C JUMPI PUSH2 0x33C PUSH2 0x1B8A JUMP JUMPDEST PUSH1 0x0 SWAP2 DUP3 MSTORE PUSH1 0x20 DUP3 KECCAK256 ADD SSTORE POP POP POP JUMP JUMPDEST PUSH1 0x2 SLOAD PUSH1 0x1 PUSH1 0x1 PUSH1 0xA0 SHL SUB AND CALLER EQ PUSH2 0x376 JUMPI PUSH1 0x40 MLOAD PUSH3 0x461BCD PUSH1 0xE5 SHL DUP2 MSTORE PUSH1 0x4 ADD PUSH2 0x2A5 SWAP1 PUSH2 0x1B04 JUMP JUMPDEST PUSH1 0x0 DUP8 DUP2 MSTORE PUSH1 0x3 PUSH1 0x20 MSTORE PUSH1 0x40 DUP2 KECCAK256 DUP1 SLOAD DUP10 SWAP3 SUB PUSH2 0x3A5 JUMPI PUSH1 0x40 MLOAD PUSH3 0x461BCD PUSH1 0xE5 SHL DUP2 MSTORE PUSH1 0x4 ADD PUSH2 0x2A5 SWAP1 PUSH2 0x1B33 JUMP JUMPDEST PUSH1 0x0 DUP10 DUP2 MSTORE PUSH1 0x3 PUSH1 0x20 MSTORE PUSH1 0x40 SWAP1 KECCAK256 PUSH1 0x1 DUP2 ADD DUP1 SLOAD PUSH2 0x44B SWAP2 SWAP1 PUSH2 0x3C7 SWAP1 PUSH2 0x1AD0 JUMP JUMPDEST DUP1 PUSH1 0x1F ADD PUSH1 0x20 DUP1 SWAP2 DIV MUL PUSH1 0x20 ADD PUSH1 0x40 MLOAD SWAP1 DUP2 ADD PUSH1 0x40 MSTORE DUP1 SWAP3 SWAP2 SWAP1 DUP2 DUP2 MSTORE PUSH1 0x20 ADD DUP3 DUP1 SLOAD PUSH2 0x3F3 SWAP1 PUSH2 0x1AD0 JUMP JUMPDEST DUP1 ISZERO PUSH2 0x440 JUMPI DUP1 PUSH1 0x1F LT PUSH2 0x415 JUMPI PUSH2 0x100 DUP1 DUP4 SLOAD DIV MUL DUP4 MSTORE SWAP2 PUSH1 0x20 ADD SWAP2 PUSH2 0x440 JUMP JUMPDEST DUP3 ADD SWAP2 SWAP1 PUSH1 0x0 MSTORE PUSH1 0x20 PUSH1 0x0 KECCAK256 SWAP1 JUMPDEST DUP2 SLOAD DUP2 MSTORE SWAP1 PUSH1 0x1 ADD SWAP1 PUSH1 0x20 ADD DUP1 DUP4 GT PUSH2 0x423 JUMPI DUP3 SWAP1 SUB PUSH1 0x1F AND DUP3 ADD SWAP2 JUMPDEST POP POP POP POP POP DUP11 PUSH2 0x10B8 JUMP JUMPDEST PUSH2 0x45F JUMPI PUSH1 0x1 DUP2 ADD PUSH2 0x45D DUP11 DUP3 PUSH2 0x1BEF JUMP JUMPDEST POP JUMPDEST PUSH2 0x4F5 DUP2 PUSH1 0x2 ADD DUP1 SLOAD PUSH2 0x471 SWAP1 PUSH2 0x1AD0 JUMP JUMPDEST DUP1 PUSH1 0x1F ADD PUSH1 0x20 DUP1 SWAP2 DIV MUL PUSH1 0x20 ADD PUSH1 0x40 MLOAD SWAP1 DUP2 ADD PUSH1 0x40 MSTORE DUP1 SWAP3 SWAP2 SWAP1 DUP2 DUP2 MSTORE PUSH1 0x20 ADD DUP3 DUP1 SLOAD PUSH2 0x49D SWAP1 PUSH2 0x1AD0 JUMP JUMPDEST DUP1 ISZERO PUSH2 0x4EA JUMPI DUP1 PUSH1 0x1F LT PUSH2 0x4BF JUMPI PUSH2 0x100 DUP1 DUP4 SLOAD DIV MUL DUP4 MSTORE SWAP2 PUSH1 0x20 ADD SWAP2 PUSH2 0x4EA JUMP JUMPDEST DUP3 ADD SWAP2 SWAP1 PUSH1 0x0 MSTORE PUSH1 0x20 PUSH1 0x0 KECCAK256 SWAP1 JUMPDEST DUP2 SLOAD DUP2 MSTORE SWAP1 PUSH1 0x1 ADD SWAP1 PUSH1 0x20 ADD DUP1 DUP4 GT PUSH2 0x4CD JUMPI DUP3 SWAP1 SUB PUSH1 0x1F AND DUP3 ADD SWAP2 JUMPDEST POP POP POP POP POP DUP10 PUSH2 0x10B8 JUMP JUMPDEST PUSH2 0x509 JUMPI PUSH1 0x2 DUP2 ADD PUSH2 0x507 DUP10 DUP3 PUSH2 0x1BEF JUMP JUMPDEST POP JUMPDEST DUP7 DUP2 PUSH1 0x3 ADD SLOAD EQ PUSH2 0x51C JUMPI PUSH1 0x3 DUP2 ADD DUP8 SWAP1 SSTORE JUMPDEST PUSH1 0x4 DUP2 ADD SLOAD PUSH1 0xFF DUP8 DUP2 AND SWAP2 AND EQ PUSH2 0x53F JUMPI PUSH1 0x4 DUP2 ADD DUP1 SLOAD PUSH1 0xFF NOT AND PUSH1 0xFF DUP9 AND OR SWAP1 SSTORE JUMPDEST PUSH1 0x4 DUP2 ADD SLOAD PUSH1 0xFF DUP7 DUP2 AND PUSH2 0x100 SWAP1 SWAP3 DIV AND EQ PUSH2 0x56C JUMPI PUSH1 0x4 DUP2 ADD DUP1 SLOAD PUSH2 0xFF00 NOT AND PUSH2 0x100 PUSH1 0xFF DUP9 AND MUL OR SWAP1 SSTORE JUMPDEST PUSH1 0x4 DUP2 ADD SLOAD PUSH1 0xFF PUSH3 0x10000 SWAP1 SWAP2 DIV AND ISZERO ISZERO DUP5 ISZERO ISZERO EQ PUSH2 0x59D JUMPI PUSH1 0x4 DUP2 ADD DUP1 SLOAD PUSH3 0xFF0000 NOT AND PUSH3 0x10000 DUP7 ISZERO ISZERO MUL OR SWAP1 SSTORE JUMPDEST POP POP POP POP POP POP POP POP POP POP JUMP JUMPDEST PUSH2 0x5B1 PUSH2 0x1574 JUMP JUMPDEST PUSH1 0x3 PUSH1 0x0 DUP4 DUP2 MSTORE PUSH1 0x20 ADD SWAP1 DUP2 MSTORE PUSH1 0x20 ADD PUSH1 0x0 KECCAK256 PUSH1 0x40 MLOAD DUP1 PUSH1 0xE0 ADD PUSH1 0x40 MSTORE SWAP1 DUP2 PUSH1 0x0 DUP3 ADD SLOAD DUP2 MSTORE PUSH1 0x20 ADD PUSH1 0x1 DUP3 ADD DUP1 SLOAD PUSH2 0x5E9 SWAP1 PUSH2 0x1AD0 JUMP JUMPDEST DUP1 PUSH1 0x1F ADD PUSH1 0x20 DUP1 SWAP2 DIV MUL PUSH1 0x20 ADD PUSH1 0x40 MLOAD SWAP1 DUP2 ADD PUSH1 0x40 MSTORE DUP1 SWAP3 SWAP2 SWAP1 DUP2 DUP2 MSTORE PUSH1 0x20 ADD DUP3 DUP1 SLOAD PUSH2 0x615 SWAP1 PUSH2 0x1AD0 JUMP JUMPDEST DUP1 ISZERO PUSH2 0x662 JUMPI DUP1 PUSH1 0x1F LT PUSH2 0x637 JUMPI PUSH2 0x100 DUP1 DUP4 SLOAD DIV MUL DUP4 MSTORE SWAP2 PUSH1 0x20 ADD SWAP2 PUSH2 0x662 JUMP JUMPDEST DUP3 ADD SWAP2 SWAP1 PUSH1 0x0 MSTORE PUSH1 0x20 PUSH1 0x0 KECCAK256 SWAP1 JUMPDEST DUP2 SLOAD DUP2 MSTORE SWAP1 PUSH1 0x1 ADD SWAP1 PUSH1 0x20 ADD DUP1 DUP4 GT PUSH2 0x645 JUMPI DUP3 SWAP1 SUB PUSH1 0x1F AND DUP3 ADD SWAP2 JUMPDEST POP POP POP POP POP DUP2 MSTORE PUSH1 0x20 ADD PUSH1 0x2 DUP3 ADD DUP1 SLOAD PUSH2 0x67B SWAP1 PUSH2 0x1AD0 JUMP JUMPDEST DUP1 PUSH1 0x1F ADD PUSH1 0x20 DUP1 SWAP2 DIV MUL PUSH1 0x20 ADD PUSH1 0x40 MLOAD SWAP1 DUP2 ADD PUSH1 0x40 MSTORE DUP1 SWAP3 SWAP2 SWAP1 DUP2 DUP2 MSTORE PUSH1 0x20 ADD DUP3 DUP1 SLOAD PUSH2 0x6A7 SWAP1 PUSH2 0x1AD0 JUMP JUMPDEST DUP1 ISZERO PUSH2 0x6F4 JUMPI DUP1 PUSH1 0x1F LT PUSH2 0x6C9 JUMPI PUSH2 0x100 DUP1 DUP4 SLOAD DIV MUL DUP4 MSTORE SWAP2 PUSH1 0x20 ADD SWAP2 PUSH2 0x6F4 JUMP JUMPDEST DUP3 ADD SWAP2 SWAP1 PUSH1 0x0 MSTORE PUSH1 0x20 PUSH1 0x0 KECCAK256 SWAP1 JUMPDEST DUP2 SLOAD DUP2 MSTORE SWAP1 PUSH1 0x1 ADD SWAP1 PUSH1 0x20 ADD DUP1 DUP4 GT PUSH2 0x6D7 JUMPI DUP3 SWAP1 SUB PUSH1 0x1F AND DUP3 ADD SWAP2 JUMPDEST POP POP POP SWAP2 DUP4 MSTORE POP POP PUSH1 0x3 DUP3 ADD SLOAD PUSH1 0x20 DUP3 ADD MSTORE PUSH1 0x4 SWAP1 SWAP2 ADD SLOAD PUSH1 0xFF DUP1 DUP3 AND PUSH1 0x40 DUP5 ADD MSTORE PUSH2 0x100 DUP3 DIV DUP2 AND PUSH1 0x60 DUP5 ADD MSTORE PUSH3 0x10000 SWAP1 SWAP2 DIV AND ISZERO ISZERO PUSH1 0x80 SWAP1 SWAP2 ADD MSTORE SWAP3 SWAP2 POP POP JUMP JUMPDEST PUSH1 0x2 SLOAD PUSH1 0x1 PUSH1 0x1 PUSH1 0xA0 SHL SUB AND CALLER EQ PUSH2 0x762 JUMPI PUSH1 0x40 MLOAD PUSH3 0x461BCD PUSH1 0xE5 SHL DUP2 MSTORE PUSH1 0x4 ADD PUSH2 0x2A5 SWAP1 PUSH2 0x1B04 JUMP JUMPDEST PUSH1 0x0 PUSH1 0x5 PUSH1 0x0 DUP2 SLOAD PUSH2 0x773 SWAP1 PUSH2 0x1CAF JUMP JUMPDEST SWAP2 DUP3 SWAP1 SSTORE POP PUSH1 0x40 DUP1 MLOAD PUSH1 0xE0 DUP2 ADD DUP3 MSTORE DUP3 DUP2 MSTORE PUSH1 0x20 DUP1 DUP3 ADD DUP9 DUP2 MSTORE DUP3 DUP5 ADD DUP9 SWAP1 MSTORE PUSH1 0x60 DUP4 ADD DUP8 SWAP1 MSTORE PUSH1 0x0 PUSH1 0x80 DUP5 ADD DUP2 SWAP1 MSTORE PUSH1 0xA0 DUP5 ADD DUP2 SWAP1 MSTORE PUSH1 0xC0 DUP5 ADD DUP2 SWAP1 MSTORE DUP6 DUP2 MSTORE PUSH1 0x3 SWAP1 SWAP3 MSTORE SWAP3 SWAP1 KECCAK256 DUP2 MLOAD DUP2 SSTORE SWAP2 MLOAD SWAP3 SWAP4 POP SWAP2 PUSH1 0x1 DUP3 ADD SWAP1 PUSH2 0x7D5 SWAP1 DUP3 PUSH2 0x1BEF JUMP JUMPDEST POP PUSH1 0x40 DUP3 ADD MLOAD PUSH1 0x2 DUP3 ADD SWAP1 PUSH2 0x7EA SWAP1 DUP3 PUSH2 0x1BEF JUMP JUMPDEST POP PUSH1 0x60 DUP3 ADD MLOAD PUSH1 0x3 DUP3 ADD SSTORE PUSH1 0x80 DUP3 ADD MLOAD PUSH1 0x4 SWAP2 DUP3 ADD DUP1 SLOAD PUSH1 0xA0 DUP6 ADD MLOAD PUSH1 0xC0 SWAP1 SWAP6 ADD MLOAD ISZERO ISZERO PUSH3 0x10000 MUL PUSH3 0xFF0000 NOT PUSH1 0xFF SWAP7 DUP8 AND PUSH2 0x100 MUL PUSH2 0xFFFF NOT SWAP1 SWAP4 AND SWAP7 SWAP1 SWAP5 AND SWAP6 SWAP1 SWAP6 OR OR SWAP2 SWAP1 SWAP2 AND SWAP3 SWAP1 SWAP3 OR SWAP1 SWAP2 SSTORE DUP1 SLOAD PUSH1 0x1 DUP2 ADD DUP3 SSTORE PUSH1 0x0 SWAP2 SWAP1 SWAP2 MSTORE PUSH32 0x8A35ACFBC15FF81A39AE7D344FD709F28E8600B4AA8C65C6B64BFE7FE36BD19B ADD SSTORE POP POP POP JUMP JUMPDEST PUSH1 0x0 DUP4 DUP2 MSTORE PUSH1 0x3 PUSH1 0x20 MSTORE PUSH1 0x40 DUP2 KECCAK256 DUP1 SLOAD DUP6 SWAP3 SUB PUSH2 0x8A1 JUMPI PUSH1 0x40 MLOAD PUSH3 0x461BCD PUSH1 0xE5 SHL DUP2 MSTORE PUSH1 0x4 ADD PUSH2 0x2A5 SWAP1 PUSH2 0x1B33 JUMP JUMPDEST CALLER PUSH1 0x0 SWAP1 DUP2 MSTORE PUSH1 0x6 PUSH1 0x20 SWAP1 DUP2 MSTORE PUSH1 0x40 DUP1 DUP4 KECCAK256 DUP9 DUP5 MSTORE DUP3 MSTORE DUP1 DUP4 KECCAK256 PUSH1 0x3 SWAP3 DUP4 SWAP1 MSTORE SWAP3 KECCAK256 ADD SLOAD TIMESTAMP SWAP1 DUP2 GT ISZERO PUSH2 0x916 JUMPI PUSH1 0x40 MLOAD PUSH3 0x461BCD PUSH1 0xE5 SHL DUP2 MSTORE PUSH1 0x20 PUSH1 0x4 DUP3 ADD MSTORE PUSH1 0x19 PUSH1 0x24 DUP3 ADD MSTORE PUSH32 0x47616D652068617320616C726561647920737461727465642100000000000000 PUSH1 0x44 DUP3 ADD MSTORE PUSH1 0x64 ADD PUSH2 0x2A5 JUMP JUMPDEST CALLER PUSH1 0x0 SWAP1 DUP2 MSTORE PUSH1 0x8 PUSH1 0x20 MSTORE PUSH1 0x40 SWAP1 KECCAK256 SLOAD PUSH1 0xFF AND PUSH2 0x98A JUMPI CALLER PUSH1 0x0 DUP2 DUP2 MSTORE PUSH1 0x8 PUSH1 0x20 MSTORE PUSH1 0x40 DUP2 KECCAK256 DUP1 SLOAD PUSH1 0xFF NOT AND PUSH1 0x1 SWAP1 DUP2 OR SWAP1 SWAP2 SSTORE PUSH1 0x9 DUP1 SLOAD SWAP2 DUP3 ADD DUP2 SSTORE SWAP1 SWAP2 MSTORE PUSH32 0x6E1540171B6C0C960B71A7020D9F60077F6AF931A8BBF590DA0223DACF75C7AF ADD DUP1 SLOAD PUSH1 0x1 PUSH1 0x1 PUSH1 0xA0 SHL SUB NOT AND SWAP1 SWAP2 OR SWAP1 SSTORE JUMPDEST DUP2 SLOAD PUSH1 0x0 SUB PUSH2 0xA12 JUMPI PUSH1 0x40 DUP1 MLOAD PUSH1 0x60 DUP2 ADD DUP3 MSTORE DUP9 DUP2 MSTORE PUSH1 0xFF DUP1 DUP10 AND PUSH1 0x20 DUP1 DUP5 ADD SWAP2 DUP3 MSTORE DUP10 DUP4 AND DUP5 DUP7 ADD SWAP1 DUP2 MSTORE CALLER PUSH1 0x0 DUP2 DUP2 MSTORE PUSH1 0x6 DUP5 MSTORE DUP8 DUP2 KECCAK256 DUP16 DUP3 MSTORE DUP5 MSTORE DUP8 DUP2 KECCAK256 SWAP7 MLOAD DUP8 SSTORE SWAP4 MLOAD PUSH1 0x1 SWAP7 DUP8 ADD DUP1 SLOAD SWAP4 MLOAD DUP8 AND PUSH2 0x100 MUL PUSH2 0xFFFF NOT SWAP1 SWAP5 AND SWAP2 SWAP1 SWAP7 AND OR SWAP2 SWAP1 SWAP2 OR SWAP1 SWAP4 SSTORE SWAP2 DUP2 MSTORE PUSH1 0x7 DUP3 MSTORE SWAP3 DUP4 KECCAK256 DUP1 SLOAD SWAP3 DUP4 ADD DUP2 SSTORE DUP4 MSTORE SWAP1 SWAP2 KECCAK256 ADD DUP8 SWAP1 SSTORE PUSH2 0xA62 JUMP JUMPDEST PUSH1 0x1 DUP3 ADD SLOAD PUSH1 0xFF DUP8 DUP2 AND SWAP2 AND EQ PUSH2 0xA35 JUMPI PUSH1 0x1 DUP3 ADD DUP1 SLOAD PUSH1 0xFF NOT AND PUSH1 0xFF DUP9 AND OR SWAP1 SSTORE JUMPDEST PUSH1 0x1 DUP3 ADD SLOAD PUSH1 0xFF DUP7 DUP2 AND PUSH2 0x100 SWAP1 SWAP3 DIV AND EQ PUSH2 0xA62 JUMPI PUSH1 0x1 DUP3 ADD DUP1 SLOAD PUSH2 0xFF00 NOT AND PUSH2 0x100 PUSH1 0xFF DUP9 AND MUL OR SWAP1 SSTORE JUMPDEST POP POP POP POP POP POP POP JUMP JUMPDEST PUSH1 0x1 PUSH1 0x1 PUSH1 0xA0 SHL SUB DUP2 AND PUSH1 0x0 SWAP1 DUP2 MSTORE PUSH1 0x7 PUSH1 0x20 MSTORE PUSH1 0x40 DUP2 KECCAK256 SLOAD PUSH1 0x60 SWAP2 SWAP1 PUSH8 0xFFFFFFFFFFFFFFFF DUP2 GT ISZERO PUSH2 0xAA0 JUMPI PUSH2 0xAA0 PUSH2 0x1655 JUMP JUMPDEST PUSH1 0x40 MLOAD SWAP1 DUP1 DUP3 MSTORE DUP1 PUSH1 0x20 MUL PUSH1 0x20 ADD DUP3 ADD PUSH1 0x40 MSTORE DUP1 ISZERO PUSH2 0xAEB JUMPI DUP2 PUSH1 0x20 ADD JUMPDEST PUSH1 0x40 DUP1 MLOAD PUSH1 0x60 DUP2 ADD DUP3 MSTORE PUSH1 0x0 DUP1 DUP3 MSTORE PUSH1 0x20 DUP1 DUP4 ADD DUP3 SWAP1 MSTORE SWAP3 DUP3 ADD MSTORE DUP3 MSTORE PUSH1 0x0 NOT SWAP1 SWAP3 ADD SWAP2 ADD DUP2 PUSH2 0xABE JUMPI SWAP1 POP JUMPDEST POP SWAP1 POP PUSH1 0x0 JUMPDEST PUSH1 0x1 PUSH1 0x1 PUSH1 0xA0 SHL SUB DUP5 AND PUSH1 0x0 SWAP1 DUP2 MSTORE PUSH1 0x7 PUSH1 0x20 MSTORE PUSH1 0x40 SWAP1 KECCAK256 SLOAD DUP2 LT ISZERO PUSH2 0xBCD JUMPI PUSH1 0x1 PUSH1 0x1 PUSH1 0xA0 SHL SUB DUP5 AND PUSH1 0x0 SWAP1 DUP2 MSTORE PUSH1 0x6 PUSH1 0x20 SWAP1 DUP2 MSTORE PUSH1 0x40 DUP1 DUP4 KECCAK256 PUSH1 0x7 SWAP1 SWAP3 MSTORE DUP3 KECCAK256 DUP1 SLOAD DUP4 SWAP2 SWAP1 DUP6 SWAP1 DUP2 LT PUSH2 0xB48 JUMPI PUSH2 0xB48 PUSH2 0x1B8A JUMP JUMPDEST SWAP1 PUSH1 0x0 MSTORE PUSH1 0x20 PUSH1 0x0 KECCAK256 ADD SLOAD DUP2 MSTORE PUSH1 0x20 ADD SWAP1 DUP2 MSTORE PUSH1 0x20 ADD PUSH1 0x0 KECCAK256 SWAP1 POP DUP1 PUSH1 0x0 ADD SLOAD PUSH1 0x0 EQ PUSH2 0xBBA JUMPI PUSH1 0x40 DUP1 MLOAD PUSH1 0x60 DUP2 ADD DUP3 MSTORE DUP3 SLOAD DUP2 MSTORE PUSH1 0x1 DUP4 ADD SLOAD PUSH1 0xFF DUP1 DUP3 AND PUSH1 0x20 DUP5 ADD MSTORE PUSH2 0x100 SWAP1 SWAP2 DIV AND SWAP2 DUP2 ADD SWAP2 SWAP1 SWAP2 MSTORE DUP4 MLOAD DUP5 SWAP1 DUP5 SWAP1 DUP2 LT PUSH2 0xBAE JUMPI PUSH2 0xBAE PUSH2 0x1B8A JUMP JUMPDEST PUSH1 0x20 MUL PUSH1 0x20 ADD ADD DUP2 SWAP1 MSTORE POP JUMPDEST POP DUP1 PUSH2 0xBC5 DUP2 PUSH2 0x1CAF JUMP JUMPDEST SWAP2 POP POP PUSH2 0xAF1 JUMP JUMPDEST POP SWAP3 SWAP2 POP POP JUMP JUMPDEST PUSH1 0x4 SLOAD PUSH1 0x60 SWAP1 PUSH1 0x0 SWAP1 PUSH8 0xFFFFFFFFFFFFFFFF DUP2 GT ISZERO PUSH2 0xBF5 JUMPI PUSH2 0xBF5 PUSH2 0x1655 JUMP JUMPDEST PUSH1 0x40 MLOAD SWAP1 DUP1 DUP3 MSTORE DUP1 PUSH1 0x20 MUL PUSH1 0x20 ADD DUP3 ADD PUSH1 0x40 MSTORE DUP1 ISZERO PUSH2 0xC2E JUMPI DUP2 PUSH1 0x20 ADD JUMPDEST PUSH2 0xC1B PUSH2 0x1574 JUMP JUMPDEST DUP2 MSTORE PUSH1 0x20 ADD SWAP1 PUSH1 0x1 SWAP1 SUB SWAP1 DUP2 PUSH2 0xC13 JUMPI SWAP1 POP JUMPDEST POP SWAP1 POP PUSH1 0x0 JUMPDEST PUSH1 0x4 SLOAD DUP2 LT ISZERO PUSH2 0xDFB JUMPI PUSH1 0x3 PUSH1 0x0 PUSH2 0xC4D DUP4 PUSH1 0x1 PUSH2 0x1CC8 JUMP JUMPDEST DUP2 MSTORE PUSH1 0x20 ADD SWAP1 DUP2 MSTORE PUSH1 0x20 ADD PUSH1 0x0 KECCAK256 PUSH1 0x40 MLOAD DUP1 PUSH1 0xE0 ADD PUSH1 0x40 MSTORE SWAP1 DUP2 PUSH1 0x0 DUP3 ADD SLOAD DUP2 MSTORE PUSH1 0x20 ADD PUSH1 0x1 DUP3 ADD DUP1 SLOAD PUSH2 0xC80 SWAP1 PUSH2 0x1AD0 JUMP JUMPDEST DUP1 PUSH1 0x1F ADD PUSH1 0x20 DUP1 SWAP2 DIV MUL PUSH1 0x20 ADD PUSH1 0x40 MLOAD SWAP1 DUP2 ADD PUSH1 0x40 MSTORE DUP1 SWAP3 SWAP2 SWAP1 DUP2 DUP2 MSTORE PUSH1 0x20 ADD DUP3 DUP1 SLOAD PUSH2 0xCAC SWAP1 PUSH2 0x1AD0 JUMP JUMPDEST DUP1 ISZERO PUSH2 0xCF9 JUMPI DUP1 PUSH1 0x1F LT PUSH2 0xCCE JUMPI PUSH2 0x100 DUP1 DUP4 SLOAD DIV MUL DUP4 MSTORE SWAP2 PUSH1 0x20 ADD SWAP2 PUSH2 0xCF9 JUMP JUMPDEST DUP3 ADD SWAP2 SWAP1 PUSH1 0x0 MSTORE PUSH1 0x20 PUSH1 0x0 KECCAK256 SWAP1 JUMPDEST DUP2 SLOAD DUP2 MSTORE SWAP1 PUSH1 0x1 ADD SWAP1 PUSH1 0x20 ADD DUP1 DUP4 GT PUSH2 0xCDC JUMPI DUP3 SWAP1 SUB PUSH1 0x1F AND DUP3 ADD SWAP2 JUMPDEST POP POP POP POP POP DUP2 MSTORE PUSH1 0x20 ADD PUSH1 0x2 DUP3 ADD DUP1 SLOAD PUSH2 0xD12 SWAP1 PUSH2 0x1AD0 JUMP JUMPDEST DUP1 PUSH1 0x1F ADD PUSH1 0x20 DUP1 SWAP2 DIV MUL PUSH1 0x20 ADD PUSH1 0x40 MLOAD SWAP1 DUP2 ADD PUSH1 0x40 MSTORE DUP1 SWAP3 SWAP2 SWAP1 DUP2 DUP2 MSTORE PUSH1 0x20 ADD DUP3 DUP1 SLOAD PUSH2 0xD3E SWAP1 PUSH2 0x1AD0 JUMP JUMPDEST DUP1 ISZERO PUSH2 0xD8B JUMPI DUP1 PUSH1 0x1F LT PUSH2 0xD60 JUMPI PUSH2 0x100 DUP1 DUP4 SLOAD DIV MUL DUP4 MSTORE SWAP2 PUSH1 0x20 ADD SWAP2 PUSH2 0xD8B JUMP JUMPDEST DUP3 ADD SWAP2 SWAP1 PUSH1 0x0 MSTORE PUSH1 0x20 PUSH1 0x0 KECCAK256 SWAP1 JUMPDEST DUP2 SLOAD DUP2 MSTORE SWAP1 PUSH1 0x1 ADD SWAP1 PUSH1 0x20 ADD DUP1 DUP4 GT PUSH2 0xD6E JUMPI DUP3 SWAP1 SUB PUSH1 0x1F AND DUP3 ADD SWAP2 JUMPDEST POP POP POP SWAP2 DUP4 MSTORE POP POP PUSH1 0x3 DUP3 ADD SLOAD PUSH1 0x20 DUP3 ADD MSTORE PUSH1 0x4 SWAP1 SWAP2 ADD SLOAD PUSH1 0xFF DUP1 DUP3 AND PUSH1 0x40 DUP5 ADD MSTORE PUSH2 0x100 DUP3 DIV DUP2 AND PUSH1 0x60 DUP5 ADD MSTORE PUSH3 0x10000 SWAP1 SWAP2 DIV AND ISZERO ISZERO PUSH1 0x80 SWAP1 SWAP2 ADD MSTORE DUP3 MLOAD DUP4 SWAP1 DUP4 SWAP1 DUP2 LT PUSH2 0xDDD JUMPI PUSH2 0xDDD PUSH2 0x1B8A JUMP JUMPDEST PUSH1 0x20 MUL PUSH1 0x20 ADD ADD DUP2 SWAP1 MSTORE POP DUP1 DUP1 PUSH2 0xDF3 SWAP1 PUSH2 0x1CAF JUMP JUMPDEST SWAP2 POP POP PUSH2 0xC34 JUMP JUMPDEST POP SWAP2 SWAP1 POP JUMP JUMPDEST PUSH1 0x9 SLOAD PUSH1 0x60 SWAP1 PUSH1 0x0 SWAP1 PUSH8 0xFFFFFFFFFFFFFFFF DUP2 GT ISZERO PUSH2 0xE22 JUMPI PUSH2 0xE22 PUSH2 0x1655 JUMP JUMPDEST PUSH1 0x40 MLOAD SWAP1 DUP1 DUP3 MSTORE DUP1 PUSH1 0x20 MUL PUSH1 0x20 ADD DUP3 ADD PUSH1 0x40 MSTORE DUP1 ISZERO PUSH2 0xE7B JUMPI DUP2 PUSH1 0x20 ADD JUMPDEST PUSH1 0x40 DUP1 MLOAD PUSH1 0xA0 DUP2 ADD DUP3 MSTORE PUSH1 0x0 DUP1 DUP3 MSTORE PUSH1 0x20 DUP1 DUP4 ADD DUP3 SWAP1 MSTORE SWAP3 DUP3 ADD DUP2 SWAP1 MSTORE PUSH1 0x60 DUP3 ADD DUP2 SWAP1 MSTORE PUSH1 0x80 DUP3 ADD MSTORE DUP3 MSTORE PUSH1 0x0 NOT SWAP1 SWAP3 ADD SWAP2 ADD DUP2 PUSH2 0xE40 JUMPI SWAP1 POP JUMPDEST POP SWAP1 POP PUSH1 0x0 JUMPDEST PUSH1 0x9 SLOAD DUP2 LT ISZERO PUSH2 0xDFB JUMPI PUSH1 0x0 PUSH1 0x9 DUP3 DUP2 SLOAD DUP2 LT PUSH2 0xEA0 JUMPI PUSH2 0xEA0 PUSH2 0x1B8A JUMP JUMPDEST PUSH1 0x0 SWAP2 DUP3 MSTORE PUSH1 0x20 DUP3 KECCAK256 ADD SLOAD PUSH1 0x1 PUSH1 0x1 PUSH1 0xA0 SHL SUB AND SWAP2 POP PUSH2 0xEBF DUP3 PUSH2 0x1112 JUMP JUMPDEST SWAP1 POP DUP1 DUP5 DUP5 DUP2 MLOAD DUP2 LT PUSH2 0xED4 JUMPI PUSH2 0xED4 PUSH2 0x1B8A JUMP JUMPDEST PUSH1 0x20 MUL PUSH1 0x20 ADD ADD DUP2 SWAP1 MSTORE POP POP POP DUP1 DUP1 PUSH2 0xEEC SWAP1 PUSH2 0x1CAF JUMP JUMPDEST SWAP2 POP POP PUSH2 0xE81 JUMP JUMPDEST PUSH1 0x0 SLOAD PUSH2 0x100 SWAP1 DIV PUSH1 0xFF AND ISZERO DUP1 DUP1 ISZERO PUSH2 0xF14 JUMPI POP PUSH1 0x0 SLOAD PUSH1 0x1 PUSH1 0xFF SWAP1 SWAP2 AND LT JUMPDEST DUP1 PUSH2 0xF2E JUMPI POP ADDRESS EXTCODESIZE ISZERO DUP1 ISZERO PUSH2 0xF2E JUMPI POP PUSH1 0x0 SLOAD PUSH1 0xFF AND PUSH1 0x1 EQ JUMPDEST PUSH2 0xF91 JUMPI PUSH1 0x40 MLOAD PUSH3 0x461BCD PUSH1 0xE5 SHL DUP2 MSTORE PUSH1 0x20 PUSH1 0x4 DUP3 ADD MSTORE PUSH1 0x2E PUSH1 0x24 DUP3 ADD MSTORE PUSH32 0x496E697469616C697A61626C653A20636F6E747261637420697320616C726561 PUSH1 0x44 DUP3 ADD MSTORE PUSH14 0x191E481A5B9A5D1A585B1A5E9959 PUSH1 0x92 SHL PUSH1 0x64 DUP3 ADD MSTORE PUSH1 0x84 ADD PUSH2 0x2A5 JUMP JUMPDEST PUSH1 0x0 DUP1 SLOAD PUSH1 0xFF NOT AND PUSH1 0x1 OR SWAP1 SSTORE DUP1 ISZERO PUSH2 0xFB4 JUMPI PUSH1 0x0 DUP1 SLOAD PUSH2 0xFF00 NOT AND PUSH2 0x100 OR SWAP1 SSTORE JUMPDEST PUSH1 0x1 PUSH2 0xFC0 DUP4 DUP3 PUSH2 0x1BEF JUMP JUMPDEST POP PUSH1 0x2 DUP1 SLOAD PUSH1 0x1 PUSH1 0x1 PUSH1 0xA0 SHL SUB NOT AND CALLER OR SWAP1 SSTORE DUP1 ISZERO PUSH2 0x1019 JUMPI PUSH1 0x0 DUP1 SLOAD PUSH2 0xFF00 NOT AND SWAP1 SSTORE PUSH1 0x40 MLOAD PUSH1 0x1 DUP2 MSTORE PUSH32 0x7F26B83FF96E1F2B6A682F133852F6798A09C465DA95921460CEFB3847402498 SWAP1 PUSH1 0x20 ADD PUSH1 0x40 MLOAD DUP1 SWAP2 SUB SWAP1 LOG1 JUMPDEST POP POP JUMP JUMPDEST PUSH1 0x40 DUP1 MLOAD PUSH1 0x60 DUP2 ADD DUP3 MSTORE PUSH1 0x0 DUP1 DUP3 MSTORE PUSH1 0x20 DUP3 ADD DUP2 SWAP1 MSTORE SWAP2 DUP2 ADD SWAP2 SWAP1 SWAP2 MSTORE PUSH1 0x0 DUP3 DUP2 MSTORE PUSH1 0x3 PUSH1 0x20 MSTORE PUSH1 0x40 DUP2 KECCAK256 DUP1 SLOAD DUP5 SWAP3 SUB PUSH2 0x1069 JUMPI PUSH1 0x40 MLOAD PUSH3 0x461BCD PUSH1 0xE5 SHL DUP2 MSTORE PUSH1 0x4 ADD PUSH2 0x2A5 SWAP1 PUSH2 0x1B33 JUMP JUMPDEST POP POP CALLER PUSH1 0x0 SWAP1 DUP2 MSTORE PUSH1 0x6 PUSH1 0x20 SWAP1 DUP2 MSTORE PUSH1 0x40 DUP1 DUP4 KECCAK256 SWAP5 DUP4 MSTORE SWAP4 DUP2 MSTORE SWAP1 DUP4 SWAP1 KECCAK256 DUP4 MLOAD PUSH1 0x60 DUP2 ADD DUP6 MSTORE DUP2 SLOAD DUP2 MSTORE PUSH1 0x1 SWAP1 SWAP2 ADD SLOAD PUSH1 0xFF DUP1 DUP3 AND SWAP4 DUP4 ADD SWAP4 SWAP1 SWAP4 MSTORE PUSH2 0x100 SWAP1 DIV SWAP1 SWAP2 AND SWAP3 DUP2 ADD SWAP3 SWAP1 SWAP3 MSTORE POP SWAP1 JUMP JUMPDEST PUSH1 0x0 DUP2 PUSH1 0x40 MLOAD PUSH1 0x20 ADD PUSH2 0x10CB SWAP2 SWAP1 PUSH2 0x1CDB JUMP JUMPDEST PUSH1 0x40 MLOAD PUSH1 0x20 DUP2 DUP4 SUB SUB DUP2 MSTORE SWAP1 PUSH1 0x40 MSTORE DUP1 MLOAD SWAP1 PUSH1 0x20 ADD KECCAK256 DUP4 PUSH1 0x40 MLOAD PUSH1 0x20 ADD PUSH2 0x10F2 SWAP2 SWAP1 PUSH2 0x1CDB JUMP JUMPDEST PUSH1 0x40 MLOAD PUSH1 0x20 DUP2 DUP4 SUB SUB DUP2 MSTORE SWAP1 PUSH1 0x40 MSTORE DUP1 MLOAD SWAP1 PUSH1 0x20 ADD KECCAK256 EQ SWAP1 POP JUMPDEST SWAP3 SWAP2 POP POP JUMP JUMPDEST PUSH1 0x40 DUP1 MLOAD PUSH1 0xA0 DUP2 ADD DUP3 MSTORE PUSH1 0x0 DUP1 DUP3 MSTORE PUSH1 0x20 DUP3 ADD DUP2 SWAP1 MSTORE SWAP2 DUP2 ADD DUP3 SWAP1 MSTORE PUSH1 0x60 DUP2 ADD DUP3 SWAP1 MSTORE PUSH1 0x80 DUP2 ADD SWAP2 SWAP1 SWAP2 MSTORE PUSH1 0x40 DUP1 MLOAD PUSH1 0xA0 DUP2 ADD DUP3 MSTORE PUSH1 0x1 PUSH1 0x1 PUSH1 0xA0 SHL SUB DUP5 AND DUP2 MSTORE PUSH1 0x0 PUSH1 0x20 DUP3 ADD DUP2 SWAP1 MSTORE SWAP2 DUP2 ADD DUP3 SWAP1 MSTORE PUSH1 0x60 DUP2 ADD DUP3 SWAP1 MSTORE PUSH1 0x80 DUP2 ADD DUP3 SWAP1 MSTORE SWAP1 JUMPDEST PUSH1 0x4 SLOAD DUP2 LT ISZERO PUSH2 0xBCD JUMPI PUSH1 0x0 PUSH1 0x4 DUP3 DUP2 SLOAD DUP2 LT PUSH2 0x1191 JUMPI PUSH2 0x1191 PUSH2 0x1B8A JUMP JUMPDEST SWAP1 PUSH1 0x0 MSTORE PUSH1 0x20 PUSH1 0x0 KECCAK256 ADD SLOAD SWAP1 POP PUSH1 0x0 PUSH1 0x3 PUSH1 0x0 DUP4 DUP2 MSTORE PUSH1 0x20 ADD SWAP1 DUP2 MSTORE PUSH1 0x20 ADD PUSH1 0x0 KECCAK256 PUSH1 0x40 MLOAD DUP1 PUSH1 0xE0 ADD PUSH1 0x40 MSTORE SWAP1 DUP2 PUSH1 0x0 DUP3 ADD SLOAD DUP2 MSTORE PUSH1 0x20 ADD PUSH1 0x1 DUP3 ADD DUP1 SLOAD PUSH2 0x11D8 SWAP1 PUSH2 0x1AD0 JUMP JUMPDEST DUP1 PUSH1 0x1F ADD PUSH1 0x20 DUP1 SWAP2 DIV MUL PUSH1 0x20 ADD PUSH1 0x40 MLOAD SWAP1 DUP2 ADD PUSH1 0x40 MSTORE DUP1 SWAP3 SWAP2 SWAP1 DUP2 DUP2 MSTORE PUSH1 0x20 ADD DUP3 DUP1 SLOAD PUSH2 0x1204 SWAP1 PUSH2 0x1AD0 JUMP JUMPDEST DUP1 ISZERO PUSH2 0x1251 JUMPI DUP1 PUSH1 0x1F LT PUSH2 0x1226 JUMPI PUSH2 0x100 DUP1 DUP4 SLOAD DIV MUL DUP4 MSTORE SWAP2 PUSH1 0x20 ADD SWAP2 PUSH2 0x1251 JUMP JUMPDEST DUP3 ADD SWAP2 SWAP1 PUSH1 0x0 MSTORE PUSH1 0x20 PUSH1 0x0 KECCAK256 SWAP1 JUMPDEST DUP2 SLOAD DUP2 MSTORE SWAP1 PUSH1 0x1 ADD SWAP1 PUSH1 0x20 ADD DUP1 DUP4 GT PUSH2 0x1234 JUMPI DUP3 SWAP1 SUB PUSH1 0x1F AND DUP3 ADD SWAP2 JUMPDEST POP POP POP POP POP DUP2 MSTORE PUSH1 0x20 ADD PUSH1 0x2 DUP3 ADD DUP1 SLOAD PUSH2 0x126A SWAP1 PUSH2 0x1AD0 JUMP JUMPDEST DUP1 PUSH1 0x1F ADD PUSH1 0x20 DUP1 SWAP2 DIV MUL PUSH1 0x20 ADD PUSH1 0x40 MLOAD SWAP1 DUP2 ADD PUSH1 0x40 MSTORE DUP1 SWAP3 SWAP2 SWAP1 DUP2 DUP2 MSTORE PUSH1 0x20 ADD DUP3 DUP1 SLOAD PUSH2 0x1296 SWAP1 PUSH2 0x1AD0 JUMP JUMPDEST DUP1 ISZERO PUSH2 0x12E3 JUMPI DUP1 PUSH1 0x1F LT PUSH2 0x12B8 JUMPI PUSH2 0x100 DUP1 DUP4 SLOAD DIV MUL DUP4 MSTORE SWAP2 PUSH1 0x20 ADD SWAP2 PUSH2 0x12E3 JUMP JUMPDEST DUP3 ADD SWAP2 SWAP1 PUSH1 0x0 MSTORE PUSH1 0x20 PUSH1 0x0 KECCAK256 SWAP1 JUMPDEST DUP2 SLOAD DUP2 MSTORE SWAP1 PUSH1 0x1 ADD SWAP1 PUSH1 0x20 ADD DUP1 DUP4 GT PUSH2 0x12C6 JUMPI DUP3 SWAP1 SUB PUSH1 0x1F AND DUP3 ADD SWAP2 JUMPDEST POP POP POP SWAP2 DUP4 MSTORE POP POP PUSH1 0x3 DUP3 ADD SLOAD PUSH1 0x20 DUP3 ADD MSTORE PUSH1 0x4 SWAP1 SWAP2 ADD SLOAD PUSH1 0xFF DUP1 DUP3 AND PUSH1 0x40 DUP5 ADD MSTORE PUSH2 0x100 DUP3 DIV DUP2 AND PUSH1 0x60 DUP5 ADD MSTORE PUSH3 0x10000 SWAP1 SWAP2 DIV AND ISZERO ISZERO PUSH1 0x80 SWAP1 SWAP2 ADD MSTORE PUSH1 0xC0 DUP2 ADD MLOAD SWAP1 SWAP2 POP ISZERO PUSH2 0x1458 JUMPI PUSH1 0x1 PUSH1 0x1 PUSH1 0xA0 SHL SUB DUP7 AND PUSH1 0x0 SWAP1 DUP2 MSTORE PUSH1 0x6 PUSH1 0x20 SWAP1 DUP2 MSTORE PUSH1 0x40 DUP1 DUP4 KECCAK256 DUP6 DUP5 MSTORE DUP3 MSTORE SWAP2 DUP3 SWAP1 KECCAK256 DUP3 MLOAD PUSH1 0x60 DUP2 ADD DUP5 MSTORE DUP2 SLOAD DUP1 DUP3 MSTORE PUSH1 0x1 SWAP1 SWAP3 ADD SLOAD PUSH1 0xFF DUP1 DUP3 AND SWAP5 DUP4 ADD SWAP5 SWAP1 SWAP5 MSTORE PUSH2 0x100 SWAP1 DIV SWAP1 SWAP3 AND SWAP3 DUP3 ADD SWAP3 SWAP1 SWAP3 MSTORE SWAP1 ISZERO PUSH2 0x1456 JUMPI PUSH2 0x13A2 DUP3 PUSH1 0x80 ADD MLOAD DUP4 PUSH1 0xA0 ADD MLOAD DUP4 PUSH1 0x20 ADD MLOAD DUP5 PUSH1 0x40 ADD MLOAD PUSH2 0x146D JUMP JUMPDEST ISZERO PUSH2 0x13F1 JUMPI PUSH1 0x3 DUP6 PUSH1 0x20 ADD DUP2 DUP2 MLOAD PUSH2 0x13BA SWAP2 SWAP1 PUSH2 0x1CF7 JUMP JUMPDEST PUSH1 0xFF AND SWAP1 MSTORE POP PUSH1 0x40 DUP6 ADD DUP1 MLOAD SWAP1 PUSH2 0x13D0 DUP3 PUSH2 0x1D10 JUMP JUMPDEST PUSH1 0xFF AND SWAP1 MSTORE POP PUSH1 0x60 DUP6 ADD DUP1 MLOAD SWAP1 PUSH2 0x13E6 DUP3 PUSH2 0x1D10 JUMP JUMPDEST PUSH1 0xFF AND SWAP1 MSTORE POP PUSH2 0x143F JUMP JUMPDEST PUSH2 0x140D DUP3 PUSH1 0x80 ADD MLOAD DUP4 PUSH1 0xA0 ADD MLOAD DUP4 PUSH1 0x20 ADD MLOAD DUP5 PUSH1 0x40 ADD MLOAD PUSH2 0x1492 JUMP JUMPDEST ISZERO PUSH2 0x143F JUMPI PUSH1 0x20 DUP6 ADD DUP1 MLOAD SWAP1 PUSH2 0x1422 DUP3 PUSH2 0x1D10 JUMP JUMPDEST PUSH1 0xFF AND SWAP1 MSTORE POP PUSH1 0x60 DUP6 ADD DUP1 MLOAD SWAP1 PUSH2 0x1438 DUP3 PUSH2 0x1D10 JUMP JUMPDEST PUSH1 0xFF AND SWAP1 MSTORE POP JUMPDEST PUSH1 0x80 DUP6 ADD DUP1 MLOAD SWAP1 PUSH2 0x144F DUP3 PUSH2 0x1D10 JUMP JUMPDEST PUSH1 0xFF AND SWAP1 MSTORE POP JUMPDEST POP JUMPDEST POP POP DUP1 DUP1 PUSH2 0x1465 SWAP1 PUSH2 0x1CAF JUMP JUMPDEST SWAP2 POP POP PUSH2 0x1172 JUMP JUMPDEST PUSH1 0x0 DUP3 PUSH1 0xFF AND DUP6 PUSH1 0xFF AND EQ DUP1 ISZERO PUSH2 0x1489 JUMPI POP DUP2 PUSH1 0xFF AND DUP5 PUSH1 0xFF AND EQ JUMPDEST SWAP6 SWAP5 POP POP POP POP POP JUMP JUMPDEST PUSH1 0x0 PUSH2 0x14A0 DUP6 DUP6 DUP6 DUP6 PUSH2 0x14C4 JUMP JUMPDEST DUP1 PUSH2 0x14B2 JUMPI POP PUSH2 0x14B2 DUP6 DUP6 DUP6 DUP6 PUSH2 0x14E5 JUMP JUMPDEST DUP1 PUSH2 0x1489 JUMPI POP PUSH2 0x1489 DUP6 DUP6 DUP6 DUP6 PUSH2 0x1506 JUMP JUMPDEST PUSH1 0x0 DUP4 PUSH1 0xFF AND DUP6 PUSH1 0xFF AND GT DUP1 ISZERO PUSH2 0x1489 JUMPI POP POP PUSH1 0xFF SWAP1 DUP2 AND SWAP2 AND GT SWAP3 SWAP2 POP POP JUMP JUMPDEST PUSH1 0x0 DUP4 PUSH1 0xFF AND DUP6 PUSH1 0xFF AND LT DUP1 ISZERO PUSH2 0x1489 JUMPI POP POP PUSH1 0xFF SWAP1 DUP2 AND SWAP2 AND LT SWAP3 SWAP2 POP POP JUMP JUMPDEST PUSH1 0x0 DUP4 PUSH1 0xFF AND DUP6 PUSH1 0xFF AND EQ DUP1 ISZERO PUSH2 0x1522 JUMPI POP DUP2 PUSH1 0xFF AND DUP4 PUSH1 0xFF AND EQ JUMPDEST DUP1 ISZERO PUSH2 0x1489 JUMPI POP POP POP POP PUSH1 0xFF SWAP2 DUP3 AND SWAP2 AND EQ SWAP1 JUMP JUMPDEST POP DUP1 SLOAD PUSH2 0x1543 SWAP1 PUSH2 0x1AD0 JUMP JUMPDEST PUSH1 0x0 DUP3 SSTORE DUP1 PUSH1 0x1F LT PUSH2 0x1553 JUMPI POP POP JUMP JUMPDEST PUSH1 0x1F ADD PUSH1 0x20 SWAP1 DIV SWAP1 PUSH1 0x0 MSTORE PUSH1 0x20 PUSH1 0x0 KECCAK256 SWAP1 DUP2 ADD SWAP1 PUSH2 0x1571 SWAP2 SWAP1 PUSH2 0x15B9 JUMP JUMPDEST POP JUMP JUMPDEST PUSH1 0x40 MLOAD DUP1 PUSH1 0xE0 ADD PUSH1 0x40 MSTORE DUP1 PUSH1 0x0 DUP2 MSTORE PUSH1 0x20 ADD PUSH1 0x60 DUP2 MSTORE PUSH1 0x20 ADD PUSH1 0x60 DUP2 MSTORE PUSH1 0x20 ADD PUSH1 0x0 DUP2 MSTORE PUSH1 0x20 ADD PUSH1 0x0 PUSH1 0xFF AND DUP2 MSTORE PUSH1 0x20 ADD PUSH1 0x0 PUSH1 0xFF AND DUP2 MSTORE PUSH1 0x20 ADD PUSH1 0x0 ISZERO ISZERO DUP2 MSTORE POP SWAP1 JUMP JUMPDEST JUMPDEST DUP1 DUP3 GT ISZERO PUSH2 0x15CE JUMPI PUSH1 0x0 DUP2 SSTORE PUSH1 0x1 ADD PUSH2 0x15BA JUMP JUMPDEST POP SWAP1 JUMP JUMPDEST PUSH1 0x0 JUMPDEST DUP4 DUP2 LT ISZERO PUSH2 0x15ED JUMPI DUP2 DUP2 ADD MLOAD DUP4 DUP3 ADD MSTORE PUSH1 0x20 ADD PUSH2 0x15D5 JUMP JUMPDEST POP POP PUSH1 0x0 SWAP2 ADD MSTORE JUMP JUMPDEST PUSH1 0x0 DUP2 MLOAD DUP1 DUP5 MSTORE PUSH2 0x160E DUP2 PUSH1 0x20 DUP7 ADD PUSH1 0x20 DUP7 ADD PUSH2 0x15D2 JUMP JUMPDEST PUSH1 0x1F ADD PUSH1 0x1F NOT AND SWAP3 SWAP1 SWAP3 ADD PUSH1 0x20 ADD SWAP3 SWAP2 POP POP JUMP JUMPDEST PUSH1 0x20 DUP2 MSTORE PUSH1 0x0 PUSH2 0x1635 PUSH1 0x20 DUP4 ADD DUP5 PUSH2 0x15F6 JUMP JUMPDEST SWAP4 SWAP3 POP POP POP JUMP JUMPDEST PUSH1 0x0 PUSH1 0x20 DUP3 DUP5 SUB SLT ISZERO PUSH2 0x164E JUMPI PUSH1 0x0 DUP1 REVERT JUMPDEST POP CALLDATALOAD SWAP2 SWAP1 POP JUMP JUMPDEST PUSH4 0x4E487B71 PUSH1 0xE0 SHL PUSH1 0x0 MSTORE PUSH1 0x41 PUSH1 0x4 MSTORE PUSH1 0x24 PUSH1 0x0 REVERT JUMPDEST PUSH1 0x0 DUP3 PUSH1 0x1F DUP4 ADD SLT PUSH2 0x167C JUMPI PUSH1 0x0 DUP1 REVERT JUMPDEST DUP2 CALLDATALOAD PUSH8 0xFFFFFFFFFFFFFFFF DUP1 DUP3 GT ISZERO PUSH2 0x1697 JUMPI PUSH2 0x1697 PUSH2 0x1655 JUMP JUMPDEST PUSH1 0x40 MLOAD PUSH1 0x1F DUP4 ADD PUSH1 0x1F NOT SWAP1 DUP2 AND PUSH1 0x3F ADD AND DUP2 ADD SWAP1 DUP3 DUP3 GT DUP2 DUP4 LT OR ISZERO PUSH2 0x16BF JUMPI PUSH2 0x16BF PUSH2 0x1655 JUMP JUMPDEST DUP2 PUSH1 0x40 MSTORE DUP4 DUP2 MSTORE DUP7 PUSH1 0x20 DUP6 DUP9 ADD ADD GT ISZERO PUSH2 0x16D8 JUMPI PUSH1 0x0 DUP1 REVERT JUMPDEST DUP4 PUSH1 0x20 DUP8 ADD PUSH1 0x20 DUP4 ADD CALLDATACOPY PUSH1 0x0 PUSH1 0x20 DUP6 DUP4 ADD ADD MSTORE DUP1 SWAP5 POP POP POP POP POP SWAP3 SWAP2 POP POP JUMP JUMPDEST DUP1 CALLDATALOAD PUSH1 0xFF DUP2 AND DUP2 EQ PUSH2 0x1709 JUMPI PUSH1 0x0 DUP1 REVERT JUMPDEST SWAP2 SWAP1 POP JUMP JUMPDEST PUSH1 0x0 DUP1 PUSH1 0x0 DUP1 PUSH1 0x0 DUP1 PUSH1 0x0 PUSH1 0xE0 DUP9 DUP11 SUB SLT ISZERO PUSH2 0x1729 JUMPI PUSH1 0x0 DUP1 REVERT JUMPDEST DUP8 CALLDATALOAD SWAP7 POP PUSH1 0x20 DUP9 ADD CALLDATALOAD PUSH8 0xFFFFFFFFFFFFFFFF DUP1 DUP3 GT ISZERO PUSH2 0x1748 JUMPI PUSH1 0x0 DUP1 REVERT JUMPDEST PUSH2 0x1754 DUP12 DUP4 DUP13 ADD PUSH2 0x166B JUMP JUMPDEST SWAP8 POP PUSH1 0x40 DUP11 ADD CALLDATALOAD SWAP2 POP DUP1 DUP3 GT ISZERO PUSH2 0x176A JUMPI PUSH1 0x0 DUP1 REVERT JUMPDEST POP PUSH2 0x1777 DUP11 DUP3 DUP12 ADD PUSH2 0x166B JUMP JUMPDEST SWAP6 POP POP PUSH1 0x60 DUP9 ADD CALLDATALOAD SWAP4 POP PUSH2 0x178D PUSH1 0x80 DUP10 ADD PUSH2 0x16F8 JUMP JUMPDEST SWAP3 POP PUSH2 0x179B PUSH1 0xA0 DUP10 ADD PUSH2 0x16F8 JUMP JUMPDEST SWAP2 POP PUSH1 0xC0 DUP9 ADD CALLDATALOAD DUP1 ISZERO ISZERO DUP2 EQ PUSH2 0x17B0 JUMPI PUSH1 0x0 DUP1 REVERT JUMPDEST DUP1 SWAP2 POP POP SWAP3 SWAP6 SWAP9 SWAP2 SWAP5 SWAP8 POP SWAP3 SWAP6 POP JUMP JUMPDEST DUP1 MLOAD DUP3 MSTORE PUSH1 0x0 PUSH1 0x20 DUP3 ADD MLOAD PUSH1 0xE0 PUSH1 0x20 DUP6 ADD MSTORE PUSH2 0x17DF PUSH1 0xE0 DUP6 ADD DUP3 PUSH2 0x15F6 JUMP JUMPDEST SWAP1 POP PUSH1 0x40 DUP4 ADD MLOAD DUP5 DUP3 SUB PUSH1 0x40 DUP7 ADD MSTORE PUSH2 0x17F8 DUP3 DUP3 PUSH2 0x15F6 JUMP JUMPDEST SWAP2 POP POP PUSH1 0x60 DUP4 ADD MLOAD PUSH1 0x60 DUP6 ADD MSTORE PUSH1 0xFF PUSH1 0x80 DUP5 ADD MLOAD AND PUSH1 0x80 DUP6 ADD MSTORE PUSH1 0xFF PUSH1 0xA0 DUP5 ADD MLOAD AND PUSH1 0xA0 DUP6 ADD MSTORE PUSH1 0xC0 DUP4 ADD MLOAD ISZERO ISZERO PUSH1 0xC0 DUP6 ADD MSTORE DUP1 SWAP2 POP POP SWAP3 SWAP2 POP POP JUMP JUMPDEST PUSH1 0x20 DUP2 MSTORE PUSH1 0x0 PUSH2 0x1635 PUSH1 0x20 DUP4 ADD DUP5 PUSH2 0x17C0 JUMP JUMPDEST PUSH1 0x0 DUP1 PUSH1 0x0 PUSH1 0x60 DUP5 DUP7 SUB SLT ISZERO PUSH2 0x185D JUMPI PUSH1 0x0 DUP1 REVERT JUMPDEST DUP4 CALLDATALOAD PUSH8 0xFFFFFFFFFFFFFFFF DUP1 DUP3 GT ISZERO PUSH2 0x1875 JUMPI PUSH1 0x0 DUP1 REVERT JUMPDEST PUSH2 0x1881 DUP8 DUP4 DUP9 ADD PUSH2 0x166B JUMP JUMPDEST SWAP5 POP PUSH1 0x20 DUP7 ADD CALLDATALOAD SWAP2 POP DUP1 DUP3 GT ISZERO PUSH2 0x1897 JUMPI PUSH1 0x0 DUP1 REVERT JUMPDEST POP PUSH2 0x18A4 DUP7 DUP3 DUP8 ADD PUSH2 0x166B JUMP JUMPDEST SWAP3 POP POP PUSH1 0x40 DUP5 ADD CALLDATALOAD SWAP1 POP SWAP3 POP SWAP3 POP SWAP3 JUMP JUMPDEST PUSH1 0x0 DUP1 PUSH1 0x0 PUSH1 0x60 DUP5 DUP7 SUB SLT ISZERO PUSH2 0x18CA JUMPI PUSH1 0x0 DUP1 REVERT JUMPDEST DUP4 CALLDATALOAD SWAP3 POP PUSH2 0x18DA PUSH1 0x20 DUP6 ADD PUSH2 0x16F8 JUMP JUMPDEST SWAP2 POP PUSH2 0x18E8 PUSH1 0x40 DUP6 ADD PUSH2 0x16F8 JUMP JUMPDEST SWAP1 POP SWAP3 POP SWAP3 POP SWAP3 JUMP JUMPDEST PUSH1 0x0 PUSH1 0x20 DUP3 DUP5 SUB SLT ISZERO PUSH2 0x1903 JUMPI PUSH1 0x0 DUP1 REVERT JUMPDEST DUP2 CALLDATALOAD PUSH1 0x1 PUSH1 0x1 PUSH1 0xA0 SHL SUB DUP2 AND DUP2 EQ PUSH2 0x1635 JUMPI PUSH1 0x0 DUP1 REVERT JUMPDEST PUSH1 0x20 DUP1 DUP3 MSTORE DUP3 MLOAD DUP3 DUP3 ADD DUP2 SWAP1 MSTORE PUSH1 0x0 SWAP2 SWAP1 DUP5 DUP3 ADD SWAP1 PUSH1 0x40 DUP6 ADD SWAP1 DUP5 JUMPDEST DUP2 DUP2 LT ISZERO PUSH2 0x1979 JUMPI PUSH2 0x1966 DUP4 DUP6 MLOAD DUP1 MLOAD DUP3 MSTORE PUSH1 0xFF PUSH1 0x20 DUP3 ADD MLOAD AND PUSH1 0x20 DUP4 ADD MSTORE PUSH1 0xFF PUSH1 0x40 DUP3 ADD MLOAD AND PUSH1 0x40 DUP4 ADD MSTORE POP POP JUMP JUMPDEST SWAP3 DUP5 ADD SWAP3 PUSH1 0x60 SWAP3 SWAP1 SWAP3 ADD SWAP2 PUSH1 0x1 ADD PUSH2 0x1936 JUMP JUMPDEST POP SWAP1 SWAP7 SWAP6 POP POP POP POP POP POP JUMP JUMPDEST PUSH1 0x0 PUSH1 0x20 DUP1 DUP4 ADD DUP2 DUP5 MSTORE DUP1 DUP6 MLOAD DUP1 DUP4 MSTORE PUSH1 0x40 DUP7 ADD SWAP2 POP PUSH1 0x40 DUP2 PUSH1 0x5 SHL DUP8 ADD ADD SWAP3 POP DUP4 DUP8 ADD PUSH1 0x0 JUMPDEST DUP3 DUP2 LT ISZERO PUSH2 0x19DA JUMPI PUSH1 0x3F NOT DUP9 DUP7 SUB ADD DUP5 MSTORE PUSH2 0x19C8 DUP6 DUP4 MLOAD PUSH2 0x17C0 JUMP JUMPDEST SWAP5 POP SWAP3 DUP6 ADD SWAP3 SWAP1 DUP6 ADD SWAP1 PUSH1 0x1 ADD PUSH2 0x19AC JUMP JUMPDEST POP SWAP3 SWAP8 SWAP7 POP POP POP POP POP POP POP JUMP JUMPDEST PUSH1 0x20 DUP1 DUP3 MSTORE DUP3 MLOAD DUP3 DUP3 ADD DUP2 SWAP1 MSTORE PUSH1 0x0 SWAP2 SWAP1 PUSH1 0x40 SWAP1 DUP2 DUP6 ADD SWAP1 DUP7 DUP5 ADD DUP6 JUMPDEST DUP3 DUP2 LT ISZERO PUSH2 0x1A5B JUMPI DUP2 MLOAD DUP1 MLOAD PUSH1 0x1 PUSH1 0x1 PUSH1 0xA0 SHL SUB AND DUP6 MSTORE DUP7 DUP2 ADD MLOAD PUSH1 0xFF SWAP1 DUP2 AND DUP9 DUP8 ADD MSTORE DUP7 DUP3 ADD MLOAD DUP2 AND DUP8 DUP8 ADD MSTORE PUSH1 0x60 DUP1 DUP4 ADD MLOAD DUP3 AND SWAP1 DUP8 ADD MSTORE PUSH1 0x80 SWAP2 DUP3 ADD MLOAD AND SWAP1 DUP6 ADD MSTORE PUSH1 0xA0 SWAP1 SWAP4 ADD SWAP3 SWAP1 DUP6 ADD SWAP1 PUSH1 0x1 ADD PUSH2 0x1A04 JUMP JUMPDEST POP SWAP2 SWAP8 SWAP7 POP POP POP POP POP POP POP JUMP JUMPDEST PUSH1 0x0 PUSH1 0x20 DUP3 DUP5 SUB SLT ISZERO PUSH2 0x1A7A JUMPI PUSH1 0x0 DUP1 REVERT JUMPDEST DUP2 CALLDATALOAD PUSH8 0xFFFFFFFFFFFFFFFF DUP2 GT ISZERO PUSH2 0x1A91 JUMPI PUSH1 0x0 DUP1 REVERT JUMPDEST PUSH2 0x1A9D DUP5 DUP3 DUP6 ADD PUSH2 0x166B JUMP JUMPDEST SWAP5 SWAP4 POP POP POP POP JUMP JUMPDEST PUSH1 0x60 DUP2 ADD PUSH2 0x110C DUP3 DUP5 DUP1 MLOAD DUP3 MSTORE PUSH1 0xFF PUSH1 0x20 DUP3 ADD MLOAD AND PUSH1 0x20 DUP4 ADD MSTORE PUSH1 0xFF PUSH1 0x40 DUP3 ADD MLOAD AND PUSH1 0x40 DUP4 ADD MSTORE POP POP JUMP JUMPDEST PUSH1 0x1 DUP2 DUP2 SHR SWAP1 DUP3 AND DUP1 PUSH2 0x1AE4 JUMPI PUSH1 0x7F DUP3 AND SWAP2 POP JUMPDEST PUSH1 0x20 DUP3 LT DUP2 SUB PUSH2 0xDFB JUMPI PUSH4 0x4E487B71 PUSH1 0xE0 SHL PUSH1 0x0 MSTORE PUSH1 0x22 PUSH1 0x4 MSTORE PUSH1 0x24 PUSH1 0x0 REVERT JUMPDEST PUSH1 0x20 DUP1 DUP3 MSTORE PUSH1 0x15 SWAP1 DUP3 ADD MSTORE PUSH21 0x556E617574686F72697A6564207265717565737421 PUSH1 0x58 SHL PUSH1 0x40 DUP3 ADD MSTORE PUSH1 0x60 ADD SWAP1 JUMP JUMPDEST PUSH1 0x20 DUP1 DUP3 MSTORE PUSH1 0x14 SWAP1 DUP3 ADD MSTORE PUSH20 0x47616D6520646F6573206E6F7420657869737421 PUSH1 0x60 SHL PUSH1 0x40 DUP3 ADD MSTORE PUSH1 0x60 ADD SWAP1 JUMP JUMPDEST PUSH4 0x4E487B71 PUSH1 0xE0 SHL PUSH1 0x0 MSTORE PUSH1 0x11 PUSH1 0x4 MSTORE PUSH1 0x24 PUSH1 0x0 REVERT JUMPDEST DUP2 DUP2 SUB DUP2 DUP2 GT ISZERO PUSH2 0x110C JUMPI PUSH2 0x110C PUSH2 0x1B61 JUMP JUMPDEST PUSH4 0x4E487B71 PUSH1 0xE0 SHL PUSH1 0x0 MSTORE PUSH1 0x32 PUSH1 0x4 MSTORE PUSH1 0x24 PUSH1 0x0 REVERT JUMPDEST PUSH1 0x1F DUP3 GT ISZERO PUSH2 0x1BEA JUMPI PUSH1 0x0 DUP2 DUP2 MSTORE PUSH1 0x20 DUP2 KECCAK256 PUSH1 0x1F DUP6 ADD PUSH1 0x5 SHR DUP2 ADD PUSH1 0x20 DUP7 LT ISZERO PUSH2 0x1BC7 JUMPI POP DUP1 JUMPDEST PUSH1 0x1F DUP6 ADD PUSH1 0x5 SHR DUP3 ADD SWAP2 POP JUMPDEST DUP2 DUP2 LT ISZERO PUSH2 0x1BE6 JUMPI DUP3 DUP2 SSTORE PUSH1 0x1 ADD PUSH2 0x1BD3 JUMP JUMPDEST POP POP POP JUMPDEST POP POP POP JUMP JUMPDEST DUP2 MLOAD PUSH8 0xFFFFFFFFFFFFFFFF DUP2 GT ISZERO PUSH2 0x1C09 JUMPI PUSH2 0x1C09 PUSH2 0x1655 JUMP JUMPDEST PUSH2 0x1C1D DUP2 PUSH2 0x1C17 DUP5 SLOAD PUSH2 0x1AD0 JUMP JUMPDEST DUP5 PUSH2 0x1BA0 JUMP JUMPDEST PUSH1 0x20 DUP1 PUSH1 0x1F DUP4 GT PUSH1 0x1 DUP2 EQ PUSH2 0x1C52 JUMPI PUSH1 0x0 DUP5 ISZERO PUSH2 0x1C3A JUMPI POP DUP6 DUP4 ADD MLOAD JUMPDEST PUSH1 0x0 NOT PUSH1 0x3 DUP7 SWAP1 SHL SHR NOT AND PUSH1 0x1 DUP6 SWAP1 SHL OR DUP6 SSTORE PUSH2 0x1BE6 JUMP JUMPDEST PUSH1 0x0 DUP6 DUP2 MSTORE PUSH1 0x20 DUP2 KECCAK256 PUSH1 0x1F NOT DUP7 AND SWAP2 JUMPDEST DUP3 DUP2 LT ISZERO PUSH2 0x1C81 JUMPI DUP9 DUP7 ADD MLOAD DUP3 SSTORE SWAP5 DUP5 ADD SWAP5 PUSH1 0x1 SWAP1 SWAP2 ADD SWAP1 DUP5 ADD PUSH2 0x1C62 JUMP JUMPDEST POP DUP6 DUP3 LT ISZERO PUSH2 0x1C9F JUMPI DUP8 DUP6 ADD MLOAD PUSH1 0x0 NOT PUSH1 0x3 DUP9 SWAP1 SHL PUSH1 0xF8 AND SHR NOT AND DUP2 SSTORE JUMPDEST POP POP POP POP POP PUSH1 0x1 SWAP1 DUP2 SHL ADD SWAP1 SSTORE POP JUMP JUMPDEST PUSH1 0x0 PUSH1 0x1 DUP3 ADD PUSH2 0x1CC1 JUMPI PUSH2 0x1CC1 PUSH2 0x1B61 JUMP JUMPDEST POP PUSH1 0x1 ADD SWAP1 JUMP JUMPDEST DUP1 DUP3 ADD DUP1 DUP3 GT ISZERO PUSH2 0x110C JUMPI PUSH2 0x110C PUSH2 0x1B61 JUMP JUMPDEST PUSH1 0x0 DUP3 MLOAD PUSH2 0x1CED DUP2 DUP5 PUSH1 0x20 DUP8 ADD PUSH2 0x15D2 JUMP JUMPDEST SWAP2 SWAP1 SWAP2 ADD SWAP3 SWAP2 POP POP JUMP JUMPDEST PUSH1 0xFF DUP2 DUP2 AND DUP4 DUP3 AND ADD SWAP1 DUP2 GT ISZERO PUSH2 0x110C JUMPI PUSH2 0x110C PUSH2 0x1B61 JUMP JUMPDEST PUSH1 0x0 PUSH1 0xFF DUP3 AND PUSH1 0xFF DUP2 SUB PUSH2 0x1D26 JUMPI PUSH2 0x1D26 PUSH2 0x1B61 JUMP JUMPDEST PUSH1 0x1 ADD SWAP3 SWAP2 POP POP JUMP INVALID LOG2 PUSH5 0x6970667358 0x22 SLT KECCAK256 SWAP7 PUSH11 0xAC2E0CBFE42D9E279F2BF0 DUP10 0xD9 SWAP3 0x2D PUSH4 0x471355DC XOR 0x5E CALLCODE 0xB8 MULMOD 0xD8 LOG4 PUSH5 0x435064736F PUSH13 0x63430008110033000000000000 "},"methodIdentifiers":{"addGame(string,string,uint256)":"a5c86b77","addOrUpdatePrediction(uint256,uint8,uint8)":"aaa2835d","deleteGame(uint256)":"248a55a1","getGame(uint256)":"a2f77bcc","getGames()":"c04c5947","getPoints()":"f4b7095b","getPrediction(uint256)":"fe83bece","getPredictions(address)":"b799bb0f","initialize(string)":"f62d1888","name()":"06fdde03","owner()":"8da5cb5b","updateGame(uint256,string,string,uint256,uint8,uint8,bool)":"73abca82"}},"storageLayout":{"storage":[{"astId":6,"contract":"contracts/MeerkatCompetition.sol:MeerkatCompetitionV1","label":"_initialized","offset":0,"slot":"0","type":"t_uint8"},{"astId":9,"contract":"contracts/MeerkatCompetition.sol:MeerkatCompetitionV1","label":"_initializing","offset":1,"slot":"0","type":"t_bool"},{"astId":540,"contract":"contracts/MeerkatCompetition.sol:MeerkatCompetitionV1","label":"name","offset":0,"slot":"1","type":"t_string_storage"},{"astId":542,"contract":"contracts/MeerkatCompetition.sol:MeerkatCompetitionV1","label":"owner","offset":0,"slot":"2","type":"t_address"},{"astId":547,"contract":"contracts/MeerkatCompetition.sol:MeerkatCompetitionV1","label":"games","offset":0,"slot":"3","type":"t_mapping(t_uint256,t_struct(Game)520_storage)"},{"astId":550,"contract":"contracts/MeerkatCompetition.sol:MeerkatCompetitionV1","label":"gameIds","offset":0,"slot":"4","type":"t_array(t_uint256)dyn_storage"},{"astId":552,"contract":"contracts/MeerkatCompetition.sol:MeerkatCompetitionV1","label":"lastGameId","offset":0,"slot":"5","type":"t_uint256"},{"astId":559,"contract":"contracts/MeerkatCompetition.sol:MeerkatCompetitionV1","label":"predictions","offset":0,"slot":"6","type":"t_mapping(t_address,t_mapping(t_uint256,t_struct(Prediction)527_storage))"},{"astId":564,"contract":"contracts/MeerkatCompetition.sol:MeerkatCompetitionV1","label":"predictionGameIds","offset":0,"slot":"7","type":"t_mapping(t_address,t_array(t_uint256)dyn_storage)"},{"astId":568,"contract":"contracts/MeerkatCompetition.sol:MeerkatCompetitionV1","label":"activeUsers","offset":0,"slot":"8","type":"t_mapping(t_address,t_bool)"},{"astId":571,"contract":"contracts/MeerkatCompetition.sol:MeerkatCompetitionV1","label":"userIds","offset":0,"slot":"9","type":"t_array(t_address)dyn_storage"}],"types":{"t_address":{"encoding":"inplace","label":"address","numberOfBytes":"20"},"t_array(t_address)dyn_storage":{"base":"t_address","encoding":"dynamic_array","label":"address[]","numberOfBytes":"32"},"t_array(t_uint256)dyn_storage":{"base":"t_uint256","encoding":"dynamic_array","label":"uint256[]","numberOfBytes":"32"},"t_bool":{"encoding":"inplace","label":"bool","numberOfBytes":"1"},"t_mapping(t_address,t_array(t_uint256)dyn_storage)":{"encoding":"mapping","key":"t_address","label":"mapping(address => uint256[])","numberOfBytes":"32","value":"t_array(t_uint256)dyn_storage"},"t_mapping(t_address,t_bool)":{"encoding":"mapping","key":"t_address","label":"mapping(address => bool)","numberOfBytes":"32","value":"t_bool"},"t_mapping(t_address,t_mapping(t_uint256,t_struct(Prediction)527_storage))":{"encoding":"mapping","key":"t_address","label":"mapping(address => mapping(uint256 => struct MeerkatCompetitionV1.Prediction))","numberOfBytes":"32","value":"t_mapping(t_uint256,t_struct(Prediction)527_storage)"},"t_mapping(t_uint256,t_struct(Game)520_storage)":{"encoding":"mapping","key":"t_uint256","label":"mapping(uint256 => struct MeerkatCompetitionV1.Game)","numberOfBytes":"32","value":"t_struct(Game)520_storage"},"t_mapping(t_uint256,t_struct(Prediction)527_storage)":{"encoding":"mapping","key":"t_uint256","label":"mapping(uint256 => struct MeerkatCompetitionV1.Prediction)","numberOfBytes":"32","value":"t_struct(Prediction)527_storage"},"t_string_storage":{"encoding":"bytes","label":"string","numberOfBytes":"32"},"t_struct(Game)520_storage":{"encoding":"inplace","label":"struct MeerkatCompetitionV1.Game","members":[{"astId":507,"contract":"contracts/MeerkatCompetition.sol:MeerkatCompetitionV1","label":"id","offset":0,"slot":"0","type":"t_uint256"},{"astId":509,"contract":"contracts/MeerkatCompetition.sol:MeerkatCompetitionV1","label":"homeCompetitor","offset":0,"slot":"1","type":"t_string_storage"},{"astId":511,"contract":"contracts/MeerkatCompetition.sol:MeerkatCompetitionV1","label":"awayCompetitor","offset":0,"slot":"2","type":"t_string_storage"},{"astId":513,"contract":"contracts/MeerkatCompetition.sol:MeerkatCompetitionV1","label":"startTime","offset":0,"slot":"3","type":"t_uint256"},{"astId":515,"contract":"contracts/MeerkatCompetition.sol:MeerkatCompetitionV1","label":"homeScore","offset":0,"slot":"4","type":"t_uint8"},{"astId":517,"contract":"contracts/MeerkatCompetition.sol:MeerkatCompetitionV1","label":"awayScore","offset":1,"slot":"4","type":"t_uint8"},{"astId":519,"contract":"contracts/MeerkatCompetition.sol:MeerkatCompetitionV1","label":"isFinalized","offset":2,"slot":"4","type":"t_bool"}],"numberOfBytes":"160"},"t_struct(Prediction)527_storage":{"encoding":"inplace","label":"struct MeerkatCompetitionV1.Prediction","members":[{"astId":522,"contract":"contracts/MeerkatCompetition.sol:MeerkatCompetitionV1","label":"gameId","offset":0,"slot":"0","type":"t_uint256"},{"astId":524,"contract":"contracts/MeerkatCompetition.sol:MeerkatCompetitionV1","label":"homeScore","offset":0,"slot":"1","type":"t_uint8"},{"astId":526,"contract":"contracts/MeerkatCompetition.sol:MeerkatCompetitionV1","label":"awayScore","offset":1,"slot":"1","type":"t_uint8"}],"numberOfBytes":"64"},"t_uint256":{"encoding":"inplace","label":"uint256","numberOfBytes":"32"},"t_uint8":{"encoding":"inplace","label":"uint8","numberOfBytes":"1"}}}}}}