{"contracts/MeerkatV1.sol":{"MeerkatV1":{"abi":[{"anonymous":false,"inputs":[{"indexed":false,"internalType":"address","name":"_competition","type":"address"},{"indexed":true,"internalType":"address","name":"_owner","type":"address"}],"name":"CompetitionAdded","type":"event"},{"anonymous":false,"inputs":[{"indexed":false,"internalType":"uint8","name":"version","type":"uint8"}],"name":"Initialized","type":"event"},{"inputs":[{"internalType":"address","name":"_competition","type":"address"}],"name":"addCompetition","outputs":[],"stateMutability":"nonpayable","type":"function"},{"inputs":[{"internalType":"uint256","name":"","type":"uint256"}],"name":"competitions","outputs":[{"internalType":"address","name":"","type":"address"}],"stateMutability":"view","type":"function"}],"evm":{"bytecode":{"linkReferences":{},"object":"608060405234801561001057600080fd5b50610117806100206000396000f3fe6080604052348015600f57600080fd5b506004361060325760003560e01c80638c8f52111460375780639f6828d9146047575b600080fd5b60456042366004609b565b50565b005b6056605236600460c9565b6072565b6040516001600160a01b03909116815260200160405180910390f35b60018181548110608157600080fd5b6000918252602090912001546001600160a01b0316905081565b60006020828403121560ac57600080fd5b81356001600160a01b038116811460c257600080fd5b9392505050565b60006020828403121560da57600080fd5b503591905056fea26469706673582212200d38405f5277921c6ac5d4e61fe99d1c2920d6e9be9d8f6f0de4c523146bfb1f64736f6c63430008110033","opcodes":"PUSH1 0x80 PUSH1 0x40 MSTORE CALLVALUE DUP1 ISZERO PUSH2 0x10 JUMPI PUSH1 0x0 DUP1 REVERT JUMPDEST POP PUSH2 0x117 DUP1 PUSH2 0x20 PUSH1 0x0 CODECOPY PUSH1 0x0 RETURN INVALID PUSH1 0x80 PUSH1 0x40 MSTORE CALLVALUE DUP1 ISZERO PUSH1 0xF JUMPI PUSH1 0x0 DUP1 REVERT JUMPDEST POP PUSH1 0x4 CALLDATASIZE LT PUSH1 0x32 JUMPI PUSH1 0x0 CALLDATALOAD PUSH1 0xE0 SHR DUP1 PUSH4 0x8C8F5211 EQ PUSH1 0x37 JUMPI DUP1 PUSH4 0x9F6828D9 EQ PUSH1 0x47 JUMPI JUMPDEST PUSH1 0x0 DUP1 REVERT JUMPDEST PUSH1 0x45 PUSH1 0x42 CALLDATASIZE PUSH1 0x4 PUSH1 0x9B JUMP JUMPDEST POP JUMP JUMPDEST STOP JUMPDEST PUSH1 0x56 PUSH1 0x52 CALLDATASIZE PUSH1 0x4 PUSH1 0xC9 JUMP JUMPDEST PUSH1 0x72 JUMP JUMPDEST PUSH1 0x40 MLOAD PUSH1 0x1 PUSH1 0x1 PUSH1 0xA0 SHL SUB SWAP1 SWAP2 AND DUP2 MSTORE PUSH1 0x20 ADD PUSH1 0x40 MLOAD DUP1 SWAP2 SUB SWAP1 RETURN JUMPDEST PUSH1 0x1 DUP2 DUP2 SLOAD DUP2 LT PUSH1 0x81 JUMPI PUSH1 0x0 DUP1 REVERT JUMPDEST PUSH1 0x0 SWAP2 DUP3 MSTORE PUSH1 0x20 SWAP1 SWAP2 KECCAK256 ADD SLOAD PUSH1 0x1 PUSH1 0x1 PUSH1 0xA0 SHL SUB AND SWAP1 POP DUP2 JUMP JUMPDEST PUSH1 0x0 PUSH1 0x20 DUP3 DUP5 SUB SLT ISZERO PUSH1 0xAC JUMPI PUSH1 0x0 DUP1 REVERT JUMPDEST DUP2 CALLDATALOAD PUSH1 0x1 PUSH1 0x1 PUSH1 0xA0 SHL SUB DUP2 AND DUP2 EQ PUSH1 0xC2 JUMPI PUSH1 0x0 DUP1 REVERT JUMPDEST SWAP4 SWAP3 POP POP POP JUMP JUMPDEST PUSH1 0x0 PUSH1 0x20 DUP3 DUP5 SUB SLT ISZERO PUSH1 0xDA JUMPI PUSH1 0x0 DUP1 REVERT JUMPDEST POP CALLDATALOAD SWAP2 SWAP1 POP JUMP INVALID LOG2 PUSH5 0x6970667358 0x22 SLT KECCAK256 0xD CODESIZE BLOCKHASH 0x5F MSTORE PUSH24 0x921C6AC5D4E61FE99D1C2920D6E9BE9D8F6F0DE4C523146B 0xFB 0x1F PUSH5 0x736F6C6343 STOP ADDMOD GT STOP CALLER "},"methodIdentifiers":{"addCompetition(address)":"8c8f5211","competitions(uint256)":"9f6828d9"}},"storageLayout":{"storage":[{"astId":6,"contract":"contracts/MeerkatV1.sol:MeerkatV1","label":"_initialized","offset":0,"slot":"0","type":"t_uint8"},{"astId":9,"contract":"contracts/MeerkatV1.sol:MeerkatV1","label":"_initializing","offset":1,"slot":"0","type":"t_bool"},{"astId":1382,"contract":"contracts/MeerkatV1.sol:MeerkatV1","label":"competitions","offset":0,"slot":"1","type":"t_array(t_address)dyn_storage"}],"types":{"t_address":{"encoding":"inplace","label":"address","numberOfBytes":"20"},"t_array(t_address)dyn_storage":{"base":"t_address","encoding":"dynamic_array","label":"address[]","numberOfBytes":"32"},"t_bool":{"encoding":"inplace","label":"bool","numberOfBytes":"1"},"t_uint8":{"encoding":"inplace","label":"uint8","numberOfBytes":"1"}}}}}}