{"contracts/MeerkatV1.sol":{"MeerkatV1":{"abi":[{"anonymous":false,"inputs":[{"indexed":false,"internalType":"uint8","name":"version","type":"uint8"}],"name":"Initialized","type":"event"},{"inputs":[{"internalType":"address","name":"","type":"address"},{"internalType":"uint256","name":"","type":"uint256"},{"internalType":"uint256","name":"","type":"uint256"}],"name":"competitions","outputs":[{"internalType":"uint256","name":"id","type":"uint256"},{"internalType":"address","name":"owner","type":"address"},{"internalType":"string","name":"name","type":"string"},{"internalType":"enum MeerkatV1.Sport","name":"sport","type":"uint8"}],"stateMutability":"view","type":"function"},{"inputs":[],"name":"initialize","outputs":[],"stateMutability":"nonpayable","type":"function"}],"evm":{"bytecode":{"linkReferences":{},"object":"608060405234801561001057600080fd5b506103a6806100206000396000f3fe608060405234801561001057600080fd5b50600436106100365760003560e01c80638129fc1c1461003b578063f182acae14610045575b600080fd5b610043610071565b005b61005861005336600461026b565b61017e565b60405161006894939291906102ac565b60405180910390f35b600054610100900460ff16158080156100915750600054600160ff909116105b806100ab5750303b1580156100ab575060005460ff166001145b6101125760405162461bcd60e51b815260206004820152602e60248201527f496e697469616c697a61626c653a20636f6e747261637420697320616c72656160448201526d191e481a5b9a5d1a585b1a5e995960921b606482015260840160405180910390fd5b6000805460ff191660011790558015610135576000805461ff0019166101001790555b801561017b576000805461ff0019169055604051600181527f7f26b83ff96e1f2b6a682f133852f6798a09c465da95921460cefb38474024989060200160405180910390a15b50565b600160205282600052604060002060205281600052604060002081815481106101a657600080fd5b60009182526020909120600690910201805460018201546002830180549296506001600160a01b0390911694509192506101df90610336565b80601f016020809104026020016040519081016040528092919081815260200182805461020b90610336565b80156102585780601f1061022d57610100808354040283529160200191610258565b820191906000526020600020905b81548152906001019060200180831161023b57829003601f168201915b5050506003909301549192505060ff1684565b60008060006060848603121561028057600080fd5b83356001600160a01b038116811461029757600080fd5b95602085013595506040909401359392505050565b8481526000602060018060a01b0386168184015260806040840152845180608085015260005b818110156102ee5786810183015185820160a0015282016102d2565b50600060a0828601015260a0601f19601f830116850101925050506001831061032757634e487b7160e01b600052602160045260246000fd5b82606083015295945050505050565b600181811c9082168061034a57607f821691505b60208210810361036a57634e487b7160e01b600052602260045260246000fd5b5091905056fea2646970667358221220b1af55049bda3475ea7267277192cada562d94505c05394a5b0f0527274d020d64736f6c63430008110033","opcodes":"PUSH1 0x80 PUSH1 0x40 MSTORE CALLVALUE DUP1 ISZERO PUSH2 0x10 JUMPI PUSH1 0x0 DUP1 REVERT JUMPDEST POP PUSH2 0x3A6 DUP1 PUSH2 0x20 PUSH1 0x0 CODECOPY PUSH1 0x0 RETURN INVALID PUSH1 0x80 PUSH1 0x40 MSTORE CALLVALUE DUP1 ISZERO PUSH2 0x10 JUMPI PUSH1 0x0 DUP1 REVERT JUMPDEST POP PUSH1 0x4 CALLDATASIZE LT PUSH2 0x36 JUMPI PUSH1 0x0 CALLDATALOAD PUSH1 0xE0 SHR DUP1 PUSH4 0x8129FC1C EQ PUSH2 0x3B JUMPI DUP1 PUSH4 0xF182ACAE EQ PUSH2 0x45 JUMPI JUMPDEST PUSH1 0x0 DUP1 REVERT JUMPDEST PUSH2 0x43 PUSH2 0x71 JUMP JUMPDEST STOP JUMPDEST PUSH2 0x58 PUSH2 0x53 CALLDATASIZE PUSH1 0x4 PUSH2 0x26B JUMP JUMPDEST PUSH2 0x17E JUMP JUMPDEST PUSH1 0x40 MLOAD PUSH2 0x68 SWAP5 SWAP4 SWAP3 SWAP2 SWAP1 PUSH2 0x2AC JUMP JUMPDEST PUSH1 0x40 MLOAD DUP1 SWAP2 SUB SWAP1 RETURN JUMPDEST PUSH1 0x0 SLOAD PUSH2 0x100 SWAP1 DIV PUSH1 0xFF AND ISZERO DUP1 DUP1 ISZERO PUSH2 0x91 JUMPI POP PUSH1 0x0 SLOAD PUSH1 0x1 PUSH1 0xFF SWAP1 SWAP2 AND LT JUMPDEST DUP1 PUSH2 0xAB JUMPI POP ADDRESS EXTCODESIZE ISZERO DUP1 ISZERO PUSH2 0xAB JUMPI POP PUSH1 0x0 SLOAD PUSH1 0xFF AND PUSH1 0x1 EQ JUMPDEST PUSH2 0x112 JUMPI PUSH1 0x40 MLOAD PUSH3 0x461BCD PUSH1 0xE5 SHL DUP2 MSTORE PUSH1 0x20 PUSH1 0x4 DUP3 ADD MSTORE PUSH1 0x2E PUSH1 0x24 DUP3 ADD MSTORE PUSH32 0x496E697469616C697A61626C653A20636F6E747261637420697320616C726561 PUSH1 0x44 DUP3 ADD MSTORE PUSH14 0x191E481A5B9A5D1A585B1A5E9959 PUSH1 0x92 SHL PUSH1 0x64 DUP3 ADD MSTORE PUSH1 0x84 ADD PUSH1 0x40 MLOAD DUP1 SWAP2 SUB SWAP1 REVERT JUMPDEST PUSH1 0x0 DUP1 SLOAD PUSH1 0xFF NOT AND PUSH1 0x1 OR SWAP1 SSTORE DUP1 ISZERO PUSH2 0x135 JUMPI PUSH1 0x0 DUP1 SLOAD PUSH2 0xFF00 NOT AND PUSH2 0x100 OR SWAP1 SSTORE JUMPDEST DUP1 ISZERO PUSH2 0x17B JUMPI PUSH1 0x0 DUP1 SLOAD PUSH2 0xFF00 NOT AND SWAP1 SSTORE PUSH1 0x40 MLOAD PUSH1 0x1 DUP2 MSTORE PUSH32 0x7F26B83FF96E1F2B6A682F133852F6798A09C465DA95921460CEFB3847402498 SWAP1 PUSH1 0x20 ADD PUSH1 0x40 MLOAD DUP1 SWAP2 SUB SWAP1 LOG1 JUMPDEST POP JUMP JUMPDEST PUSH1 0x1 PUSH1 0x20 MSTORE DUP3 PUSH1 0x0 MSTORE PUSH1 0x40 PUSH1 0x0 KECCAK256 PUSH1 0x20 MSTORE DUP2 PUSH1 0x0 MSTORE PUSH1 0x40 PUSH1 0x0 KECCAK256 DUP2 DUP2 SLOAD DUP2 LT PUSH2 0x1A6 JUMPI PUSH1 0x0 DUP1 REVERT JUMPDEST PUSH1 0x0 SWAP2 DUP3 MSTORE PUSH1 0x20 SWAP1 SWAP2 KECCAK256 PUSH1 0x6 SWAP1 SWAP2 MUL ADD DUP1 SLOAD PUSH1 0x1 DUP3 ADD SLOAD PUSH1 0x2 DUP4 ADD DUP1 SLOAD SWAP3 SWAP7 POP PUSH1 0x1 PUSH1 0x1 PUSH1 0xA0 SHL SUB SWAP1 SWAP2 AND SWAP5 POP SWAP2 SWAP3 POP PUSH2 0x1DF SWAP1 PUSH2 0x336 JUMP JUMPDEST DUP1 PUSH1 0x1F ADD PUSH1 0x20 DUP1 SWAP2 DIV MUL PUSH1 0x20 ADD PUSH1 0x40 MLOAD SWAP1 DUP2 ADD PUSH1 0x40 MSTORE DUP1 SWAP3 SWAP2 SWAP1 DUP2 DUP2 MSTORE PUSH1 0x20 ADD DUP3 DUP1 SLOAD PUSH2 0x20B SWAP1 PUSH2 0x336 JUMP JUMPDEST DUP1 ISZERO PUSH2 0x258 JUMPI DUP1 PUSH1 0x1F LT PUSH2 0x22D JUMPI PUSH2 0x100 DUP1 DUP4 SLOAD DIV MUL DUP4 MSTORE SWAP2 PUSH1 0x20 ADD SWAP2 PUSH2 0x258 JUMP JUMPDEST DUP3 ADD SWAP2 SWAP1 PUSH1 0x0 MSTORE PUSH1 0x20 PUSH1 0x0 KECCAK256 SWAP1 JUMPDEST DUP2 SLOAD DUP2 MSTORE SWAP1 PUSH1 0x1 ADD SWAP1 PUSH1 0x20 ADD DUP1 DUP4 GT PUSH2 0x23B JUMPI DUP3 SWAP1 SUB PUSH1 0x1F AND DUP3 ADD SWAP2 JUMPDEST POP POP POP PUSH1 0x3 SWAP1 SWAP4 ADD SLOAD SWAP2 SWAP3 POP POP PUSH1 0xFF AND DUP5 JUMP JUMPDEST PUSH1 0x0 DUP1 PUSH1 0x0 PUSH1 0x60 DUP5 DUP7 SUB SLT ISZERO PUSH2 0x280 JUMPI PUSH1 0x0 DUP1 REVERT JUMPDEST DUP4 CALLDATALOAD PUSH1 0x1 PUSH1 0x1 PUSH1 0xA0 SHL SUB DUP2 AND DUP2 EQ PUSH2 0x297 JUMPI PUSH1 0x0 DUP1 REVERT JUMPDEST SWAP6 PUSH1 0x20 DUP6 ADD CALLDATALOAD SWAP6 POP PUSH1 0x40 SWAP1 SWAP5 ADD CALLDATALOAD SWAP4 SWAP3 POP POP POP JUMP JUMPDEST DUP5 DUP2 MSTORE PUSH1 0x0 PUSH1 0x20 PUSH1 0x1 DUP1 PUSH1 0xA0 SHL SUB DUP7 AND DUP2 DUP5 ADD MSTORE PUSH1 0x80 PUSH1 0x40 DUP5 ADD MSTORE DUP5 MLOAD DUP1 PUSH1 0x80 DUP6 ADD MSTORE PUSH1 0x0 JUMPDEST DUP2 DUP2 LT ISZERO PUSH2 0x2EE JUMPI DUP7 DUP2 ADD DUP4 ADD MLOAD DUP6 DUP3 ADD PUSH1 0xA0 ADD MSTORE DUP3 ADD PUSH2 0x2D2 JUMP JUMPDEST POP PUSH1 0x0 PUSH1 0xA0 DUP3 DUP7 ADD ADD MSTORE PUSH1 0xA0 PUSH1 0x1F NOT PUSH1 0x1F DUP4 ADD AND DUP6 ADD ADD SWAP3 POP POP POP PUSH1 0x1 DUP4 LT PUSH2 0x327 JUMPI PUSH4 0x4E487B71 PUSH1 0xE0 SHL PUSH1 0x0 MSTORE PUSH1 0x21 PUSH1 0x4 MSTORE PUSH1 0x24 PUSH1 0x0 REVERT JUMPDEST DUP3 PUSH1 0x60 DUP4 ADD MSTORE SWAP6 SWAP5 POP POP POP POP POP JUMP JUMPDEST PUSH1 0x1 DUP2 DUP2 SHR SWAP1 DUP3 AND DUP1 PUSH2 0x34A JUMPI PUSH1 0x7F DUP3 AND SWAP2 POP JUMPDEST PUSH1 0x20 DUP3 LT DUP2 SUB PUSH2 0x36A JUMPI PUSH4 0x4E487B71 PUSH1 0xE0 SHL PUSH1 0x0 MSTORE PUSH1 0x22 PUSH1 0x4 MSTORE PUSH1 0x24 PUSH1 0x0 REVERT JUMPDEST POP SWAP2 SWAP1 POP JUMP INVALID LOG2 PUSH5 0x6970667358 0x22 SLT KECCAK256 0xB1 0xAF SSTORE DIV SWAP12 0xDA CALLVALUE PUSH22 0xEA7267277192CADA562D94505C05394A5B0F0527274D MUL 0xD PUSH5 0x736F6C6343 STOP ADDMOD GT STOP CALLER "},"methodIdentifiers":{"competitions(address,uint256,uint256)":"f182acae","initialize()":"8129fc1c"}},"storageLayout":{"storage":[{"astId":6,"contract":"contracts/MeerkatV1.sol:MeerkatV1","label":"_initialized","offset":0,"slot":"0","type":"t_uint8"},{"astId":9,"contract":"contracts/MeerkatV1.sol:MeerkatV1","label":"_initializing","offset":1,"slot":"0","type":"t_bool"},{"astId":557,"contract":"contracts/MeerkatV1.sol:MeerkatV1","label":"competitions","offset":0,"slot":"1","type":"t_mapping(t_address,t_mapping(t_uint256,t_array(t_struct(Competition)521_storage)dyn_storage))"}],"types":{"t_address":{"encoding":"inplace","label":"address","numberOfBytes":"20"},"t_array(t_struct(Competition)521_storage)dyn_storage":{"base":"t_struct(Competition)521_storage","encoding":"dynamic_array","label":"struct MeerkatV1.Competition[]","numberOfBytes":"32"},"t_array(t_struct(Game)542_storage)dyn_storage":{"base":"t_struct(Game)542_storage","encoding":"dynamic_array","label":"struct MeerkatV1.Game[]","numberOfBytes":"32"},"t_array(t_struct(Prediction)549_storage)dyn_storage":{"base":"t_struct(Prediction)549_storage","encoding":"dynamic_array","label":"struct MeerkatV1.Prediction[]","numberOfBytes":"32"},"t_bool":{"encoding":"inplace","label":"bool","numberOfBytes":"1"},"t_enum(Sport)523":{"encoding":"inplace","label":"enum MeerkatV1.Sport","numberOfBytes":"1"},"t_mapping(t_address,t_mapping(t_uint256,t_array(t_struct(Competition)521_storage)dyn_storage))":{"encoding":"mapping","key":"t_address","label":"mapping(address => mapping(uint256 => struct MeerkatV1.Competition[]))","numberOfBytes":"32","value":"t_mapping(t_uint256,t_array(t_struct(Competition)521_storage)dyn_storage)"},"t_mapping(t_uint256,t_array(t_struct(Competition)521_storage)dyn_storage)":{"encoding":"mapping","key":"t_uint256","label":"mapping(uint256 => struct MeerkatV1.Competition[])","numberOfBytes":"32","value":"t_array(t_struct(Competition)521_storage)dyn_storage"},"t_string_storage":{"encoding":"bytes","label":"string","numberOfBytes":"32"},"t_struct(Competition)521_storage":{"encoding":"inplace","label":"struct MeerkatV1.Competition","members":[{"astId":505,"contract":"contracts/MeerkatV1.sol:MeerkatV1","label":"id","offset":0,"slot":"0","type":"t_uint256"},{"astId":507,"contract":"contracts/MeerkatV1.sol:MeerkatV1","label":"owner","offset":0,"slot":"1","type":"t_address"},{"astId":509,"contract":"contracts/MeerkatV1.sol:MeerkatV1","label":"name","offset":0,"slot":"2","type":"t_string_storage"},{"astId":512,"contract":"contracts/MeerkatV1.sol:MeerkatV1","label":"sport","offset":0,"slot":"3","type":"t_enum(Sport)523"},{"astId":516,"contract":"contracts/MeerkatV1.sol:MeerkatV1","label":"games","offset":0,"slot":"4","type":"t_array(t_struct(Game)542_storage)dyn_storage"},{"astId":520,"contract":"contracts/MeerkatV1.sol:MeerkatV1","label":"predictions","offset":0,"slot":"5","type":"t_array(t_struct(Prediction)549_storage)dyn_storage"}],"numberOfBytes":"192"},"t_struct(Game)542_storage":{"encoding":"inplace","label":"struct MeerkatV1.Game","members":[{"astId":525,"contract":"contracts/MeerkatV1.sol:MeerkatV1","label":"id","offset":0,"slot":"0","type":"t_uint256"},{"astId":527,"contract":"contracts/MeerkatV1.sol:MeerkatV1","label":"home","offset":0,"slot":"1","type":"t_string_storage"},{"astId":529,"contract":"contracts/MeerkatV1.sol:MeerkatV1","label":"away","offset":0,"slot":"2","type":"t_string_storage"},{"astId":531,"contract":"contracts/MeerkatV1.sol:MeerkatV1","label":"startTime","offset":0,"slot":"3","type":"t_uint256"},{"astId":533,"contract":"contracts/MeerkatV1.sol:MeerkatV1","label":"homeScore","offset":0,"slot":"4","type":"t_uint8"},{"astId":535,"contract":"contracts/MeerkatV1.sol:MeerkatV1","label":"awayScore","offset":1,"slot":"4","type":"t_uint8"},{"astId":537,"contract":"contracts/MeerkatV1.sol:MeerkatV1","label":"isStarted","offset":2,"slot":"4","type":"t_bool"},{"astId":539,"contract":"contracts/MeerkatV1.sol:MeerkatV1","label":"isFinished","offset":3,"slot":"4","type":"t_bool"},{"astId":541,"contract":"contracts/MeerkatV1.sol:MeerkatV1","label":"isCancelled","offset":4,"slot":"4","type":"t_bool"}],"numberOfBytes":"160"},"t_struct(Prediction)549_storage":{"encoding":"inplace","label":"struct MeerkatV1.Prediction","members":[{"astId":544,"contract":"contracts/MeerkatV1.sol:MeerkatV1","label":"id","offset":0,"slot":"0","type":"t_uint256"},{"astId":546,"contract":"contracts/MeerkatV1.sol:MeerkatV1","label":"homeScore","offset":0,"slot":"1","type":"t_uint8"},{"astId":548,"contract":"contracts/MeerkatV1.sol:MeerkatV1","label":"awayScore","offset":1,"slot":"1","type":"t_uint8"}],"numberOfBytes":"64"},"t_uint256":{"encoding":"inplace","label":"uint256","numberOfBytes":"32"},"t_uint8":{"encoding":"inplace","label":"uint8","numberOfBytes":"1"}}}}}}