{"contracts/MeerkatV1.sol":{"MeerkatV1":{"abi":[{"anonymous":false,"inputs":[{"indexed":false,"internalType":"uint8","name":"version","type":"uint8"}],"name":"Initialized","type":"event"},{"inputs":[{"internalType":"string","name":"_name","type":"string"}],"name":"addCompetition","outputs":[{"internalType":"uint256","name":"","type":"uint256"}],"stateMutability":"nonpayable","type":"function"},{"inputs":[{"internalType":"uint256","name":"_competitionId","type":"uint256"},{"internalType":"string","name":"_homeCompetitor","type":"string"},{"internalType":"string","name":"_awayCompetitor","type":"string"},{"internalType":"uint256","name":"_startTime","type":"uint256"}],"name":"addGame","outputs":[],"stateMutability":"nonpayable","type":"function"},{"inputs":[{"internalType":"address","name":"","type":"address"},{"internalType":"uint256","name":"","type":"uint256"}],"name":"competitions","outputs":[{"internalType":"uint256","name":"id","type":"uint256"},{"internalType":"address","name":"owner","type":"address"},{"internalType":"string","name":"name","type":"string"}],"stateMutability":"view","type":"function"},{"inputs":[{"internalType":"uint256","name":"_competitionId","type":"uint256"}],"name":"deleteCompetition","outputs":[],"stateMutability":"nonpayable","type":"function"},{"inputs":[{"internalType":"uint256","name":"","type":"uint256"},{"internalType":"uint256","name":"","type":"uint256"}],"name":"games","outputs":[{"internalType":"uint256","name":"id","type":"uint256"},{"internalType":"uint256","name":"competitionId","type":"uint256"},{"internalType":"string","name":"homeCompetitor","type":"string"},{"internalType":"string","name":"awayCompetitor","type":"string"},{"internalType":"uint256","name":"startTime","type":"uint256"},{"internalType":"uint8","name":"homeScore","type":"uint8"},{"internalType":"uint8","name":"awayScore","type":"uint8"}],"stateMutability":"view","type":"function"},{"inputs":[{"internalType":"uint256","name":"_competitionId","type":"uint256"}],"name":"getCompetition","outputs":[{"internalType":"uint256","name":"","type":"uint256"},{"internalType":"address","name":"","type":"address"},{"internalType":"string","name":"","type":"string"}],"stateMutability":"view","type":"function"},{"inputs":[{"internalType":"uint256","name":"_competitionId","type":"uint256"}],"name":"getGames","outputs":[{"components":[{"internalType":"uint256","name":"id","type":"uint256"},{"internalType":"uint256","name":"competitionId","type":"uint256"},{"internalType":"string","name":"homeCompetitor","type":"string"},{"internalType":"string","name":"awayCompetitor","type":"string"},{"internalType":"uint256","name":"startTime","type":"uint256"},{"internalType":"uint8","name":"homeScore","type":"uint8"},{"internalType":"uint8","name":"awayScore","type":"uint8"}],"internalType":"struct MeerkatV1.Game[]","name":"","type":"tuple[]"}],"stateMutability":"view","type":"function"},{"inputs":[],"name":"initialize","outputs":[],"stateMutability":"nonpayable","type":"function"},{"inputs":[],"name":"lastCompetitionId","outputs":[{"internalType":"uint256","name":"","type":"uint256"}],"stateMutability":"view","type":"function"},{"inputs":[],"name":"lastGameId","outputs":[{"internalType":"uint256","name":"","type":"uint256"}],"stateMutability":"view","type":"function"},{"inputs":[{"internalType":"uint256","name":"_competitionId","type":"uint256"},{"internalType":"string","name":"_name","type":"string"}],"name":"updateCompetition","outputs":[],"stateMutability":"nonpayable","type":"function"}],"evm":{"bytecode":{"linkReferences":{},"object":"608060405234801561001057600080fd5b50611197806100206000396000f3fe608060405234801561001057600080fd5b50600436106100a95760003560e01c8063931f2ca311610071578063931f2ca31461011c5780639d6aaa7d1461012f578063cf0cefa11461014f578063e553940614610162578063e942f9fe14610188578063f40364661461019157600080fd5b80631f90e3d5146100ae5780633ee9d648146100c35780637178d540146100df5780637efb6ac0146100f25780638129fc1c14610114575b600080fd5b6100c16100bc366004610c81565b6101a4565b005b6100cc60025481565b6040519081526020015b60405180910390f35b6100c16100ed366004610cf6565b6102c3565b610105610100366004610d3d565b610316565b6040516100d693929190610dc5565b6100c16103d6565b6100c161012a366004610df8565b6104e7565b61014261013d366004610df8565b61054e565b6040516100d69190610e11565b6100cc61015d366004610ed4565b61071a565b610175610170366004610f11565b6107ae565b6040516100d69796959493929190610f33565b6100cc60015481565b61010561019f366004610df8565b610924565b6101ad84610a17565b6101d25760405162461bcd60e51b81526004016101c990610f88565b60405180910390fd5b60006040518060e00160405280600260008154809291906101f290610fd6565b909155508152602080820188905260408083018890526060830187905260808301869052600060a0840181905260c09093018390528883526004825280832080546001818101835591855293839020855160069095020193845591840151918301919091558201519192508291600282019061026e9082611085565b50606082015160038201906102839082611085565b506080820151600482015560a08201516005909101805460c09093015160ff9081166101000261ffff199094169216919091179190911790555050505050565b6102cc82610a17565b6102e85760405162461bcd60e51b81526004016101c990610f88565b3360009081526003602090815260408083208584529091529020600281016103108382611085565b50505050565b600360209081526000928352604080842090915290825290208054600182015460028301805492936001600160a01b039092169261035390610ffd565b80601f016020809104026020016040519081016040528092919081815260200182805461037f90610ffd565b80156103cc5780601f106103a1576101008083540402835291602001916103cc565b820191906000526020600020905b8154815290600101906020018083116103af57829003601f168201915b5050505050905083565b600054610100900460ff16158080156103f65750600054600160ff909116105b806104105750303b158015610410575060005460ff166001145b6104735760405162461bcd60e51b815260206004820152602e60248201527f496e697469616c697a61626c653a20636f6e747261637420697320616c72656160448201526d191e481a5b9a5d1a585b1a5e995960921b60648201526084016101c9565b6000805460ff191660011790558015610496576000805461ff0019166101001790555b600180805560025580156104e4576000805461ff0019169055604051600181527f7f26b83ff96e1f2b6a682f133852f6798a09c465da95921460cefb38474024989060200160405180910390a15b50565b6104f081610a17565b61050c5760405162461bcd60e51b81526004016101c990610f88565b33600090815260036020908152604080832084845290915281208181556001810180546001600160a01b0319169055906105496002830182610b90565b505050565b6000818152600460209081526040808320805482518185028101850190935280835260609493849084015b8282101561070e57838290600052602060002090600602016040518060e001604052908160008201548152602001600182015481526020016002820180546105c090610ffd565b80601f01602080910402602001604051908101604052809291908181526020018280546105ec90610ffd565b80156106395780601f1061060e57610100808354040283529160200191610639565b820191906000526020600020905b81548152906001019060200180831161061c57829003601f168201915b5050505050815260200160038201805461065290610ffd565b80601f016020809104026020016040519081016040528092919081815260200182805461067e90610ffd565b80156106cb5780601f106106a0576101008083540402835291602001916106cb565b820191906000526020600020905b8154815290600101906020018083116106ae57829003601f168201915b5050509183525050600482015460208083019190915260059092015460ff8082166040840152610100909104166060909101529082526001929092019101610579565b50929695505050505050565b600180546000918291908261072e83610fd6565b9091555060408051606081018252828152336020808301828152838501898152600093845260038352858420878552909252939091208251815592516001840180546001600160a01b0319166001600160a01b03909216919091179055519293509182919060028201906107a29082611085565b50509051949350505050565b600460205281600052604060002081815481106107ca57600080fd5b9060005260206000209060060201600091509150508060000154908060010154908060020180546107fa90610ffd565b80601f016020809104026020016040519081016040528092919081815260200182805461082690610ffd565b80156108735780601f1061084857610100808354040283529160200191610873565b820191906000526020600020905b81548152906001019060200180831161085657829003601f168201915b50505050509080600301805461088890610ffd565b80601f01602080910402602001604051908101604052809291908181526020018280546108b490610ffd565b80156109015780601f106108d657610100808354040283529160200191610901565b820191906000526020600020905b8154815290600101906020018083116108e457829003601f168201915b50505050600483015460059093015491929160ff80821692506101009091041687565b33600090815260036020908152604080832084845282528083208151606081810184528254825260018301546001600160a01b0316948201949094526002820180548695948694929084019161097990610ffd565b80601f01602080910402602001604051908101604052809291908181526020018280546109a590610ffd565b80156109f25780601f106109c7576101008083540402835291602001916109f2565b820191906000526020600020905b8154815290600101906020018083116109d557829003601f168201915b5050509190925250508151602083015160409093015190989297509550909350505050565b336000908152600360209081526040808320848452825280832081516060810183528154815260018201546001600160a01b03169381019390935260028101805485949384019190610a6890610ffd565b80601f0160208091040260200160405190810160405280929190818152602001828054610a9490610ffd565b8015610ae15780601f10610ab657610100808354040283529160200191610ae1565b820191906000526020600020905b815481529060010190602001808311610ac457829003601f168201915b50505091909252505081519192505015801590610b0a575060208101516001600160a01b031615155b8015610b305750610b2e816040015160405180602001604052806000815250610b37565b155b9392505050565b600081604051602001610b4a9190611145565b6040516020818303038152906040528051906020012083604051602001610b719190611145565b6040516020818303038152906040528051906020012014905092915050565b508054610b9c90610ffd565b6000825580601f10610bac575050565b601f0160209004906000526020600020908101906104e491905b80821115610bda5760008155600101610bc6565b5090565b634e487b7160e01b600052604160045260246000fd5b600082601f830112610c0557600080fd5b813567ffffffffffffffff80821115610c2057610c20610bde565b604051601f8301601f19908116603f01168101908282118183101715610c4857610c48610bde565b81604052838152866020858801011115610c6157600080fd5b836020870160208301376000602085830101528094505050505092915050565b60008060008060808587031215610c9757600080fd5b84359350602085013567ffffffffffffffff80821115610cb657600080fd5b610cc288838901610bf4565b94506040870135915080821115610cd857600080fd5b50610ce587828801610bf4565b949793965093946060013593505050565b60008060408385031215610d0957600080fd5b82359150602083013567ffffffffffffffff811115610d2757600080fd5b610d3385828601610bf4565b9150509250929050565b60008060408385031215610d5057600080fd5b82356001600160a01b0381168114610d6757600080fd5b946020939093013593505050565b60005b83811015610d90578181015183820152602001610d78565b50506000910152565b60008151808452610db1816020860160208601610d75565b601f01601f19169290920160200192915050565b8381526001600160a01b0383166020820152606060408201819052600090610def90830184610d99565b95945050505050565b600060208284031215610e0a57600080fd5b5035919050565b60006020808301818452808551808352604092508286019150828160051b87010184880160005b83811015610ec657603f19898403018552815160e0815185528882015189860152878201518189870152610e6e82870182610d99565b91505060608083015186830382880152610e888382610d99565b6080858101519089015260a08086015160ff908116918a019190915260c0958601511694909701939093525050509386019390860190600101610e38565b509098975050505050505050565b600060208284031215610ee657600080fd5b813567ffffffffffffffff811115610efd57600080fd5b610f0984828501610bf4565b949350505050565b60008060408385031215610f2457600080fd5b50508035926020909101359150565b87815286602082015260e060408201526000610f5260e0830188610d99565b8281036060840152610f648188610d99565b6080840196909652505060ff92831660a0820152911660c090910152949350505050565b6020808252602e908201527f436f6d7065746974696f6e206f776e656420627920746869732075736572206460408201526d6f6573206e6f742065786973742160901b606082015260800190565b600060018201610ff657634e487b7160e01b600052601160045260246000fd5b5060010190565b600181811c9082168061101157607f821691505b60208210810361103157634e487b7160e01b600052602260045260246000fd5b50919050565b601f82111561054957600081815260208120601f850160051c8101602086101561105e5750805b601f850160051c820191505b8181101561107d5782815560010161106a565b505050505050565b815167ffffffffffffffff81111561109f5761109f610bde565b6110b3816110ad8454610ffd565b84611037565b602080601f8311600181146110e857600084156110d05750858301515b600019600386901b1c1916600185901b17855561107d565b600085815260208120601f198616915b82811015611117578886015182559484019460019091019084016110f8565b50858210156111355787850151600019600388901b60f8161c191681555b5050505050600190811b01905550565b60008251611157818460208701610d75565b919091019291505056fea26469706673582212200da89094df38b40b2904edf214415051bb056dec0326783f6b9798b714e3f9cc64736f6c63430008110033","opcodes":"PUSH1 0x80 PUSH1 0x40 MSTORE CALLVALUE DUP1 ISZERO PUSH2 0x10 JUMPI PUSH1 0x0 DUP1 REVERT JUMPDEST POP PUSH2 0x1197 DUP1 PUSH2 0x20 PUSH1 0x0 CODECOPY PUSH1 0x0 RETURN INVALID PUSH1 0x80 PUSH1 0x40 MSTORE CALLVALUE DUP1 ISZERO PUSH2 0x10 JUMPI PUSH1 0x0 DUP1 REVERT JUMPDEST POP PUSH1 0x4 CALLDATASIZE LT PUSH2 0xA9 JUMPI PUSH1 0x0 CALLDATALOAD PUSH1 0xE0 SHR DUP1 PUSH4 0x931F2CA3 GT PUSH2 0x71 JUMPI DUP1 PUSH4 0x931F2CA3 EQ PUSH2 0x11C JUMPI DUP1 PUSH4 0x9D6AAA7D EQ PUSH2 0x12F JUMPI DUP1 PUSH4 0xCF0CEFA1 EQ PUSH2 0x14F JUMPI DUP1 PUSH4 0xE5539406 EQ PUSH2 0x162 JUMPI DUP1 PUSH4 0xE942F9FE EQ PUSH2 0x188 JUMPI DUP1 PUSH4 0xF4036466 EQ PUSH2 0x191 JUMPI PUSH1 0x0 DUP1 REVERT JUMPDEST DUP1 PUSH4 0x1F90E3D5 EQ PUSH2 0xAE JUMPI DUP1 PUSH4 0x3EE9D648 EQ PUSH2 0xC3 JUMPI DUP1 PUSH4 0x7178D540 EQ PUSH2 0xDF JUMPI DUP1 PUSH4 0x7EFB6AC0 EQ PUSH2 0xF2 JUMPI DUP1 PUSH4 0x8129FC1C EQ PUSH2 0x114 JUMPI JUMPDEST PUSH1 0x0 DUP1 REVERT JUMPDEST PUSH2 0xC1 PUSH2 0xBC CALLDATASIZE PUSH1 0x4 PUSH2 0xC81 JUMP JUMPDEST PUSH2 0x1A4 JUMP JUMPDEST STOP JUMPDEST PUSH2 0xCC PUSH1 0x2 SLOAD DUP2 JUMP JUMPDEST PUSH1 0x40 MLOAD SWAP1 DUP2 MSTORE PUSH1 0x20 ADD JUMPDEST PUSH1 0x40 MLOAD DUP1 SWAP2 SUB SWAP1 RETURN JUMPDEST PUSH2 0xC1 PUSH2 0xED CALLDATASIZE PUSH1 0x4 PUSH2 0xCF6 JUMP JUMPDEST PUSH2 0x2C3 JUMP JUMPDEST PUSH2 0x105 PUSH2 0x100 CALLDATASIZE PUSH1 0x4 PUSH2 0xD3D JUMP JUMPDEST PUSH2 0x316 JUMP JUMPDEST PUSH1 0x40 MLOAD PUSH2 0xD6 SWAP4 SWAP3 SWAP2 SWAP1 PUSH2 0xDC5 JUMP JUMPDEST PUSH2 0xC1 PUSH2 0x3D6 JUMP JUMPDEST PUSH2 0xC1 PUSH2 0x12A CALLDATASIZE PUSH1 0x4 PUSH2 0xDF8 JUMP JUMPDEST PUSH2 0x4E7 JUMP JUMPDEST PUSH2 0x142 PUSH2 0x13D CALLDATASIZE PUSH1 0x4 PUSH2 0xDF8 JUMP JUMPDEST PUSH2 0x54E JUMP JUMPDEST PUSH1 0x40 MLOAD PUSH2 0xD6 SWAP2 SWAP1 PUSH2 0xE11 JUMP JUMPDEST PUSH2 0xCC PUSH2 0x15D CALLDATASIZE PUSH1 0x4 PUSH2 0xED4 JUMP JUMPDEST PUSH2 0x71A JUMP JUMPDEST PUSH2 0x175 PUSH2 0x170 CALLDATASIZE PUSH1 0x4 PUSH2 0xF11 JUMP JUMPDEST PUSH2 0x7AE JUMP JUMPDEST PUSH1 0x40 MLOAD PUSH2 0xD6 SWAP8 SWAP7 SWAP6 SWAP5 SWAP4 SWAP3 SWAP2 SWAP1 PUSH2 0xF33 JUMP JUMPDEST PUSH2 0xCC PUSH1 0x1 SLOAD DUP2 JUMP JUMPDEST PUSH2 0x105 PUSH2 0x19F CALLDATASIZE PUSH1 0x4 PUSH2 0xDF8 JUMP JUMPDEST PUSH2 0x924 JUMP JUMPDEST PUSH2 0x1AD DUP5 PUSH2 0xA17 JUMP JUMPDEST PUSH2 0x1D2 JUMPI PUSH1 0x40 MLOAD PUSH3 0x461BCD PUSH1 0xE5 SHL DUP2 MSTORE PUSH1 0x4 ADD PUSH2 0x1C9 SWAP1 PUSH2 0xF88 JUMP JUMPDEST PUSH1 0x40 MLOAD DUP1 SWAP2 SUB SWAP1 REVERT JUMPDEST PUSH1 0x0 PUSH1 0x40 MLOAD DUP1 PUSH1 0xE0 ADD PUSH1 0x40 MSTORE DUP1 PUSH1 0x2 PUSH1 0x0 DUP2 SLOAD DUP1 SWAP3 SWAP2 SWAP1 PUSH2 0x1F2 SWAP1 PUSH2 0xFD6 JUMP JUMPDEST SWAP1 SWAP2 SSTORE POP DUP2 MSTORE PUSH1 0x20 DUP1 DUP3 ADD DUP9 SWAP1 MSTORE PUSH1 0x40 DUP1 DUP4 ADD DUP9 SWAP1 MSTORE PUSH1 0x60 DUP4 ADD DUP8 SWAP1 MSTORE PUSH1 0x80 DUP4 ADD DUP7 SWAP1 MSTORE PUSH1 0x0 PUSH1 0xA0 DUP5 ADD DUP2 SWAP1 MSTORE PUSH1 0xC0 SWAP1 SWAP4 ADD DUP4 SWAP1 MSTORE DUP9 DUP4 MSTORE PUSH1 0x4 DUP3 MSTORE DUP1 DUP4 KECCAK256 DUP1 SLOAD PUSH1 0x1 DUP2 DUP2 ADD DUP4 SSTORE SWAP2 DUP6 MSTORE SWAP4 DUP4 SWAP1 KECCAK256 DUP6 MLOAD PUSH1 0x6 SWAP1 SWAP6 MUL ADD SWAP4 DUP5 SSTORE SWAP2 DUP5 ADD MLOAD SWAP2 DUP4 ADD SWAP2 SWAP1 SWAP2 SSTORE DUP3 ADD MLOAD SWAP2 SWAP3 POP DUP3 SWAP2 PUSH1 0x2 DUP3 ADD SWAP1 PUSH2 0x26E SWAP1 DUP3 PUSH2 0x1085 JUMP JUMPDEST POP PUSH1 0x60 DUP3 ADD MLOAD PUSH1 0x3 DUP3 ADD SWAP1 PUSH2 0x283 SWAP1 DUP3 PUSH2 0x1085 JUMP JUMPDEST POP PUSH1 0x80 DUP3 ADD MLOAD PUSH1 0x4 DUP3 ADD SSTORE PUSH1 0xA0 DUP3 ADD MLOAD PUSH1 0x5 SWAP1 SWAP2 ADD DUP1 SLOAD PUSH1 0xC0 SWAP1 SWAP4 ADD MLOAD PUSH1 0xFF SWAP1 DUP2 AND PUSH2 0x100 MUL PUSH2 0xFFFF NOT SWAP1 SWAP5 AND SWAP3 AND SWAP2 SWAP1 SWAP2 OR SWAP2 SWAP1 SWAP2 OR SWAP1 SSTORE POP POP POP POP POP JUMP JUMPDEST PUSH2 0x2CC DUP3 PUSH2 0xA17 JUMP JUMPDEST PUSH2 0x2E8 JUMPI PUSH1 0x40 MLOAD PUSH3 0x461BCD PUSH1 0xE5 SHL DUP2 MSTORE PUSH1 0x4 ADD PUSH2 0x1C9 SWAP1 PUSH2 0xF88 JUMP JUMPDEST CALLER PUSH1 0x0 SWAP1 DUP2 MSTORE PUSH1 0x3 PUSH1 0x20 SWAP1 DUP2 MSTORE PUSH1 0x40 DUP1 DUP4 KECCAK256 DUP6 DUP5 MSTORE SWAP1 SWAP2 MSTORE SWAP1 KECCAK256 PUSH1 0x2 DUP2 ADD PUSH2 0x310 DUP4 DUP3 PUSH2 0x1085 JUMP JUMPDEST POP POP POP POP JUMP JUMPDEST PUSH1 0x3 PUSH1 0x20 SWAP1 DUP2 MSTORE PUSH1 0x0 SWAP3 DUP4 MSTORE PUSH1 0x40 DUP1 DUP5 KECCAK256 SWAP1 SWAP2 MSTORE SWAP1 DUP3 MSTORE SWAP1 KECCAK256 DUP1 SLOAD PUSH1 0x1 DUP3 ADD SLOAD PUSH1 0x2 DUP4 ADD DUP1 SLOAD SWAP3 SWAP4 PUSH1 0x1 PUSH1 0x1 PUSH1 0xA0 SHL SUB SWAP1 SWAP3 AND SWAP3 PUSH2 0x353 SWAP1 PUSH2 0xFFD JUMP JUMPDEST DUP1 PUSH1 0x1F ADD PUSH1 0x20 DUP1 SWAP2 DIV MUL PUSH1 0x20 ADD PUSH1 0x40 MLOAD SWAP1 DUP2 ADD PUSH1 0x40 MSTORE DUP1 SWAP3 SWAP2 SWAP1 DUP2 DUP2 MSTORE PUSH1 0x20 ADD DUP3 DUP1 SLOAD PUSH2 0x37F SWAP1 PUSH2 0xFFD JUMP JUMPDEST DUP1 ISZERO PUSH2 0x3CC JUMPI DUP1 PUSH1 0x1F LT PUSH2 0x3A1 JUMPI PUSH2 0x100 DUP1 DUP4 SLOAD DIV MUL DUP4 MSTORE SWAP2 PUSH1 0x20 ADD SWAP2 PUSH2 0x3CC JUMP JUMPDEST DUP3 ADD SWAP2 SWAP1 PUSH1 0x0 MSTORE PUSH1 0x20 PUSH1 0x0 KECCAK256 SWAP1 JUMPDEST DUP2 SLOAD DUP2 MSTORE SWAP1 PUSH1 0x1 ADD SWAP1 PUSH1 0x20 ADD DUP1 DUP4 GT PUSH2 0x3AF JUMPI DUP3 SWAP1 SUB PUSH1 0x1F AND DUP3 ADD SWAP2 JUMPDEST POP POP POP POP POP SWAP1 POP DUP4 JUMP JUMPDEST PUSH1 0x0 SLOAD PUSH2 0x100 SWAP1 DIV PUSH1 0xFF AND ISZERO DUP1 DUP1 ISZERO PUSH2 0x3F6 JUMPI POP PUSH1 0x0 SLOAD PUSH1 0x1 PUSH1 0xFF SWAP1 SWAP2 AND LT JUMPDEST DUP1 PUSH2 0x410 JUMPI POP ADDRESS EXTCODESIZE ISZERO DUP1 ISZERO PUSH2 0x410 JUMPI POP PUSH1 0x0 SLOAD PUSH1 0xFF AND PUSH1 0x1 EQ JUMPDEST PUSH2 0x473 JUMPI PUSH1 0x40 MLOAD PUSH3 0x461BCD PUSH1 0xE5 SHL DUP2 MSTORE PUSH1 0x20 PUSH1 0x4 DUP3 ADD MSTORE PUSH1 0x2E PUSH1 0x24 DUP3 ADD MSTORE PUSH32 0x496E697469616C697A61626C653A20636F6E747261637420697320616C726561 PUSH1 0x44 DUP3 ADD MSTORE PUSH14 0x191E481A5B9A5D1A585B1A5E9959 PUSH1 0x92 SHL PUSH1 0x64 DUP3 ADD MSTORE PUSH1 0x84 ADD PUSH2 0x1C9 JUMP JUMPDEST PUSH1 0x0 DUP1 SLOAD PUSH1 0xFF NOT AND PUSH1 0x1 OR SWAP1 SSTORE DUP1 ISZERO PUSH2 0x496 JUMPI PUSH1 0x0 DUP1 SLOAD PUSH2 0xFF00 NOT AND PUSH2 0x100 OR SWAP1 SSTORE JUMPDEST PUSH1 0x1 DUP1 DUP1 SSTORE PUSH1 0x2 SSTORE DUP1 ISZERO PUSH2 0x4E4 JUMPI PUSH1 0x0 DUP1 SLOAD PUSH2 0xFF00 NOT AND SWAP1 SSTORE PUSH1 0x40 MLOAD PUSH1 0x1 DUP2 MSTORE PUSH32 0x7F26B83FF96E1F2B6A682F133852F6798A09C465DA95921460CEFB3847402498 SWAP1 PUSH1 0x20 ADD PUSH1 0x40 MLOAD DUP1 SWAP2 SUB SWAP1 LOG1 JUMPDEST POP JUMP JUMPDEST PUSH2 0x4F0 DUP2 PUSH2 0xA17 JUMP JUMPDEST PUSH2 0x50C JUMPI PUSH1 0x40 MLOAD PUSH3 0x461BCD PUSH1 0xE5 SHL DUP2 MSTORE PUSH1 0x4 ADD PUSH2 0x1C9 SWAP1 PUSH2 0xF88 JUMP JUMPDEST CALLER PUSH1 0x0 SWAP1 DUP2 MSTORE PUSH1 0x3 PUSH1 0x20 SWAP1 DUP2 MSTORE PUSH1 0x40 DUP1 DUP4 KECCAK256 DUP5 DUP5 MSTORE SWAP1 SWAP2 MSTORE DUP2 KECCAK256 DUP2 DUP2 SSTORE PUSH1 0x1 DUP2 ADD DUP1 SLOAD PUSH1 0x1 PUSH1 0x1 PUSH1 0xA0 SHL SUB NOT AND SWAP1 SSTORE SWAP1 PUSH2 0x549 PUSH1 0x2 DUP4 ADD DUP3 PUSH2 0xB90 JUMP JUMPDEST POP POP POP JUMP JUMPDEST PUSH1 0x0 DUP2 DUP2 MSTORE PUSH1 0x4 PUSH1 0x20 SWAP1 DUP2 MSTORE PUSH1 0x40 DUP1 DUP4 KECCAK256 DUP1 SLOAD DUP3 MLOAD DUP2 DUP6 MUL DUP2 ADD DUP6 ADD SWAP1 SWAP4 MSTORE DUP1 DUP4 MSTORE PUSH1 0x60 SWAP5 SWAP4 DUP5 SWAP1 DUP5 ADD JUMPDEST DUP3 DUP3 LT ISZERO PUSH2 0x70E JUMPI DUP4 DUP3 SWAP1 PUSH1 0x0 MSTORE PUSH1 0x20 PUSH1 0x0 KECCAK256 SWAP1 PUSH1 0x6 MUL ADD PUSH1 0x40 MLOAD DUP1 PUSH1 0xE0 ADD PUSH1 0x40 MSTORE SWAP1 DUP2 PUSH1 0x0 DUP3 ADD SLOAD DUP2 MSTORE PUSH1 0x20 ADD PUSH1 0x1 DUP3 ADD SLOAD DUP2 MSTORE PUSH1 0x20 ADD PUSH1 0x2 DUP3 ADD DUP1 SLOAD PUSH2 0x5C0 SWAP1 PUSH2 0xFFD JUMP JUMPDEST DUP1 PUSH1 0x1F ADD PUSH1 0x20 DUP1 SWAP2 DIV MUL PUSH1 0x20 ADD PUSH1 0x40 MLOAD SWAP1 DUP2 ADD PUSH1 0x40 MSTORE DUP1 SWAP3 SWAP2 SWAP1 DUP2 DUP2 MSTORE PUSH1 0x20 ADD DUP3 DUP1 SLOAD PUSH2 0x5EC SWAP1 PUSH2 0xFFD JUMP JUMPDEST DUP1 ISZERO PUSH2 0x639 JUMPI DUP1 PUSH1 0x1F LT PUSH2 0x60E JUMPI PUSH2 0x100 DUP1 DUP4 SLOAD DIV MUL DUP4 MSTORE SWAP2 PUSH1 0x20 ADD SWAP2 PUSH2 0x639 JUMP JUMPDEST DUP3 ADD SWAP2 SWAP1 PUSH1 0x0 MSTORE PUSH1 0x20 PUSH1 0x0 KECCAK256 SWAP1 JUMPDEST DUP2 SLOAD DUP2 MSTORE SWAP1 PUSH1 0x1 ADD SWAP1 PUSH1 0x20 ADD DUP1 DUP4 GT PUSH2 0x61C JUMPI DUP3 SWAP1 SUB PUSH1 0x1F AND DUP3 ADD SWAP2 JUMPDEST POP POP POP POP POP DUP2 MSTORE PUSH1 0x20 ADD PUSH1 0x3 DUP3 ADD DUP1 SLOAD PUSH2 0x652 SWAP1 PUSH2 0xFFD JUMP JUMPDEST DUP1 PUSH1 0x1F ADD PUSH1 0x20 DUP1 SWAP2 DIV MUL PUSH1 0x20 ADD PUSH1 0x40 MLOAD SWAP1 DUP2 ADD PUSH1 0x40 MSTORE DUP1 SWAP3 SWAP2 SWAP1 DUP2 DUP2 MSTORE PUSH1 0x20 ADD DUP3 DUP1 SLOAD PUSH2 0x67E SWAP1 PUSH2 0xFFD JUMP JUMPDEST DUP1 ISZERO PUSH2 0x6CB JUMPI DUP1 PUSH1 0x1F LT PUSH2 0x6A0 JUMPI PUSH2 0x100 DUP1 DUP4 SLOAD DIV MUL DUP4 MSTORE SWAP2 PUSH1 0x20 ADD SWAP2 PUSH2 0x6CB JUMP JUMPDEST DUP3 ADD SWAP2 SWAP1 PUSH1 0x0 MSTORE PUSH1 0x20 PUSH1 0x0 KECCAK256 SWAP1 JUMPDEST DUP2 SLOAD DUP2 MSTORE SWAP1 PUSH1 0x1 ADD SWAP1 PUSH1 0x20 ADD DUP1 DUP4 GT PUSH2 0x6AE JUMPI DUP3 SWAP1 SUB PUSH1 0x1F AND DUP3 ADD SWAP2 JUMPDEST POP POP POP SWAP2 DUP4 MSTORE POP POP PUSH1 0x4 DUP3 ADD SLOAD PUSH1 0x20 DUP1 DUP4 ADD SWAP2 SWAP1 SWAP2 MSTORE PUSH1 0x5 SWAP1 SWAP3 ADD SLOAD PUSH1 0xFF DUP1 DUP3 AND PUSH1 0x40 DUP5 ADD MSTORE PUSH2 0x100 SWAP1 SWAP2 DIV AND PUSH1 0x60 SWAP1 SWAP2 ADD MSTORE SWAP1 DUP3 MSTORE PUSH1 0x1 SWAP3 SWAP1 SWAP3 ADD SWAP2 ADD PUSH2 0x579 JUMP JUMPDEST POP SWAP3 SWAP7 SWAP6 POP POP POP POP POP POP JUMP JUMPDEST PUSH1 0x1 DUP1 SLOAD PUSH1 0x0 SWAP2 DUP3 SWAP2 SWAP1 DUP3 PUSH2 0x72E DUP4 PUSH2 0xFD6 JUMP JUMPDEST SWAP1 SWAP2 SSTORE POP PUSH1 0x40 DUP1 MLOAD PUSH1 0x60 DUP2 ADD DUP3 MSTORE DUP3 DUP2 MSTORE CALLER PUSH1 0x20 DUP1 DUP4 ADD DUP3 DUP2 MSTORE DUP4 DUP6 ADD DUP10 DUP2 MSTORE PUSH1 0x0 SWAP4 DUP5 MSTORE PUSH1 0x3 DUP4 MSTORE DUP6 DUP5 KECCAK256 DUP8 DUP6 MSTORE SWAP1 SWAP3 MSTORE SWAP4 SWAP1 SWAP2 KECCAK256 DUP3 MLOAD DUP2 SSTORE SWAP3 MLOAD PUSH1 0x1 DUP5 ADD DUP1 SLOAD PUSH1 0x1 PUSH1 0x1 PUSH1 0xA0 SHL SUB NOT AND PUSH1 0x1 PUSH1 0x1 PUSH1 0xA0 SHL SUB SWAP1 SWAP3 AND SWAP2 SWAP1 SWAP2 OR SWAP1 SSTORE MLOAD SWAP3 SWAP4 POP SWAP2 DUP3 SWAP2 SWAP1 PUSH1 0x2 DUP3 ADD SWAP1 PUSH2 0x7A2 SWAP1 DUP3 PUSH2 0x1085 JUMP JUMPDEST POP POP SWAP1 MLOAD SWAP5 SWAP4 POP POP POP POP JUMP JUMPDEST PUSH1 0x4 PUSH1 0x20 MSTORE DUP2 PUSH1 0x0 MSTORE PUSH1 0x40 PUSH1 0x0 KECCAK256 DUP2 DUP2 SLOAD DUP2 LT PUSH2 0x7CA JUMPI PUSH1 0x0 DUP1 REVERT JUMPDEST SWAP1 PUSH1 0x0 MSTORE PUSH1 0x20 PUSH1 0x0 KECCAK256 SWAP1 PUSH1 0x6 MUL ADD PUSH1 0x0 SWAP2 POP SWAP2 POP POP DUP1 PUSH1 0x0 ADD SLOAD SWAP1 DUP1 PUSH1 0x1 ADD SLOAD SWAP1 DUP1 PUSH1 0x2 ADD DUP1 SLOAD PUSH2 0x7FA SWAP1 PUSH2 0xFFD JUMP JUMPDEST DUP1 PUSH1 0x1F ADD PUSH1 0x20 DUP1 SWAP2 DIV MUL PUSH1 0x20 ADD PUSH1 0x40 MLOAD SWAP1 DUP2 ADD PUSH1 0x40 MSTORE DUP1 SWAP3 SWAP2 SWAP1 DUP2 DUP2 MSTORE PUSH1 0x20 ADD DUP3 DUP1 SLOAD PUSH2 0x826 SWAP1 PUSH2 0xFFD JUMP JUMPDEST DUP1 ISZERO PUSH2 0x873 JUMPI DUP1 PUSH1 0x1F LT PUSH2 0x848 JUMPI PUSH2 0x100 DUP1 DUP4 SLOAD DIV MUL DUP4 MSTORE SWAP2 PUSH1 0x20 ADD SWAP2 PUSH2 0x873 JUMP JUMPDEST DUP3 ADD SWAP2 SWAP1 PUSH1 0x0 MSTORE PUSH1 0x20 PUSH1 0x0 KECCAK256 SWAP1 JUMPDEST DUP2 SLOAD DUP2 MSTORE SWAP1 PUSH1 0x1 ADD SWAP1 PUSH1 0x20 ADD DUP1 DUP4 GT PUSH2 0x856 JUMPI DUP3 SWAP1 SUB PUSH1 0x1F AND DUP3 ADD SWAP2 JUMPDEST POP POP POP POP POP SWAP1 DUP1 PUSH1 0x3 ADD DUP1 SLOAD PUSH2 0x888 SWAP1 PUSH2 0xFFD JUMP JUMPDEST DUP1 PUSH1 0x1F ADD PUSH1 0x20 DUP1 SWAP2 DIV MUL PUSH1 0x20 ADD PUSH1 0x40 MLOAD SWAP1 DUP2 ADD PUSH1 0x40 MSTORE DUP1 SWAP3 SWAP2 SWAP1 DUP2 DUP2 MSTORE PUSH1 0x20 ADD DUP3 DUP1 SLOAD PUSH2 0x8B4 SWAP1 PUSH2 0xFFD JUMP JUMPDEST DUP1 ISZERO PUSH2 0x901 JUMPI DUP1 PUSH1 0x1F LT PUSH2 0x8D6 JUMPI PUSH2 0x100 DUP1 DUP4 SLOAD DIV MUL DUP4 MSTORE SWAP2 PUSH1 0x20 ADD SWAP2 PUSH2 0x901 JUMP JUMPDEST DUP3 ADD SWAP2 SWAP1 PUSH1 0x0 MSTORE PUSH1 0x20 PUSH1 0x0 KECCAK256 SWAP1 JUMPDEST DUP2 SLOAD DUP2 MSTORE SWAP1 PUSH1 0x1 ADD SWAP1 PUSH1 0x20 ADD DUP1 DUP4 GT PUSH2 0x8E4 JUMPI DUP3 SWAP1 SUB PUSH1 0x1F AND DUP3 ADD SWAP2 JUMPDEST POP POP POP POP PUSH1 0x4 DUP4 ADD SLOAD PUSH1 0x5 SWAP1 SWAP4 ADD SLOAD SWAP2 SWAP3 SWAP2 PUSH1 0xFF DUP1 DUP3 AND SWAP3 POP PUSH2 0x100 SWAP1 SWAP2 DIV AND DUP8 JUMP JUMPDEST CALLER PUSH1 0x0 SWAP1 DUP2 MSTORE PUSH1 0x3 PUSH1 0x20 SWAP1 DUP2 MSTORE PUSH1 0x40 DUP1 DUP4 KECCAK256 DUP5 DUP5 MSTORE DUP3 MSTORE DUP1 DUP4 KECCAK256 DUP2 MLOAD PUSH1 0x60 DUP2 DUP2 ADD DUP5 MSTORE DUP3 SLOAD DUP3 MSTORE PUSH1 0x1 DUP4 ADD SLOAD PUSH1 0x1 PUSH1 0x1 PUSH1 0xA0 SHL SUB AND SWAP5 DUP3 ADD SWAP5 SWAP1 SWAP5 MSTORE PUSH1 0x2 DUP3 ADD DUP1 SLOAD DUP7 SWAP6 SWAP5 DUP7 SWAP5 SWAP3 SWAP1 DUP5 ADD SWAP2 PUSH2 0x979 SWAP1 PUSH2 0xFFD JUMP JUMPDEST DUP1 PUSH1 0x1F ADD PUSH1 0x20 DUP1 SWAP2 DIV MUL PUSH1 0x20 ADD PUSH1 0x40 MLOAD SWAP1 DUP2 ADD PUSH1 0x40 MSTORE DUP1 SWAP3 SWAP2 SWAP1 DUP2 DUP2 MSTORE PUSH1 0x20 ADD DUP3 DUP1 SLOAD PUSH2 0x9A5 SWAP1 PUSH2 0xFFD JUMP JUMPDEST DUP1 ISZERO PUSH2 0x9F2 JUMPI DUP1 PUSH1 0x1F LT PUSH2 0x9C7 JUMPI PUSH2 0x100 DUP1 DUP4 SLOAD DIV MUL DUP4 MSTORE SWAP2 PUSH1 0x20 ADD SWAP2 PUSH2 0x9F2 JUMP JUMPDEST DUP3 ADD SWAP2 SWAP1 PUSH1 0x0 MSTORE PUSH1 0x20 PUSH1 0x0 KECCAK256 SWAP1 JUMPDEST DUP2 SLOAD DUP2 MSTORE SWAP1 PUSH1 0x1 ADD SWAP1 PUSH1 0x20 ADD DUP1 DUP4 GT PUSH2 0x9D5 JUMPI DUP3 SWAP1 SUB PUSH1 0x1F AND DUP3 ADD SWAP2 JUMPDEST POP POP POP SWAP2 SWAP1 SWAP3 MSTORE POP POP DUP2 MLOAD PUSH1 0x20 DUP4 ADD MLOAD PUSH1 0x40 SWAP1 SWAP4 ADD MLOAD SWAP1 SWAP9 SWAP3 SWAP8 POP SWAP6 POP SWAP1 SWAP4 POP POP POP POP JUMP JUMPDEST CALLER PUSH1 0x0 SWAP1 DUP2 MSTORE PUSH1 0x3 PUSH1 0x20 SWAP1 DUP2 MSTORE PUSH1 0x40 DUP1 DUP4 KECCAK256 DUP5 DUP5 MSTORE DUP3 MSTORE DUP1 DUP4 KECCAK256 DUP2 MLOAD PUSH1 0x60 DUP2 ADD DUP4 MSTORE DUP2 SLOAD DUP2 MSTORE PUSH1 0x1 DUP3 ADD SLOAD PUSH1 0x1 PUSH1 0x1 PUSH1 0xA0 SHL SUB AND SWAP4 DUP2 ADD SWAP4 SWAP1 SWAP4 MSTORE PUSH1 0x2 DUP2 ADD DUP1 SLOAD DUP6 SWAP5 SWAP4 DUP5 ADD SWAP2 SWAP1 PUSH2 0xA68 SWAP1 PUSH2 0xFFD JUMP JUMPDEST DUP1 PUSH1 0x1F ADD PUSH1 0x20 DUP1 SWAP2 DIV MUL PUSH1 0x20 ADD PUSH1 0x40 MLOAD SWAP1 DUP2 ADD PUSH1 0x40 MSTORE DUP1 SWAP3 SWAP2 SWAP1 DUP2 DUP2 MSTORE PUSH1 0x20 ADD DUP3 DUP1 SLOAD PUSH2 0xA94 SWAP1 PUSH2 0xFFD JUMP JUMPDEST DUP1 ISZERO PUSH2 0xAE1 JUMPI DUP1 PUSH1 0x1F LT PUSH2 0xAB6 JUMPI PUSH2 0x100 DUP1 DUP4 SLOAD DIV MUL DUP4 MSTORE SWAP2 PUSH1 0x20 ADD SWAP2 PUSH2 0xAE1 JUMP JUMPDEST DUP3 ADD SWAP2 SWAP1 PUSH1 0x0 MSTORE PUSH1 0x20 PUSH1 0x0 KECCAK256 SWAP1 JUMPDEST DUP2 SLOAD DUP2 MSTORE SWAP1 PUSH1 0x1 ADD SWAP1 PUSH1 0x20 ADD DUP1 DUP4 GT PUSH2 0xAC4 JUMPI DUP3 SWAP1 SUB PUSH1 0x1F AND DUP3 ADD SWAP2 JUMPDEST POP POP POP SWAP2 SWAP1 SWAP3 MSTORE POP POP DUP2 MLOAD SWAP2 SWAP3 POP POP ISZERO DUP1 ISZERO SWAP1 PUSH2 0xB0A JUMPI POP PUSH1 0x20 DUP2 ADD MLOAD PUSH1 0x1 PUSH1 0x1 PUSH1 0xA0 SHL SUB AND ISZERO ISZERO JUMPDEST DUP1 ISZERO PUSH2 0xB30 JUMPI POP PUSH2 0xB2E DUP2 PUSH1 0x40 ADD MLOAD PUSH1 0x40 MLOAD DUP1 PUSH1 0x20 ADD PUSH1 0x40 MSTORE DUP1 PUSH1 0x0 DUP2 MSTORE POP PUSH2 0xB37 JUMP JUMPDEST ISZERO JUMPDEST SWAP4 SWAP3 POP POP POP JUMP JUMPDEST PUSH1 0x0 DUP2 PUSH1 0x40 MLOAD PUSH1 0x20 ADD PUSH2 0xB4A SWAP2 SWAP1 PUSH2 0x1145 JUMP JUMPDEST PUSH1 0x40 MLOAD PUSH1 0x20 DUP2 DUP4 SUB SUB DUP2 MSTORE SWAP1 PUSH1 0x40 MSTORE DUP1 MLOAD SWAP1 PUSH1 0x20 ADD KECCAK256 DUP4 PUSH1 0x40 MLOAD PUSH1 0x20 ADD PUSH2 0xB71 SWAP2 SWAP1 PUSH2 0x1145 JUMP JUMPDEST PUSH1 0x40 MLOAD PUSH1 0x20 DUP2 DUP4 SUB SUB DUP2 MSTORE SWAP1 PUSH1 0x40 MSTORE DUP1 MLOAD SWAP1 PUSH1 0x20 ADD KECCAK256 EQ SWAP1 POP SWAP3 SWAP2 POP POP JUMP JUMPDEST POP DUP1 SLOAD PUSH2 0xB9C SWAP1 PUSH2 0xFFD JUMP JUMPDEST PUSH1 0x0 DUP3 SSTORE DUP1 PUSH1 0x1F LT PUSH2 0xBAC JUMPI POP POP JUMP JUMPDEST PUSH1 0x1F ADD PUSH1 0x20 SWAP1 DIV SWAP1 PUSH1 0x0 MSTORE PUSH1 0x20 PUSH1 0x0 KECCAK256 SWAP1 DUP2 ADD SWAP1 PUSH2 0x4E4 SWAP2 SWAP1 JUMPDEST DUP1 DUP3 GT ISZERO PUSH2 0xBDA JUMPI PUSH1 0x0 DUP2 SSTORE PUSH1 0x1 ADD PUSH2 0xBC6 JUMP JUMPDEST POP SWAP1 JUMP JUMPDEST PUSH4 0x4E487B71 PUSH1 0xE0 SHL PUSH1 0x0 MSTORE PUSH1 0x41 PUSH1 0x4 MSTORE PUSH1 0x24 PUSH1 0x0 REVERT JUMPDEST PUSH1 0x0 DUP3 PUSH1 0x1F DUP4 ADD SLT PUSH2 0xC05 JUMPI PUSH1 0x0 DUP1 REVERT JUMPDEST DUP2 CALLDATALOAD PUSH8 0xFFFFFFFFFFFFFFFF DUP1 DUP3 GT ISZERO PUSH2 0xC20 JUMPI PUSH2 0xC20 PUSH2 0xBDE JUMP JUMPDEST PUSH1 0x40 MLOAD PUSH1 0x1F DUP4 ADD PUSH1 0x1F NOT SWAP1 DUP2 AND PUSH1 0x3F ADD AND DUP2 ADD SWAP1 DUP3 DUP3 GT DUP2 DUP4 LT OR ISZERO PUSH2 0xC48 JUMPI PUSH2 0xC48 PUSH2 0xBDE JUMP JUMPDEST DUP2 PUSH1 0x40 MSTORE DUP4 DUP2 MSTORE DUP7 PUSH1 0x20 DUP6 DUP9 ADD ADD GT ISZERO PUSH2 0xC61 JUMPI PUSH1 0x0 DUP1 REVERT JUMPDEST DUP4 PUSH1 0x20 DUP8 ADD PUSH1 0x20 DUP4 ADD CALLDATACOPY PUSH1 0x0 PUSH1 0x20 DUP6 DUP4 ADD ADD MSTORE DUP1 SWAP5 POP POP POP POP POP SWAP3 SWAP2 POP POP JUMP JUMPDEST PUSH1 0x0 DUP1 PUSH1 0x0 DUP1 PUSH1 0x80 DUP6 DUP8 SUB SLT ISZERO PUSH2 0xC97 JUMPI PUSH1 0x0 DUP1 REVERT JUMPDEST DUP5 CALLDATALOAD SWAP4 POP PUSH1 0x20 DUP6 ADD CALLDATALOAD PUSH8 0xFFFFFFFFFFFFFFFF DUP1 DUP3 GT ISZERO PUSH2 0xCB6 JUMPI PUSH1 0x0 DUP1 REVERT JUMPDEST PUSH2 0xCC2 DUP9 DUP4 DUP10 ADD PUSH2 0xBF4 JUMP JUMPDEST SWAP5 POP PUSH1 0x40 DUP8 ADD CALLDATALOAD SWAP2 POP DUP1 DUP3 GT ISZERO PUSH2 0xCD8 JUMPI PUSH1 0x0 DUP1 REVERT JUMPDEST POP PUSH2 0xCE5 DUP8 DUP3 DUP9 ADD PUSH2 0xBF4 JUMP JUMPDEST SWAP5 SWAP8 SWAP4 SWAP7 POP SWAP4 SWAP5 PUSH1 0x60 ADD CALLDATALOAD SWAP4 POP POP POP JUMP JUMPDEST PUSH1 0x0 DUP1 PUSH1 0x40 DUP4 DUP6 SUB SLT ISZERO PUSH2 0xD09 JUMPI PUSH1 0x0 DUP1 REVERT JUMPDEST DUP3 CALLDATALOAD SWAP2 POP PUSH1 0x20 DUP4 ADD CALLDATALOAD PUSH8 0xFFFFFFFFFFFFFFFF DUP2 GT ISZERO PUSH2 0xD27 JUMPI PUSH1 0x0 DUP1 REVERT JUMPDEST PUSH2 0xD33 DUP6 DUP3 DUP7 ADD PUSH2 0xBF4 JUMP JUMPDEST SWAP2 POP POP SWAP3 POP SWAP3 SWAP1 POP JUMP JUMPDEST PUSH1 0x0 DUP1 PUSH1 0x40 DUP4 DUP6 SUB SLT ISZERO PUSH2 0xD50 JUMPI PUSH1 0x0 DUP1 REVERT JUMPDEST DUP3 CALLDATALOAD PUSH1 0x1 PUSH1 0x1 PUSH1 0xA0 SHL SUB DUP2 AND DUP2 EQ PUSH2 0xD67 JUMPI PUSH1 0x0 DUP1 REVERT JUMPDEST SWAP5 PUSH1 0x20 SWAP4 SWAP1 SWAP4 ADD CALLDATALOAD SWAP4 POP POP POP JUMP JUMPDEST PUSH1 0x0 JUMPDEST DUP4 DUP2 LT ISZERO PUSH2 0xD90 JUMPI DUP2 DUP2 ADD MLOAD DUP4 DUP3 ADD MSTORE PUSH1 0x20 ADD PUSH2 0xD78 JUMP JUMPDEST POP POP PUSH1 0x0 SWAP2 ADD MSTORE JUMP JUMPDEST PUSH1 0x0 DUP2 MLOAD DUP1 DUP5 MSTORE PUSH2 0xDB1 DUP2 PUSH1 0x20 DUP7 ADD PUSH1 0x20 DUP7 ADD PUSH2 0xD75 JUMP JUMPDEST PUSH1 0x1F ADD PUSH1 0x1F NOT AND SWAP3 SWAP1 SWAP3 ADD PUSH1 0x20 ADD SWAP3 SWAP2 POP POP JUMP JUMPDEST DUP4 DUP2 MSTORE PUSH1 0x1 PUSH1 0x1 PUSH1 0xA0 SHL SUB DUP4 AND PUSH1 0x20 DUP3 ADD MSTORE PUSH1 0x60 PUSH1 0x40 DUP3 ADD DUP2 SWAP1 MSTORE PUSH1 0x0 SWAP1 PUSH2 0xDEF SWAP1 DUP4 ADD DUP5 PUSH2 0xD99 JUMP JUMPDEST SWAP6 SWAP5 POP POP POP POP POP JUMP JUMPDEST PUSH1 0x0 PUSH1 0x20 DUP3 DUP5 SUB SLT ISZERO PUSH2 0xE0A JUMPI PUSH1 0x0 DUP1 REVERT JUMPDEST POP CALLDATALOAD SWAP2 SWAP1 POP JUMP JUMPDEST PUSH1 0x0 PUSH1 0x20 DUP1 DUP4 ADD DUP2 DUP5 MSTORE DUP1 DUP6 MLOAD DUP1 DUP4 MSTORE PUSH1 0x40 SWAP3 POP DUP3 DUP7 ADD SWAP2 POP DUP3 DUP2 PUSH1 0x5 SHL DUP8 ADD ADD DUP5 DUP9 ADD PUSH1 0x0 JUMPDEST DUP4 DUP2 LT ISZERO PUSH2 0xEC6 JUMPI PUSH1 0x3F NOT DUP10 DUP5 SUB ADD DUP6 MSTORE DUP2 MLOAD PUSH1 0xE0 DUP2 MLOAD DUP6 MSTORE DUP9 DUP3 ADD MLOAD DUP10 DUP7 ADD MSTORE DUP8 DUP3 ADD MLOAD DUP2 DUP10 DUP8 ADD MSTORE PUSH2 0xE6E DUP3 DUP8 ADD DUP3 PUSH2 0xD99 JUMP JUMPDEST SWAP2 POP POP PUSH1 0x60 DUP1 DUP4 ADD MLOAD DUP7 DUP4 SUB DUP3 DUP9 ADD MSTORE PUSH2 0xE88 DUP4 DUP3 PUSH2 0xD99 JUMP JUMPDEST PUSH1 0x80 DUP6 DUP2 ADD MLOAD SWAP1 DUP10 ADD MSTORE PUSH1 0xA0 DUP1 DUP7 ADD MLOAD PUSH1 0xFF SWAP1 DUP2 AND SWAP2 DUP11 ADD SWAP2 SWAP1 SWAP2 MSTORE PUSH1 0xC0 SWAP6 DUP7 ADD MLOAD AND SWAP5 SWAP1 SWAP8 ADD SWAP4 SWAP1 SWAP4 MSTORE POP POP POP SWAP4 DUP7 ADD SWAP4 SWAP1 DUP7 ADD SWAP1 PUSH1 0x1 ADD PUSH2 0xE38 JUMP JUMPDEST POP SWAP1 SWAP9 SWAP8 POP POP POP POP POP POP POP POP JUMP JUMPDEST PUSH1 0x0 PUSH1 0x20 DUP3 DUP5 SUB SLT ISZERO PUSH2 0xEE6 JUMPI PUSH1 0x0 DUP1 REVERT JUMPDEST DUP2 CALLDATALOAD PUSH8 0xFFFFFFFFFFFFFFFF DUP2 GT ISZERO PUSH2 0xEFD JUMPI PUSH1 0x0 DUP1 REVERT JUMPDEST PUSH2 0xF09 DUP5 DUP3 DUP6 ADD PUSH2 0xBF4 JUMP JUMPDEST SWAP5 SWAP4 POP POP POP POP JUMP JUMPDEST PUSH1 0x0 DUP1 PUSH1 0x40 DUP4 DUP6 SUB SLT ISZERO PUSH2 0xF24 JUMPI PUSH1 0x0 DUP1 REVERT JUMPDEST POP POP DUP1 CALLDATALOAD SWAP3 PUSH1 0x20 SWAP1 SWAP2 ADD CALLDATALOAD SWAP2 POP JUMP JUMPDEST DUP8 DUP2 MSTORE DUP7 PUSH1 0x20 DUP3 ADD MSTORE PUSH1 0xE0 PUSH1 0x40 DUP3 ADD MSTORE PUSH1 0x0 PUSH2 0xF52 PUSH1 0xE0 DUP4 ADD DUP9 PUSH2 0xD99 JUMP JUMPDEST DUP3 DUP2 SUB PUSH1 0x60 DUP5 ADD MSTORE PUSH2 0xF64 DUP2 DUP9 PUSH2 0xD99 JUMP JUMPDEST PUSH1 0x80 DUP5 ADD SWAP7 SWAP1 SWAP7 MSTORE POP POP PUSH1 0xFF SWAP3 DUP4 AND PUSH1 0xA0 DUP3 ADD MSTORE SWAP2 AND PUSH1 0xC0 SWAP1 SWAP2 ADD MSTORE SWAP5 SWAP4 POP POP POP POP JUMP JUMPDEST PUSH1 0x20 DUP1 DUP3 MSTORE PUSH1 0x2E SWAP1 DUP3 ADD MSTORE PUSH32 0x436F6D7065746974696F6E206F776E6564206279207468697320757365722064 PUSH1 0x40 DUP3 ADD MSTORE PUSH14 0x6F6573206E6F7420657869737421 PUSH1 0x90 SHL PUSH1 0x60 DUP3 ADD MSTORE PUSH1 0x80 ADD SWAP1 JUMP JUMPDEST PUSH1 0x0 PUSH1 0x1 DUP3 ADD PUSH2 0xFF6 JUMPI PUSH4 0x4E487B71 PUSH1 0xE0 SHL PUSH1 0x0 MSTORE PUSH1 0x11 PUSH1 0x4 MSTORE PUSH1 0x24 PUSH1 0x0 REVERT JUMPDEST POP PUSH1 0x1 ADD SWAP1 JUMP JUMPDEST PUSH1 0x1 DUP2 DUP2 SHR SWAP1 DUP3 AND DUP1 PUSH2 0x1011 JUMPI PUSH1 0x7F DUP3 AND SWAP2 POP JUMPDEST PUSH1 0x20 DUP3 LT DUP2 SUB PUSH2 0x1031 JUMPI PUSH4 0x4E487B71 PUSH1 0xE0 SHL PUSH1 0x0 MSTORE PUSH1 0x22 PUSH1 0x4 MSTORE PUSH1 0x24 PUSH1 0x0 REVERT JUMPDEST POP SWAP2 SWAP1 POP JUMP JUMPDEST PUSH1 0x1F DUP3 GT ISZERO PUSH2 0x549 JUMPI PUSH1 0x0 DUP2 DUP2 MSTORE PUSH1 0x20 DUP2 KECCAK256 PUSH1 0x1F DUP6 ADD PUSH1 0x5 SHR DUP2 ADD PUSH1 0x20 DUP7 LT ISZERO PUSH2 0x105E JUMPI POP DUP1 JUMPDEST PUSH1 0x1F DUP6 ADD PUSH1 0x5 SHR DUP3 ADD SWAP2 POP JUMPDEST DUP2 DUP2 LT ISZERO PUSH2 0x107D JUMPI DUP3 DUP2 SSTORE PUSH1 0x1 ADD PUSH2 0x106A JUMP JUMPDEST POP POP POP POP POP POP JUMP JUMPDEST DUP2 MLOAD PUSH8 0xFFFFFFFFFFFFFFFF DUP2 GT ISZERO PUSH2 0x109F JUMPI PUSH2 0x109F PUSH2 0xBDE JUMP JUMPDEST PUSH2 0x10B3 DUP2 PUSH2 0x10AD DUP5 SLOAD PUSH2 0xFFD JUMP JUMPDEST DUP5 PUSH2 0x1037 JUMP JUMPDEST PUSH1 0x20 DUP1 PUSH1 0x1F DUP4 GT PUSH1 0x1 DUP2 EQ PUSH2 0x10E8 JUMPI PUSH1 0x0 DUP5 ISZERO PUSH2 0x10D0 JUMPI POP DUP6 DUP4 ADD MLOAD JUMPDEST PUSH1 0x0 NOT PUSH1 0x3 DUP7 SWAP1 SHL SHR NOT AND PUSH1 0x1 DUP6 SWAP1 SHL OR DUP6 SSTORE PUSH2 0x107D JUMP JUMPDEST PUSH1 0x0 DUP6 DUP2 MSTORE PUSH1 0x20 DUP2 KECCAK256 PUSH1 0x1F NOT DUP7 AND SWAP2 JUMPDEST DUP3 DUP2 LT ISZERO PUSH2 0x1117 JUMPI DUP9 DUP7 ADD MLOAD DUP3 SSTORE SWAP5 DUP5 ADD SWAP5 PUSH1 0x1 SWAP1 SWAP2 ADD SWAP1 DUP5 ADD PUSH2 0x10F8 JUMP JUMPDEST POP DUP6 DUP3 LT ISZERO PUSH2 0x1135 JUMPI DUP8 DUP6 ADD MLOAD PUSH1 0x0 NOT PUSH1 0x3 DUP9 SWAP1 SHL PUSH1 0xF8 AND SHR NOT AND DUP2 SSTORE JUMPDEST POP POP POP POP POP PUSH1 0x1 SWAP1 DUP2 SHL ADD SWAP1 SSTORE POP JUMP JUMPDEST PUSH1 0x0 DUP3 MLOAD PUSH2 0x1157 DUP2 DUP5 PUSH1 0x20 DUP8 ADD PUSH2 0xD75 JUMP JUMPDEST SWAP2 SWAP1 SWAP2 ADD SWAP3 SWAP2 POP POP JUMP INVALID LOG2 PUSH5 0x6970667358 0x22 SLT KECCAK256 0xD 0xA8 SWAP1 SWAP5 0xDF CODESIZE 0xB4 SIGNEXTEND 0x29 DIV 0xED CALLCODE EQ COINBASE POP MLOAD 0xBB SDIV PUSH14 0xEC0326783F6B9798B714E3F9CC64 PUSH20 0x6F6C634300081100330000000000000000000000 "},"methodIdentifiers":{"addCompetition(string)":"cf0cefa1","addGame(uint256,string,string,uint256)":"1f90e3d5","competitions(address,uint256)":"7efb6ac0","deleteCompetition(uint256)":"931f2ca3","games(uint256,uint256)":"e5539406","getCompetition(uint256)":"f4036466","getGames(uint256)":"9d6aaa7d","initialize()":"8129fc1c","lastCompetitionId()":"e942f9fe","lastGameId()":"3ee9d648","updateCompetition(uint256,string)":"7178d540"}},"storageLayout":{"storage":[{"astId":6,"contract":"contracts/MeerkatV1.sol:MeerkatV1","label":"_initialized","offset":0,"slot":"0","type":"t_uint8"},{"astId":9,"contract":"contracts/MeerkatV1.sol:MeerkatV1","label":"_initializing","offset":1,"slot":"0","type":"t_bool"},{"astId":538,"contract":"contracts/MeerkatV1.sol:MeerkatV1","label":"lastCompetitionId","offset":0,"slot":"1","type":"t_uint256"},{"astId":540,"contract":"contracts/MeerkatV1.sol:MeerkatV1","label":"lastGameId","offset":0,"slot":"2","type":"t_uint256"},{"astId":547,"contract":"contracts/MeerkatV1.sol:MeerkatV1","label":"competitions","offset":0,"slot":"3","type":"t_mapping(t_address,t_mapping(t_uint256,t_struct(Competition)512_storage))"},{"astId":553,"contract":"contracts/MeerkatV1.sol:MeerkatV1","label":"games","offset":0,"slot":"4","type":"t_mapping(t_uint256,t_array(t_struct(Game)527_storage)dyn_storage)"}],"types":{"t_address":{"encoding":"inplace","label":"address","numberOfBytes":"20"},"t_array(t_struct(Game)527_storage)dyn_storage":{"base":"t_struct(Game)527_storage","encoding":"dynamic_array","label":"struct MeerkatV1.Game[]","numberOfBytes":"32"},"t_bool":{"encoding":"inplace","label":"bool","numberOfBytes":"1"},"t_mapping(t_address,t_mapping(t_uint256,t_struct(Competition)512_storage))":{"encoding":"mapping","key":"t_address","label":"mapping(address => mapping(uint256 => struct MeerkatV1.Competition))","numberOfBytes":"32","value":"t_mapping(t_uint256,t_struct(Competition)512_storage)"},"t_mapping(t_uint256,t_array(t_struct(Game)527_storage)dyn_storage)":{"encoding":"mapping","key":"t_uint256","label":"mapping(uint256 => struct MeerkatV1.Game[])","numberOfBytes":"32","value":"t_array(t_struct(Game)527_storage)dyn_storage"},"t_mapping(t_uint256,t_struct(Competition)512_storage)":{"encoding":"mapping","key":"t_uint256","label":"mapping(uint256 => struct MeerkatV1.Competition)","numberOfBytes":"32","value":"t_struct(Competition)512_storage"},"t_string_storage":{"encoding":"bytes","label":"string","numberOfBytes":"32"},"t_struct(Competition)512_storage":{"encoding":"inplace","label":"struct MeerkatV1.Competition","members":[{"astId":507,"contract":"contracts/MeerkatV1.sol:MeerkatV1","label":"id","offset":0,"slot":"0","type":"t_uint256"},{"astId":509,"contract":"contracts/MeerkatV1.sol:MeerkatV1","label":"owner","offset":0,"slot":"1","type":"t_address"},{"astId":511,"contract":"contracts/MeerkatV1.sol:MeerkatV1","label":"name","offset":0,"slot":"2","type":"t_string_storage"}],"numberOfBytes":"96"},"t_struct(Game)527_storage":{"encoding":"inplace","label":"struct MeerkatV1.Game","members":[{"astId":514,"contract":"contracts/MeerkatV1.sol:MeerkatV1","label":"id","offset":0,"slot":"0","type":"t_uint256"},{"astId":516,"contract":"contracts/MeerkatV1.sol:MeerkatV1","label":"competitionId","offset":0,"slot":"1","type":"t_uint256"},{"astId":518,"contract":"contracts/MeerkatV1.sol:MeerkatV1","label":"homeCompetitor","offset":0,"slot":"2","type":"t_string_storage"},{"astId":520,"contract":"contracts/MeerkatV1.sol:MeerkatV1","label":"awayCompetitor","offset":0,"slot":"3","type":"t_string_storage"},{"astId":522,"contract":"contracts/MeerkatV1.sol:MeerkatV1","label":"startTime","offset":0,"slot":"4","type":"t_uint256"},{"astId":524,"contract":"contracts/MeerkatV1.sol:MeerkatV1","label":"homeScore","offset":0,"slot":"5","type":"t_uint8"},{"astId":526,"contract":"contracts/MeerkatV1.sol:MeerkatV1","label":"awayScore","offset":1,"slot":"5","type":"t_uint8"}],"numberOfBytes":"192"},"t_uint256":{"encoding":"inplace","label":"uint256","numberOfBytes":"32"},"t_uint8":{"encoding":"inplace","label":"uint8","numberOfBytes":"1"}}}}}}