{"contracts/MeerkatCompetition.sol":{"MeerkatCompetitionV1":{"abi":[{"anonymous":false,"inputs":[{"indexed":false,"internalType":"uint8","name":"version","type":"uint8"}],"name":"Initialized","type":"event"},{"inputs":[{"internalType":"string","name":"_homeCompetitor","type":"string"},{"internalType":"string","name":"_awayCompetitor","type":"string"},{"internalType":"uint256","name":"_startTime","type":"uint256"}],"name":"addGame","outputs":[],"stateMutability":"nonpayable","type":"function"},{"inputs":[{"internalType":"uint256","name":"_gameId","type":"uint256"}],"name":"deleteGame","outputs":[],"stateMutability":"nonpayable","type":"function"},{"inputs":[{"internalType":"uint256","name":"_gameId","type":"uint256"}],"name":"getGame","outputs":[{"components":[{"internalType":"uint256","name":"id","type":"uint256"},{"internalType":"string","name":"homeCompetitor","type":"string"},{"internalType":"string","name":"awayCompetitor","type":"string"},{"internalType":"uint256","name":"startTime","type":"uint256"},{"internalType":"uint8","name":"homeScore","type":"uint8"},{"internalType":"uint8","name":"awayScore","type":"uint8"}],"internalType":"struct MeerkatCompetitionV1.Game","name":"","type":"tuple"}],"stateMutability":"view","type":"function"},{"inputs":[],"name":"getGames","outputs":[{"components":[{"internalType":"uint256","name":"id","type":"uint256"},{"internalType":"string","name":"homeCompetitor","type":"string"},{"internalType":"string","name":"awayCompetitor","type":"string"},{"internalType":"uint256","name":"startTime","type":"uint256"},{"internalType":"uint8","name":"homeScore","type":"uint8"},{"internalType":"uint8","name":"awayScore","type":"uint8"}],"internalType":"struct MeerkatCompetitionV1.Game[]","name":"","type":"tuple[]"}],"stateMutability":"view","type":"function"},{"inputs":[{"internalType":"string","name":"_name","type":"string"}],"name":"initialize","outputs":[],"stateMutability":"nonpayable","type":"function"},{"inputs":[],"name":"name","outputs":[{"internalType":"string","name":"","type":"string"}],"stateMutability":"view","type":"function"},{"inputs":[],"name":"owner","outputs":[{"internalType":"address","name":"","type":"address"}],"stateMutability":"view","type":"function"},{"inputs":[{"internalType":"uint256","name":"_gameId","type":"uint256"},{"internalType":"string","name":"_homeCompetitor","type":"string"},{"internalType":"string","name":"_awayCompetitor","type":"string"},{"internalType":"uint256","name":"_startTime","type":"uint256"},{"internalType":"uint8","name":"_homeScore","type":"uint8"},{"internalType":"uint8","name":"_awayScore","type":"uint8"}],"name":"updateGame","outputs":[],"stateMutability":"nonpayable","type":"function"}],"evm":{"bytecode":{"linkReferences":{},"object":"608060405234801561001057600080fd5b50611271806100206000396000f3fe608060405234801561001057600080fd5b50600436106100885760003560e01c8063a2f77bcc1161005b578063a2f77bcc146100fe578063a5c86b771461011e578063c04c594714610131578063f62d18881461014657600080fd5b806306fdde031461008d578063248a55a1146100ab5780632652b2b5146100c05780638da5cb5b146100d3575b600080fd5b610095610159565b6040516100a29190610d10565b60405180910390f35b6100be6100b9366004610d2a565b6101e7565b005b6100be6100ce366004610df7565b6102cb565b6002546100e6906001600160a01b031681565b6040516001600160a01b0390911681526020016100a2565b61011161010c366004610d2a565b61050b565b6040516100a29190610ef7565b6100be61012c366004610f0a565b6106c2565b6101396107ab565b6040516100a29190610f77565b6100be610154366004610fd9565b610a7d565b6001805461016690611016565b80601f016020809104026020016040519081016040528092919081815260200182805461019290611016565b80156101df5780601f106101b4576101008083540402835291602001916101df565b820191906000526020600020905b8154815290600101906020018083116101c257829003601f168201915b505050505081565b6002546001600160a01b0316331461021a5760405162461bcd60e51b815260040161021190611050565b60405180910390fd5b600081815260036020526040812080549091036102705760405162461bcd60e51b815260206004820152601460248201527347616d6520646f6573206e6f742065786973742160601b6044820152606401610211565b60008281526003602052604081208181559061028f6001830182610c72565b61029d600283016000610c72565b506000600382018190556004918201805461ffff19169055815491906102c283611095565b91905055505050565b6002546001600160a01b031633146102f55760405162461bcd60e51b815260040161021190611050565b6000868152600360205260408120805490910361034b5760405162461bcd60e51b815260206004820152601460248201527347616d6520646f6573206e6f742065786973742160601b6044820152606401610211565b6103e181600101805461035d90611016565b80601f016020809104026020016040519081016040528092919081815260200182805461038990611016565b80156103d65780601f106103ab576101008083540402835291602001916103d6565b820191906000526020600020905b8154815290600101906020018083116103b957829003601f168201915b505050505087610bab565b6103f557600181016103f387826110fb565b505b61048b81600201805461040790611016565b80601f016020809104026020016040519081016040528092919081815260200182805461043390611016565b80156104805780601f1061045557610100808354040283529160200191610480565b820191906000526020600020905b81548152906001019060200180831161046357829003601f168201915b505050505086610bab565b61049f576002810161049d86826110fb565b505b838160030154146104b257600381018490555b600481015460ff8481169116146104d55760048101805460ff191660ff85161790555b600481015460ff83811661010090920416146105025760048101805461ff00191661010060ff8516021790555b50505050505050565b61054a6040518060c0016040528060008152602001606081526020016060815260200160008152602001600060ff168152602001600060ff1681525090565b600360008381526020019081526020016000206040518060c00160405290816000820154815260200160018201805461058290611016565b80601f01602080910402602001604051908101604052809291908181526020018280546105ae90611016565b80156105fb5780601f106105d0576101008083540402835291602001916105fb565b820191906000526020600020905b8154815290600101906020018083116105de57829003601f168201915b5050505050815260200160028201805461061490611016565b80601f016020809104026020016040519081016040528092919081815260200182805461064090611016565b801561068d5780601f106106625761010080835404028352916020019161068d565b820191906000526020600020905b81548152906001019060200180831161067057829003601f168201915b50505091835250506003820154602082015260049091015460ff80821660408401526101009091041660609091015292915050565b6002546001600160a01b031633146106ec5760405162461bcd60e51b815260040161021190611050565b6040518060c00160405280600460008154610706906111bb565b91829055508152602080820186905260408083018690526060830185905260006080840181905260a09093018390526004548352600382529091208251815590820151600182019061075890826110fb565b506040820151600282019061076d90826110fb565b506060820151600382015560808201516004909101805460a09093015160ff9081166101000261ffff19909416921691909117919091179055505050565b6060600060045467ffffffffffffffff8111156107ca576107ca610d43565b60405190808252806020026020018201604052801561083a57816020015b6108276040518060c0016040528060008152602001606081526020016060815260200160008152602001600060ff168152602001600060ff1681525090565b8152602001906001900390816107e85790505b50905060005b600454811015610a4057600060038161085a8460016111d4565b81526020019081526020016000206040518060c00160405290816000820154815260200160018201805461088d90611016565b80601f01602080910402602001604051908101604052809291908181526020018280546108b990611016565b80156109065780601f106108db57610100808354040283529160200191610906565b820191906000526020600020905b8154815290600101906020018083116108e957829003601f168201915b5050505050815260200160028201805461091f90611016565b80601f016020809104026020016040519081016040528092919081815260200182805461094b90611016565b80156109985780601f1061096d57610100808354040283529160200191610998565b820191906000526020600020905b81548152906001019060200180831161097b57829003601f168201915b5050509183525050600382015460208083019190915260049092015460ff8082166040808501919091526101009092041660609092019190915280518082019091526008815267023b0b6b29034b2160c51b9181019190915281519192506109ff91610c05565b8051600003610a0e5750610a2e565b80838381518110610a2157610a216111e7565b6020026020010181905250505b80610a38816111bb565b915050610840565b50610a78604051806040016040528060148152602001730cccae8c6d0cac8408ec2dacae640d8cadccee8d60631b8152508251610c05565b919050565b600054610100900460ff1615808015610a9d5750600054600160ff909116105b80610ab75750303b158015610ab7575060005460ff166001145b610b1a5760405162461bcd60e51b815260206004820152602e60248201527f496e697469616c697a61626c653a20636f6e747261637420697320616c72656160448201526d191e481a5b9a5d1a585b1a5e995960921b6064820152608401610211565b6000805460ff191660011790558015610b3d576000805461ff0019166101001790555b6001610b4983826110fb565b50600280546001600160a01b0319163317905560006004558015610ba7576000805461ff0019169055604051600181527f7f26b83ff96e1f2b6a682f133852f6798a09c465da95921460cefb38474024989060200160405180910390a15b5050565b600081604051602001610bbe91906111fd565b6040516020818303038152906040528051906020012083604051602001610be591906111fd565b604051602081830303815290604052805190602001201490505b92915050565b610ba78282604051602401610c1b929190611219565b60408051601f198184030181529190526020810180516001600160e01b0316632d839cb360e21b179052610c4e81610c51565b50565b60006a636f6e736f6c652e6c6f679050600080835160208501845afa505050565b508054610c7e90611016565b6000825580601f10610c8e575050565b601f016020900490600052602060002090810190610c4e91905b80821115610cbc5760008155600101610ca8565b5090565b60005b83811015610cdb578181015183820152602001610cc3565b50506000910152565b60008151808452610cfc816020860160208601610cc0565b601f01601f19169290920160200192915050565b602081526000610d236020830184610ce4565b9392505050565b600060208284031215610d3c57600080fd5b5035919050565b634e487b7160e01b600052604160045260246000fd5b600082601f830112610d6a57600080fd5b813567ffffffffffffffff80821115610d8557610d85610d43565b604051601f8301601f19908116603f01168101908282118183101715610dad57610dad610d43565b81604052838152866020858801011115610dc657600080fd5b836020870160208301376000602085830101528094505050505092915050565b803560ff81168114610a7857600080fd5b60008060008060008060c08789031215610e1057600080fd5b86359550602087013567ffffffffffffffff80821115610e2f57600080fd5b610e3b8a838b01610d59565b96506040890135915080821115610e5157600080fd5b50610e5e89828a01610d59565b94505060608701359250610e7460808801610de6565b9150610e8260a08801610de6565b90509295509295509295565b805182526000602082015160c06020850152610ead60c0850182610ce4565b905060408301518482036040860152610ec68282610ce4565b9150506060830151606085015260ff608084015116608085015260ff60a08401511660a08501528091505092915050565b602081526000610d236020830184610e8e565b600080600060608486031215610f1f57600080fd5b833567ffffffffffffffff80821115610f3757600080fd5b610f4387838801610d59565b94506020860135915080821115610f5957600080fd5b50610f6686828701610d59565b925050604084013590509250925092565b6000602080830181845280855180835260408601915060408160051b870101925083870160005b82811015610fcc57603f19888603018452610fba858351610e8e565b94509285019290850190600101610f9e565b5092979650505050505050565b600060208284031215610feb57600080fd5b813567ffffffffffffffff81111561100257600080fd5b61100e84828501610d59565b949350505050565b600181811c9082168061102a57607f821691505b60208210810361104a57634e487b7160e01b600052602260045260246000fd5b50919050565b602080825260159082015274556e617574686f72697a656420726571756573742160581b604082015260600190565b634e487b7160e01b600052601160045260246000fd5b6000816110a4576110a461107f565b506000190190565b601f8211156110f657600081815260208120601f850160051c810160208610156110d35750805b601f850160051c820191505b818110156110f2578281556001016110df565b5050505b505050565b815167ffffffffffffffff81111561111557611115610d43565b611129816111238454611016565b846110ac565b602080601f83116001811461115e57600084156111465750858301515b600019600386901b1c1916600185901b1785556110f2565b600085815260208120601f198616915b8281101561118d5788860151825594840194600190910190840161116e565b50858210156111ab5787850151600019600388901b60f8161c191681555b5050505050600190811b01905550565b6000600182016111cd576111cd61107f565b5060010190565b80820180821115610bff57610bff61107f565b634e487b7160e01b600052603260045260246000fd5b6000825161120f818460208701610cc0565b9190910192915050565b60408152600061122c6040830185610ce4565b9050826020830152939250505056fea26469706673582212202cf5b010f9ae7b6ae9427a39a37e4688baf5afcadd5097170223c57da15ae5e964736f6c63430008110033","opcodes":"PUSH1 0x80 PUSH1 0x40 MSTORE CALLVALUE DUP1 ISZERO PUSH2 0x10 JUMPI PUSH1 0x0 DUP1 REVERT JUMPDEST POP PUSH2 0x1271 DUP1 PUSH2 0x20 PUSH1 0x0 CODECOPY PUSH1 0x0 RETURN INVALID PUSH1 0x80 PUSH1 0x40 MSTORE CALLVALUE DUP1 ISZERO PUSH2 0x10 JUMPI PUSH1 0x0 DUP1 REVERT JUMPDEST POP PUSH1 0x4 CALLDATASIZE LT PUSH2 0x88 JUMPI PUSH1 0x0 CALLDATALOAD PUSH1 0xE0 SHR DUP1 PUSH4 0xA2F77BCC GT PUSH2 0x5B JUMPI DUP1 PUSH4 0xA2F77BCC EQ PUSH2 0xFE JUMPI DUP1 PUSH4 0xA5C86B77 EQ PUSH2 0x11E JUMPI DUP1 PUSH4 0xC04C5947 EQ PUSH2 0x131 JUMPI DUP1 PUSH4 0xF62D1888 EQ PUSH2 0x146 JUMPI PUSH1 0x0 DUP1 REVERT JUMPDEST DUP1 PUSH4 0x6FDDE03 EQ PUSH2 0x8D JUMPI DUP1 PUSH4 0x248A55A1 EQ PUSH2 0xAB JUMPI DUP1 PUSH4 0x2652B2B5 EQ PUSH2 0xC0 JUMPI DUP1 PUSH4 0x8DA5CB5B EQ PUSH2 0xD3 JUMPI JUMPDEST PUSH1 0x0 DUP1 REVERT JUMPDEST PUSH2 0x95 PUSH2 0x159 JUMP JUMPDEST PUSH1 0x40 MLOAD PUSH2 0xA2 SWAP2 SWAP1 PUSH2 0xD10 JUMP JUMPDEST PUSH1 0x40 MLOAD DUP1 SWAP2 SUB SWAP1 RETURN JUMPDEST PUSH2 0xBE PUSH2 0xB9 CALLDATASIZE PUSH1 0x4 PUSH2 0xD2A JUMP JUMPDEST PUSH2 0x1E7 JUMP JUMPDEST STOP JUMPDEST PUSH2 0xBE PUSH2 0xCE CALLDATASIZE PUSH1 0x4 PUSH2 0xDF7 JUMP JUMPDEST PUSH2 0x2CB JUMP JUMPDEST PUSH1 0x2 SLOAD PUSH2 0xE6 SWAP1 PUSH1 0x1 PUSH1 0x1 PUSH1 0xA0 SHL SUB AND DUP2 JUMP JUMPDEST PUSH1 0x40 MLOAD PUSH1 0x1 PUSH1 0x1 PUSH1 0xA0 SHL SUB SWAP1 SWAP2 AND DUP2 MSTORE PUSH1 0x20 ADD PUSH2 0xA2 JUMP JUMPDEST PUSH2 0x111 PUSH2 0x10C CALLDATASIZE PUSH1 0x4 PUSH2 0xD2A JUMP JUMPDEST PUSH2 0x50B JUMP JUMPDEST PUSH1 0x40 MLOAD PUSH2 0xA2 SWAP2 SWAP1 PUSH2 0xEF7 JUMP JUMPDEST PUSH2 0xBE PUSH2 0x12C CALLDATASIZE PUSH1 0x4 PUSH2 0xF0A JUMP JUMPDEST PUSH2 0x6C2 JUMP JUMPDEST PUSH2 0x139 PUSH2 0x7AB JUMP JUMPDEST PUSH1 0x40 MLOAD PUSH2 0xA2 SWAP2 SWAP1 PUSH2 0xF77 JUMP JUMPDEST PUSH2 0xBE PUSH2 0x154 CALLDATASIZE PUSH1 0x4 PUSH2 0xFD9 JUMP JUMPDEST PUSH2 0xA7D JUMP JUMPDEST PUSH1 0x1 DUP1 SLOAD PUSH2 0x166 SWAP1 PUSH2 0x1016 JUMP JUMPDEST DUP1 PUSH1 0x1F ADD PUSH1 0x20 DUP1 SWAP2 DIV MUL PUSH1 0x20 ADD PUSH1 0x40 MLOAD SWAP1 DUP2 ADD PUSH1 0x40 MSTORE DUP1 SWAP3 SWAP2 SWAP1 DUP2 DUP2 MSTORE PUSH1 0x20 ADD DUP3 DUP1 SLOAD PUSH2 0x192 SWAP1 PUSH2 0x1016 JUMP JUMPDEST DUP1 ISZERO PUSH2 0x1DF JUMPI DUP1 PUSH1 0x1F LT PUSH2 0x1B4 JUMPI PUSH2 0x100 DUP1 DUP4 SLOAD DIV MUL DUP4 MSTORE SWAP2 PUSH1 0x20 ADD SWAP2 PUSH2 0x1DF JUMP JUMPDEST DUP3 ADD SWAP2 SWAP1 PUSH1 0x0 MSTORE PUSH1 0x20 PUSH1 0x0 KECCAK256 SWAP1 JUMPDEST DUP2 SLOAD DUP2 MSTORE SWAP1 PUSH1 0x1 ADD SWAP1 PUSH1 0x20 ADD DUP1 DUP4 GT PUSH2 0x1C2 JUMPI DUP3 SWAP1 SUB PUSH1 0x1F AND DUP3 ADD SWAP2 JUMPDEST POP POP POP POP POP DUP2 JUMP JUMPDEST PUSH1 0x2 SLOAD PUSH1 0x1 PUSH1 0x1 PUSH1 0xA0 SHL SUB AND CALLER EQ PUSH2 0x21A JUMPI PUSH1 0x40 MLOAD PUSH3 0x461BCD PUSH1 0xE5 SHL DUP2 MSTORE PUSH1 0x4 ADD PUSH2 0x211 SWAP1 PUSH2 0x1050 JUMP JUMPDEST PUSH1 0x40 MLOAD DUP1 SWAP2 SUB SWAP1 REVERT JUMPDEST PUSH1 0x0 DUP2 DUP2 MSTORE PUSH1 0x3 PUSH1 0x20 MSTORE PUSH1 0x40 DUP2 KECCAK256 DUP1 SLOAD SWAP1 SWAP2 SUB PUSH2 0x270 JUMPI PUSH1 0x40 MLOAD PUSH3 0x461BCD PUSH1 0xE5 SHL DUP2 MSTORE PUSH1 0x20 PUSH1 0x4 DUP3 ADD MSTORE PUSH1 0x14 PUSH1 0x24 DUP3 ADD MSTORE PUSH20 0x47616D6520646F6573206E6F7420657869737421 PUSH1 0x60 SHL PUSH1 0x44 DUP3 ADD MSTORE PUSH1 0x64 ADD PUSH2 0x211 JUMP JUMPDEST PUSH1 0x0 DUP3 DUP2 MSTORE PUSH1 0x3 PUSH1 0x20 MSTORE PUSH1 0x40 DUP2 KECCAK256 DUP2 DUP2 SSTORE SWAP1 PUSH2 0x28F PUSH1 0x1 DUP4 ADD DUP3 PUSH2 0xC72 JUMP JUMPDEST PUSH2 0x29D PUSH1 0x2 DUP4 ADD PUSH1 0x0 PUSH2 0xC72 JUMP JUMPDEST POP PUSH1 0x0 PUSH1 0x3 DUP3 ADD DUP2 SWAP1 SSTORE PUSH1 0x4 SWAP2 DUP3 ADD DUP1 SLOAD PUSH2 0xFFFF NOT AND SWAP1 SSTORE DUP2 SLOAD SWAP2 SWAP1 PUSH2 0x2C2 DUP4 PUSH2 0x1095 JUMP JUMPDEST SWAP2 SWAP1 POP SSTORE POP POP POP JUMP JUMPDEST PUSH1 0x2 SLOAD PUSH1 0x1 PUSH1 0x1 PUSH1 0xA0 SHL SUB AND CALLER EQ PUSH2 0x2F5 JUMPI PUSH1 0x40 MLOAD PUSH3 0x461BCD PUSH1 0xE5 SHL DUP2 MSTORE PUSH1 0x4 ADD PUSH2 0x211 SWAP1 PUSH2 0x1050 JUMP JUMPDEST PUSH1 0x0 DUP7 DUP2 MSTORE PUSH1 0x3 PUSH1 0x20 MSTORE PUSH1 0x40 DUP2 KECCAK256 DUP1 SLOAD SWAP1 SWAP2 SUB PUSH2 0x34B JUMPI PUSH1 0x40 MLOAD PUSH3 0x461BCD PUSH1 0xE5 SHL DUP2 MSTORE PUSH1 0x20 PUSH1 0x4 DUP3 ADD MSTORE PUSH1 0x14 PUSH1 0x24 DUP3 ADD MSTORE PUSH20 0x47616D6520646F6573206E6F7420657869737421 PUSH1 0x60 SHL PUSH1 0x44 DUP3 ADD MSTORE PUSH1 0x64 ADD PUSH2 0x211 JUMP JUMPDEST PUSH2 0x3E1 DUP2 PUSH1 0x1 ADD DUP1 SLOAD PUSH2 0x35D SWAP1 PUSH2 0x1016 JUMP JUMPDEST DUP1 PUSH1 0x1F ADD PUSH1 0x20 DUP1 SWAP2 DIV MUL PUSH1 0x20 ADD PUSH1 0x40 MLOAD SWAP1 DUP2 ADD PUSH1 0x40 MSTORE DUP1 SWAP3 SWAP2 SWAP1 DUP2 DUP2 MSTORE PUSH1 0x20 ADD DUP3 DUP1 SLOAD PUSH2 0x389 SWAP1 PUSH2 0x1016 JUMP JUMPDEST DUP1 ISZERO PUSH2 0x3D6 JUMPI DUP1 PUSH1 0x1F LT PUSH2 0x3AB JUMPI PUSH2 0x100 DUP1 DUP4 SLOAD DIV MUL DUP4 MSTORE SWAP2 PUSH1 0x20 ADD SWAP2 PUSH2 0x3D6 JUMP JUMPDEST DUP3 ADD SWAP2 SWAP1 PUSH1 0x0 MSTORE PUSH1 0x20 PUSH1 0x0 KECCAK256 SWAP1 JUMPDEST DUP2 SLOAD DUP2 MSTORE SWAP1 PUSH1 0x1 ADD SWAP1 PUSH1 0x20 ADD DUP1 DUP4 GT PUSH2 0x3B9 JUMPI DUP3 SWAP1 SUB PUSH1 0x1F AND DUP3 ADD SWAP2 JUMPDEST POP POP POP POP POP DUP8 PUSH2 0xBAB JUMP JUMPDEST PUSH2 0x3F5 JUMPI PUSH1 0x1 DUP2 ADD PUSH2 0x3F3 DUP8 DUP3 PUSH2 0x10FB JUMP JUMPDEST POP JUMPDEST PUSH2 0x48B DUP2 PUSH1 0x2 ADD DUP1 SLOAD PUSH2 0x407 SWAP1 PUSH2 0x1016 JUMP JUMPDEST DUP1 PUSH1 0x1F ADD PUSH1 0x20 DUP1 SWAP2 DIV MUL PUSH1 0x20 ADD PUSH1 0x40 MLOAD SWAP1 DUP2 ADD PUSH1 0x40 MSTORE DUP1 SWAP3 SWAP2 SWAP1 DUP2 DUP2 MSTORE PUSH1 0x20 ADD DUP3 DUP1 SLOAD PUSH2 0x433 SWAP1 PUSH2 0x1016 JUMP JUMPDEST DUP1 ISZERO PUSH2 0x480 JUMPI DUP1 PUSH1 0x1F LT PUSH2 0x455 JUMPI PUSH2 0x100 DUP1 DUP4 SLOAD DIV MUL DUP4 MSTORE SWAP2 PUSH1 0x20 ADD SWAP2 PUSH2 0x480 JUMP JUMPDEST DUP3 ADD SWAP2 SWAP1 PUSH1 0x0 MSTORE PUSH1 0x20 PUSH1 0x0 KECCAK256 SWAP1 JUMPDEST DUP2 SLOAD DUP2 MSTORE SWAP1 PUSH1 0x1 ADD SWAP1 PUSH1 0x20 ADD DUP1 DUP4 GT PUSH2 0x463 JUMPI DUP3 SWAP1 SUB PUSH1 0x1F AND DUP3 ADD SWAP2 JUMPDEST POP POP POP POP POP DUP7 PUSH2 0xBAB JUMP JUMPDEST PUSH2 0x49F JUMPI PUSH1 0x2 DUP2 ADD PUSH2 0x49D DUP7 DUP3 PUSH2 0x10FB JUMP JUMPDEST POP JUMPDEST DUP4 DUP2 PUSH1 0x3 ADD SLOAD EQ PUSH2 0x4B2 JUMPI PUSH1 0x3 DUP2 ADD DUP5 SWAP1 SSTORE JUMPDEST PUSH1 0x4 DUP2 ADD SLOAD PUSH1 0xFF DUP5 DUP2 AND SWAP2 AND EQ PUSH2 0x4D5 JUMPI PUSH1 0x4 DUP2 ADD DUP1 SLOAD PUSH1 0xFF NOT AND PUSH1 0xFF DUP6 AND OR SWAP1 SSTORE JUMPDEST PUSH1 0x4 DUP2 ADD SLOAD PUSH1 0xFF DUP4 DUP2 AND PUSH2 0x100 SWAP1 SWAP3 DIV AND EQ PUSH2 0x502 JUMPI PUSH1 0x4 DUP2 ADD DUP1 SLOAD PUSH2 0xFF00 NOT AND PUSH2 0x100 PUSH1 0xFF DUP6 AND MUL OR SWAP1 SSTORE JUMPDEST POP POP POP POP POP POP POP JUMP JUMPDEST PUSH2 0x54A PUSH1 0x40 MLOAD DUP1 PUSH1 0xC0 ADD PUSH1 0x40 MSTORE DUP1 PUSH1 0x0 DUP2 MSTORE PUSH1 0x20 ADD PUSH1 0x60 DUP2 MSTORE PUSH1 0x20 ADD PUSH1 0x60 DUP2 MSTORE PUSH1 0x20 ADD PUSH1 0x0 DUP2 MSTORE PUSH1 0x20 ADD PUSH1 0x0 PUSH1 0xFF AND DUP2 MSTORE PUSH1 0x20 ADD PUSH1 0x0 PUSH1 0xFF AND DUP2 MSTORE POP SWAP1 JUMP JUMPDEST PUSH1 0x3 PUSH1 0x0 DUP4 DUP2 MSTORE PUSH1 0x20 ADD SWAP1 DUP2 MSTORE PUSH1 0x20 ADD PUSH1 0x0 KECCAK256 PUSH1 0x40 MLOAD DUP1 PUSH1 0xC0 ADD PUSH1 0x40 MSTORE SWAP1 DUP2 PUSH1 0x0 DUP3 ADD SLOAD DUP2 MSTORE PUSH1 0x20 ADD PUSH1 0x1 DUP3 ADD DUP1 SLOAD PUSH2 0x582 SWAP1 PUSH2 0x1016 JUMP JUMPDEST DUP1 PUSH1 0x1F ADD PUSH1 0x20 DUP1 SWAP2 DIV MUL PUSH1 0x20 ADD PUSH1 0x40 MLOAD SWAP1 DUP2 ADD PUSH1 0x40 MSTORE DUP1 SWAP3 SWAP2 SWAP1 DUP2 DUP2 MSTORE PUSH1 0x20 ADD DUP3 DUP1 SLOAD PUSH2 0x5AE SWAP1 PUSH2 0x1016 JUMP JUMPDEST DUP1 ISZERO PUSH2 0x5FB JUMPI DUP1 PUSH1 0x1F LT PUSH2 0x5D0 JUMPI PUSH2 0x100 DUP1 DUP4 SLOAD DIV MUL DUP4 MSTORE SWAP2 PUSH1 0x20 ADD SWAP2 PUSH2 0x5FB JUMP JUMPDEST DUP3 ADD SWAP2 SWAP1 PUSH1 0x0 MSTORE PUSH1 0x20 PUSH1 0x0 KECCAK256 SWAP1 JUMPDEST DUP2 SLOAD DUP2 MSTORE SWAP1 PUSH1 0x1 ADD SWAP1 PUSH1 0x20 ADD DUP1 DUP4 GT PUSH2 0x5DE JUMPI DUP3 SWAP1 SUB PUSH1 0x1F AND DUP3 ADD SWAP2 JUMPDEST POP POP POP POP POP DUP2 MSTORE PUSH1 0x20 ADD PUSH1 0x2 DUP3 ADD DUP1 SLOAD PUSH2 0x614 SWAP1 PUSH2 0x1016 JUMP JUMPDEST DUP1 PUSH1 0x1F ADD PUSH1 0x20 DUP1 SWAP2 DIV MUL PUSH1 0x20 ADD PUSH1 0x40 MLOAD SWAP1 DUP2 ADD PUSH1 0x40 MSTORE DUP1 SWAP3 SWAP2 SWAP1 DUP2 DUP2 MSTORE PUSH1 0x20 ADD DUP3 DUP1 SLOAD PUSH2 0x640 SWAP1 PUSH2 0x1016 JUMP JUMPDEST DUP1 ISZERO PUSH2 0x68D JUMPI DUP1 PUSH1 0x1F LT PUSH2 0x662 JUMPI PUSH2 0x100 DUP1 DUP4 SLOAD DIV MUL DUP4 MSTORE SWAP2 PUSH1 0x20 ADD SWAP2 PUSH2 0x68D JUMP JUMPDEST DUP3 ADD SWAP2 SWAP1 PUSH1 0x0 MSTORE PUSH1 0x20 PUSH1 0x0 KECCAK256 SWAP1 JUMPDEST DUP2 SLOAD DUP2 MSTORE SWAP1 PUSH1 0x1 ADD SWAP1 PUSH1 0x20 ADD DUP1 DUP4 GT PUSH2 0x670 JUMPI DUP3 SWAP1 SUB PUSH1 0x1F AND DUP3 ADD SWAP2 JUMPDEST POP POP POP SWAP2 DUP4 MSTORE POP POP PUSH1 0x3 DUP3 ADD SLOAD PUSH1 0x20 DUP3 ADD MSTORE PUSH1 0x4 SWAP1 SWAP2 ADD SLOAD PUSH1 0xFF DUP1 DUP3 AND PUSH1 0x40 DUP5 ADD MSTORE PUSH2 0x100 SWAP1 SWAP2 DIV AND PUSH1 0x60 SWAP1 SWAP2 ADD MSTORE SWAP3 SWAP2 POP POP JUMP JUMPDEST PUSH1 0x2 SLOAD PUSH1 0x1 PUSH1 0x1 PUSH1 0xA0 SHL SUB AND CALLER EQ PUSH2 0x6EC JUMPI PUSH1 0x40 MLOAD PUSH3 0x461BCD PUSH1 0xE5 SHL DUP2 MSTORE PUSH1 0x4 ADD PUSH2 0x211 SWAP1 PUSH2 0x1050 JUMP JUMPDEST PUSH1 0x40 MLOAD DUP1 PUSH1 0xC0 ADD PUSH1 0x40 MSTORE DUP1 PUSH1 0x4 PUSH1 0x0 DUP2 SLOAD PUSH2 0x706 SWAP1 PUSH2 0x11BB JUMP JUMPDEST SWAP2 DUP3 SWAP1 SSTORE POP DUP2 MSTORE PUSH1 0x20 DUP1 DUP3 ADD DUP7 SWAP1 MSTORE PUSH1 0x40 DUP1 DUP4 ADD DUP7 SWAP1 MSTORE PUSH1 0x60 DUP4 ADD DUP6 SWAP1 MSTORE PUSH1 0x0 PUSH1 0x80 DUP5 ADD DUP2 SWAP1 MSTORE PUSH1 0xA0 SWAP1 SWAP4 ADD DUP4 SWAP1 MSTORE PUSH1 0x4 SLOAD DUP4 MSTORE PUSH1 0x3 DUP3 MSTORE SWAP1 SWAP2 KECCAK256 DUP3 MLOAD DUP2 SSTORE SWAP1 DUP3 ADD MLOAD PUSH1 0x1 DUP3 ADD SWAP1 PUSH2 0x758 SWAP1 DUP3 PUSH2 0x10FB JUMP JUMPDEST POP PUSH1 0x40 DUP3 ADD MLOAD PUSH1 0x2 DUP3 ADD SWAP1 PUSH2 0x76D SWAP1 DUP3 PUSH2 0x10FB JUMP JUMPDEST POP PUSH1 0x60 DUP3 ADD MLOAD PUSH1 0x3 DUP3 ADD SSTORE PUSH1 0x80 DUP3 ADD MLOAD PUSH1 0x4 SWAP1 SWAP2 ADD DUP1 SLOAD PUSH1 0xA0 SWAP1 SWAP4 ADD MLOAD PUSH1 0xFF SWAP1 DUP2 AND PUSH2 0x100 MUL PUSH2 0xFFFF NOT SWAP1 SWAP5 AND SWAP3 AND SWAP2 SWAP1 SWAP2 OR SWAP2 SWAP1 SWAP2 OR SWAP1 SSTORE POP POP POP JUMP JUMPDEST PUSH1 0x60 PUSH1 0x0 PUSH1 0x4 SLOAD PUSH8 0xFFFFFFFFFFFFFFFF DUP2 GT ISZERO PUSH2 0x7CA JUMPI PUSH2 0x7CA PUSH2 0xD43 JUMP JUMPDEST PUSH1 0x40 MLOAD SWAP1 DUP1 DUP3 MSTORE DUP1 PUSH1 0x20 MUL PUSH1 0x20 ADD DUP3 ADD PUSH1 0x40 MSTORE DUP1 ISZERO PUSH2 0x83A JUMPI DUP2 PUSH1 0x20 ADD JUMPDEST PUSH2 0x827 PUSH1 0x40 MLOAD DUP1 PUSH1 0xC0 ADD PUSH1 0x40 MSTORE DUP1 PUSH1 0x0 DUP2 MSTORE PUSH1 0x20 ADD PUSH1 0x60 DUP2 MSTORE PUSH1 0x20 ADD PUSH1 0x60 DUP2 MSTORE PUSH1 0x20 ADD PUSH1 0x0 DUP2 MSTORE PUSH1 0x20 ADD PUSH1 0x0 PUSH1 0xFF AND DUP2 MSTORE PUSH1 0x20 ADD PUSH1 0x0 PUSH1 0xFF AND DUP2 MSTORE POP SWAP1 JUMP JUMPDEST DUP2 MSTORE PUSH1 0x20 ADD SWAP1 PUSH1 0x1 SWAP1 SUB SWAP1 DUP2 PUSH2 0x7E8 JUMPI SWAP1 POP JUMPDEST POP SWAP1 POP PUSH1 0x0 JUMPDEST PUSH1 0x4 SLOAD DUP2 LT ISZERO PUSH2 0xA40 JUMPI PUSH1 0x0 PUSH1 0x3 DUP2 PUSH2 0x85A DUP5 PUSH1 0x1 PUSH2 0x11D4 JUMP JUMPDEST DUP2 MSTORE PUSH1 0x20 ADD SWAP1 DUP2 MSTORE PUSH1 0x20 ADD PUSH1 0x0 KECCAK256 PUSH1 0x40 MLOAD DUP1 PUSH1 0xC0 ADD PUSH1 0x40 MSTORE SWAP1 DUP2 PUSH1 0x0 DUP3 ADD SLOAD DUP2 MSTORE PUSH1 0x20 ADD PUSH1 0x1 DUP3 ADD DUP1 SLOAD PUSH2 0x88D SWAP1 PUSH2 0x1016 JUMP JUMPDEST DUP1 PUSH1 0x1F ADD PUSH1 0x20 DUP1 SWAP2 DIV MUL PUSH1 0x20 ADD PUSH1 0x40 MLOAD SWAP1 DUP2 ADD PUSH1 0x40 MSTORE DUP1 SWAP3 SWAP2 SWAP1 DUP2 DUP2 MSTORE PUSH1 0x20 ADD DUP3 DUP1 SLOAD PUSH2 0x8B9 SWAP1 PUSH2 0x1016 JUMP JUMPDEST DUP1 ISZERO PUSH2 0x906 JUMPI DUP1 PUSH1 0x1F LT PUSH2 0x8DB JUMPI PUSH2 0x100 DUP1 DUP4 SLOAD DIV MUL DUP4 MSTORE SWAP2 PUSH1 0x20 ADD SWAP2 PUSH2 0x906 JUMP JUMPDEST DUP3 ADD SWAP2 SWAP1 PUSH1 0x0 MSTORE PUSH1 0x20 PUSH1 0x0 KECCAK256 SWAP1 JUMPDEST DUP2 SLOAD DUP2 MSTORE SWAP1 PUSH1 0x1 ADD SWAP1 PUSH1 0x20 ADD DUP1 DUP4 GT PUSH2 0x8E9 JUMPI DUP3 SWAP1 SUB PUSH1 0x1F AND DUP3 ADD SWAP2 JUMPDEST POP POP POP POP POP DUP2 MSTORE PUSH1 0x20 ADD PUSH1 0x2 DUP3 ADD DUP1 SLOAD PUSH2 0x91F SWAP1 PUSH2 0x1016 JUMP JUMPDEST DUP1 PUSH1 0x1F ADD PUSH1 0x20 DUP1 SWAP2 DIV MUL PUSH1 0x20 ADD PUSH1 0x40 MLOAD SWAP1 DUP2 ADD PUSH1 0x40 MSTORE DUP1 SWAP3 SWAP2 SWAP1 DUP2 DUP2 MSTORE PUSH1 0x20 ADD DUP3 DUP1 SLOAD PUSH2 0x94B SWAP1 PUSH2 0x1016 JUMP JUMPDEST DUP1 ISZERO PUSH2 0x998 JUMPI DUP1 PUSH1 0x1F LT PUSH2 0x96D JUMPI PUSH2 0x100 DUP1 DUP4 SLOAD DIV MUL DUP4 MSTORE SWAP2 PUSH1 0x20 ADD SWAP2 PUSH2 0x998 JUMP JUMPDEST DUP3 ADD SWAP2 SWAP1 PUSH1 0x0 MSTORE PUSH1 0x20 PUSH1 0x0 KECCAK256 SWAP1 JUMPDEST DUP2 SLOAD DUP2 MSTORE SWAP1 PUSH1 0x1 ADD SWAP1 PUSH1 0x20 ADD DUP1 DUP4 GT PUSH2 0x97B JUMPI DUP3 SWAP1 SUB PUSH1 0x1F AND DUP3 ADD SWAP2 JUMPDEST POP POP POP SWAP2 DUP4 MSTORE POP POP PUSH1 0x3 DUP3 ADD SLOAD PUSH1 0x20 DUP1 DUP4 ADD SWAP2 SWAP1 SWAP2 MSTORE PUSH1 0x4 SWAP1 SWAP3 ADD SLOAD PUSH1 0xFF DUP1 DUP3 AND PUSH1 0x40 DUP1 DUP6 ADD SWAP2 SWAP1 SWAP2 MSTORE PUSH2 0x100 SWAP1 SWAP3 DIV AND PUSH1 0x60 SWAP1 SWAP3 ADD SWAP2 SWAP1 SWAP2 MSTORE DUP1 MLOAD DUP1 DUP3 ADD SWAP1 SWAP2 MSTORE PUSH1 0x8 DUP2 MSTORE PUSH8 0x23B0B6B29034B21 PUSH1 0xC5 SHL SWAP2 DUP2 ADD SWAP2 SWAP1 SWAP2 MSTORE DUP2 MLOAD SWAP2 SWAP3 POP PUSH2 0x9FF SWAP2 PUSH2 0xC05 JUMP JUMPDEST DUP1 MLOAD PUSH1 0x0 SUB PUSH2 0xA0E JUMPI POP PUSH2 0xA2E JUMP JUMPDEST DUP1 DUP4 DUP4 DUP2 MLOAD DUP2 LT PUSH2 0xA21 JUMPI PUSH2 0xA21 PUSH2 0x11E7 JUMP JUMPDEST PUSH1 0x20 MUL PUSH1 0x20 ADD ADD DUP2 SWAP1 MSTORE POP POP JUMPDEST DUP1 PUSH2 0xA38 DUP2 PUSH2 0x11BB JUMP JUMPDEST SWAP2 POP POP PUSH2 0x840 JUMP JUMPDEST POP PUSH2 0xA78 PUSH1 0x40 MLOAD DUP1 PUSH1 0x40 ADD PUSH1 0x40 MSTORE DUP1 PUSH1 0x14 DUP2 MSTORE PUSH1 0x20 ADD PUSH20 0xCCCAE8C6D0CAC8408EC2DACAE640D8CADCCEE8D PUSH1 0x63 SHL DUP2 MSTORE POP DUP3 MLOAD PUSH2 0xC05 JUMP JUMPDEST SWAP2 SWAP1 POP JUMP JUMPDEST PUSH1 0x0 SLOAD PUSH2 0x100 SWAP1 DIV PUSH1 0xFF AND ISZERO DUP1 DUP1 ISZERO PUSH2 0xA9D JUMPI POP PUSH1 0x0 SLOAD PUSH1 0x1 PUSH1 0xFF SWAP1 SWAP2 AND LT JUMPDEST DUP1 PUSH2 0xAB7 JUMPI POP ADDRESS EXTCODESIZE ISZERO DUP1 ISZERO PUSH2 0xAB7 JUMPI POP PUSH1 0x0 SLOAD PUSH1 0xFF AND PUSH1 0x1 EQ JUMPDEST PUSH2 0xB1A JUMPI PUSH1 0x40 MLOAD PUSH3 0x461BCD PUSH1 0xE5 SHL DUP2 MSTORE PUSH1 0x20 PUSH1 0x4 DUP3 ADD MSTORE PUSH1 0x2E PUSH1 0x24 DUP3 ADD MSTORE PUSH32 0x496E697469616C697A61626C653A20636F6E747261637420697320616C726561 PUSH1 0x44 DUP3 ADD MSTORE PUSH14 0x191E481A5B9A5D1A585B1A5E9959 PUSH1 0x92 SHL PUSH1 0x64 DUP3 ADD MSTORE PUSH1 0x84 ADD PUSH2 0x211 JUMP JUMPDEST PUSH1 0x0 DUP1 SLOAD PUSH1 0xFF NOT AND PUSH1 0x1 OR SWAP1 SSTORE DUP1 ISZERO PUSH2 0xB3D JUMPI PUSH1 0x0 DUP1 SLOAD PUSH2 0xFF00 NOT AND PUSH2 0x100 OR SWAP1 SSTORE JUMPDEST PUSH1 0x1 PUSH2 0xB49 DUP4 DUP3 PUSH2 0x10FB JUMP JUMPDEST POP PUSH1 0x2 DUP1 SLOAD PUSH1 0x1 PUSH1 0x1 PUSH1 0xA0 SHL SUB NOT AND CALLER OR SWAP1 SSTORE PUSH1 0x0 PUSH1 0x4 SSTORE DUP1 ISZERO PUSH2 0xBA7 JUMPI PUSH1 0x0 DUP1 SLOAD PUSH2 0xFF00 NOT AND SWAP1 SSTORE PUSH1 0x40 MLOAD PUSH1 0x1 DUP2 MSTORE PUSH32 0x7F26B83FF96E1F2B6A682F133852F6798A09C465DA95921460CEFB3847402498 SWAP1 PUSH1 0x20 ADD PUSH1 0x40 MLOAD DUP1 SWAP2 SUB SWAP1 LOG1 JUMPDEST POP POP JUMP JUMPDEST PUSH1 0x0 DUP2 PUSH1 0x40 MLOAD PUSH1 0x20 ADD PUSH2 0xBBE SWAP2 SWAP1 PUSH2 0x11FD JUMP JUMPDEST PUSH1 0x40 MLOAD PUSH1 0x20 DUP2 DUP4 SUB SUB DUP2 MSTORE SWAP1 PUSH1 0x40 MSTORE DUP1 MLOAD SWAP1 PUSH1 0x20 ADD KECCAK256 DUP4 PUSH1 0x40 MLOAD PUSH1 0x20 ADD PUSH2 0xBE5 SWAP2 SWAP1 PUSH2 0x11FD JUMP JUMPDEST PUSH1 0x40 MLOAD PUSH1 0x20 DUP2 DUP4 SUB SUB DUP2 MSTORE SWAP1 PUSH1 0x40 MSTORE DUP1 MLOAD SWAP1 PUSH1 0x20 ADD KECCAK256 EQ SWAP1 POP JUMPDEST SWAP3 SWAP2 POP POP JUMP JUMPDEST PUSH2 0xBA7 DUP3 DUP3 PUSH1 0x40 MLOAD PUSH1 0x24 ADD PUSH2 0xC1B SWAP3 SWAP2 SWAP1 PUSH2 0x1219 JUMP JUMPDEST PUSH1 0x40 DUP1 MLOAD PUSH1 0x1F NOT DUP2 DUP5 SUB ADD DUP2 MSTORE SWAP2 SWAP1 MSTORE PUSH1 0x20 DUP2 ADD DUP1 MLOAD PUSH1 0x1 PUSH1 0x1 PUSH1 0xE0 SHL SUB AND PUSH4 0x2D839CB3 PUSH1 0xE2 SHL OR SWAP1 MSTORE PUSH2 0xC4E DUP2 PUSH2 0xC51 JUMP JUMPDEST POP JUMP JUMPDEST PUSH1 0x0 PUSH11 0x636F6E736F6C652E6C6F67 SWAP1 POP PUSH1 0x0 DUP1 DUP4 MLOAD PUSH1 0x20 DUP6 ADD DUP5 GAS STATICCALL POP POP POP JUMP JUMPDEST POP DUP1 SLOAD PUSH2 0xC7E SWAP1 PUSH2 0x1016 JUMP JUMPDEST PUSH1 0x0 DUP3 SSTORE DUP1 PUSH1 0x1F LT PUSH2 0xC8E JUMPI POP POP JUMP JUMPDEST PUSH1 0x1F ADD PUSH1 0x20 SWAP1 DIV SWAP1 PUSH1 0x0 MSTORE PUSH1 0x20 PUSH1 0x0 KECCAK256 SWAP1 DUP2 ADD SWAP1 PUSH2 0xC4E SWAP2 SWAP1 JUMPDEST DUP1 DUP3 GT ISZERO PUSH2 0xCBC JUMPI PUSH1 0x0 DUP2 SSTORE PUSH1 0x1 ADD PUSH2 0xCA8 JUMP JUMPDEST POP SWAP1 JUMP JUMPDEST PUSH1 0x0 JUMPDEST DUP4 DUP2 LT ISZERO PUSH2 0xCDB JUMPI DUP2 DUP2 ADD MLOAD DUP4 DUP3 ADD MSTORE PUSH1 0x20 ADD PUSH2 0xCC3 JUMP JUMPDEST POP POP PUSH1 0x0 SWAP2 ADD MSTORE JUMP JUMPDEST PUSH1 0x0 DUP2 MLOAD DUP1 DUP5 MSTORE PUSH2 0xCFC DUP2 PUSH1 0x20 DUP7 ADD PUSH1 0x20 DUP7 ADD PUSH2 0xCC0 JUMP JUMPDEST PUSH1 0x1F ADD PUSH1 0x1F NOT AND SWAP3 SWAP1 SWAP3 ADD PUSH1 0x20 ADD SWAP3 SWAP2 POP POP JUMP JUMPDEST PUSH1 0x20 DUP2 MSTORE PUSH1 0x0 PUSH2 0xD23 PUSH1 0x20 DUP4 ADD DUP5 PUSH2 0xCE4 JUMP JUMPDEST SWAP4 SWAP3 POP POP POP JUMP JUMPDEST PUSH1 0x0 PUSH1 0x20 DUP3 DUP5 SUB SLT ISZERO PUSH2 0xD3C JUMPI PUSH1 0x0 DUP1 REVERT JUMPDEST POP CALLDATALOAD SWAP2 SWAP1 POP JUMP JUMPDEST PUSH4 0x4E487B71 PUSH1 0xE0 SHL PUSH1 0x0 MSTORE PUSH1 0x41 PUSH1 0x4 MSTORE PUSH1 0x24 PUSH1 0x0 REVERT JUMPDEST PUSH1 0x0 DUP3 PUSH1 0x1F DUP4 ADD SLT PUSH2 0xD6A JUMPI PUSH1 0x0 DUP1 REVERT JUMPDEST DUP2 CALLDATALOAD PUSH8 0xFFFFFFFFFFFFFFFF DUP1 DUP3 GT ISZERO PUSH2 0xD85 JUMPI PUSH2 0xD85 PUSH2 0xD43 JUMP JUMPDEST PUSH1 0x40 MLOAD PUSH1 0x1F DUP4 ADD PUSH1 0x1F NOT SWAP1 DUP2 AND PUSH1 0x3F ADD AND DUP2 ADD SWAP1 DUP3 DUP3 GT DUP2 DUP4 LT OR ISZERO PUSH2 0xDAD JUMPI PUSH2 0xDAD PUSH2 0xD43 JUMP JUMPDEST DUP2 PUSH1 0x40 MSTORE DUP4 DUP2 MSTORE DUP7 PUSH1 0x20 DUP6 DUP9 ADD ADD GT ISZERO PUSH2 0xDC6 JUMPI PUSH1 0x0 DUP1 REVERT JUMPDEST DUP4 PUSH1 0x20 DUP8 ADD PUSH1 0x20 DUP4 ADD CALLDATACOPY PUSH1 0x0 PUSH1 0x20 DUP6 DUP4 ADD ADD MSTORE DUP1 SWAP5 POP POP POP POP POP SWAP3 SWAP2 POP POP JUMP JUMPDEST DUP1 CALLDATALOAD PUSH1 0xFF DUP2 AND DUP2 EQ PUSH2 0xA78 JUMPI PUSH1 0x0 DUP1 REVERT JUMPDEST PUSH1 0x0 DUP1 PUSH1 0x0 DUP1 PUSH1 0x0 DUP1 PUSH1 0xC0 DUP8 DUP10 SUB SLT ISZERO PUSH2 0xE10 JUMPI PUSH1 0x0 DUP1 REVERT JUMPDEST DUP7 CALLDATALOAD SWAP6 POP PUSH1 0x20 DUP8 ADD CALLDATALOAD PUSH8 0xFFFFFFFFFFFFFFFF DUP1 DUP3 GT ISZERO PUSH2 0xE2F JUMPI PUSH1 0x0 DUP1 REVERT JUMPDEST PUSH2 0xE3B DUP11 DUP4 DUP12 ADD PUSH2 0xD59 JUMP JUMPDEST SWAP7 POP PUSH1 0x40 DUP10 ADD CALLDATALOAD SWAP2 POP DUP1 DUP3 GT ISZERO PUSH2 0xE51 JUMPI PUSH1 0x0 DUP1 REVERT JUMPDEST POP PUSH2 0xE5E DUP10 DUP3 DUP11 ADD PUSH2 0xD59 JUMP JUMPDEST SWAP5 POP POP PUSH1 0x60 DUP8 ADD CALLDATALOAD SWAP3 POP PUSH2 0xE74 PUSH1 0x80 DUP9 ADD PUSH2 0xDE6 JUMP JUMPDEST SWAP2 POP PUSH2 0xE82 PUSH1 0xA0 DUP9 ADD PUSH2 0xDE6 JUMP JUMPDEST SWAP1 POP SWAP3 SWAP6 POP SWAP3 SWAP6 POP SWAP3 SWAP6 JUMP JUMPDEST DUP1 MLOAD DUP3 MSTORE PUSH1 0x0 PUSH1 0x20 DUP3 ADD MLOAD PUSH1 0xC0 PUSH1 0x20 DUP6 ADD MSTORE PUSH2 0xEAD PUSH1 0xC0 DUP6 ADD DUP3 PUSH2 0xCE4 JUMP JUMPDEST SWAP1 POP PUSH1 0x40 DUP4 ADD MLOAD DUP5 DUP3 SUB PUSH1 0x40 DUP7 ADD MSTORE PUSH2 0xEC6 DUP3 DUP3 PUSH2 0xCE4 JUMP JUMPDEST SWAP2 POP POP PUSH1 0x60 DUP4 ADD MLOAD PUSH1 0x60 DUP6 ADD MSTORE PUSH1 0xFF PUSH1 0x80 DUP5 ADD MLOAD AND PUSH1 0x80 DUP6 ADD MSTORE PUSH1 0xFF PUSH1 0xA0 DUP5 ADD MLOAD AND PUSH1 0xA0 DUP6 ADD MSTORE DUP1 SWAP2 POP POP SWAP3 SWAP2 POP POP JUMP JUMPDEST PUSH1 0x20 DUP2 MSTORE PUSH1 0x0 PUSH2 0xD23 PUSH1 0x20 DUP4 ADD DUP5 PUSH2 0xE8E JUMP JUMPDEST PUSH1 0x0 DUP1 PUSH1 0x0 PUSH1 0x60 DUP5 DUP7 SUB SLT ISZERO PUSH2 0xF1F JUMPI PUSH1 0x0 DUP1 REVERT JUMPDEST DUP4 CALLDATALOAD PUSH8 0xFFFFFFFFFFFFFFFF DUP1 DUP3 GT ISZERO PUSH2 0xF37 JUMPI PUSH1 0x0 DUP1 REVERT JUMPDEST PUSH2 0xF43 DUP8 DUP4 DUP9 ADD PUSH2 0xD59 JUMP JUMPDEST SWAP5 POP PUSH1 0x20 DUP7 ADD CALLDATALOAD SWAP2 POP DUP1 DUP3 GT ISZERO PUSH2 0xF59 JUMPI PUSH1 0x0 DUP1 REVERT JUMPDEST POP PUSH2 0xF66 DUP7 DUP3 DUP8 ADD PUSH2 0xD59 JUMP JUMPDEST SWAP3 POP POP PUSH1 0x40 DUP5 ADD CALLDATALOAD SWAP1 POP SWAP3 POP SWAP3 POP SWAP3 JUMP JUMPDEST PUSH1 0x0 PUSH1 0x20 DUP1 DUP4 ADD DUP2 DUP5 MSTORE DUP1 DUP6 MLOAD DUP1 DUP4 MSTORE PUSH1 0x40 DUP7 ADD SWAP2 POP PUSH1 0x40 DUP2 PUSH1 0x5 SHL DUP8 ADD ADD SWAP3 POP DUP4 DUP8 ADD PUSH1 0x0 JUMPDEST DUP3 DUP2 LT ISZERO PUSH2 0xFCC JUMPI PUSH1 0x3F NOT DUP9 DUP7 SUB ADD DUP5 MSTORE PUSH2 0xFBA DUP6 DUP4 MLOAD PUSH2 0xE8E JUMP JUMPDEST SWAP5 POP SWAP3 DUP6 ADD SWAP3 SWAP1 DUP6 ADD SWAP1 PUSH1 0x1 ADD PUSH2 0xF9E JUMP JUMPDEST POP SWAP3 SWAP8 SWAP7 POP POP POP POP POP POP POP JUMP JUMPDEST PUSH1 0x0 PUSH1 0x20 DUP3 DUP5 SUB SLT ISZERO PUSH2 0xFEB JUMPI PUSH1 0x0 DUP1 REVERT JUMPDEST DUP2 CALLDATALOAD PUSH8 0xFFFFFFFFFFFFFFFF DUP2 GT ISZERO PUSH2 0x1002 JUMPI PUSH1 0x0 DUP1 REVERT JUMPDEST PUSH2 0x100E DUP5 DUP3 DUP6 ADD PUSH2 0xD59 JUMP JUMPDEST SWAP5 SWAP4 POP POP POP POP JUMP JUMPDEST PUSH1 0x1 DUP2 DUP2 SHR SWAP1 DUP3 AND DUP1 PUSH2 0x102A JUMPI PUSH1 0x7F DUP3 AND SWAP2 POP JUMPDEST PUSH1 0x20 DUP3 LT DUP2 SUB PUSH2 0x104A JUMPI PUSH4 0x4E487B71 PUSH1 0xE0 SHL PUSH1 0x0 MSTORE PUSH1 0x22 PUSH1 0x4 MSTORE PUSH1 0x24 PUSH1 0x0 REVERT JUMPDEST POP SWAP2 SWAP1 POP JUMP JUMPDEST PUSH1 0x20 DUP1 DUP3 MSTORE PUSH1 0x15 SWAP1 DUP3 ADD MSTORE PUSH21 0x556E617574686F72697A6564207265717565737421 PUSH1 0x58 SHL PUSH1 0x40 DUP3 ADD MSTORE PUSH1 0x60 ADD SWAP1 JUMP JUMPDEST PUSH4 0x4E487B71 PUSH1 0xE0 SHL PUSH1 0x0 MSTORE PUSH1 0x11 PUSH1 0x4 MSTORE PUSH1 0x24 PUSH1 0x0 REVERT JUMPDEST PUSH1 0x0 DUP2 PUSH2 0x10A4 JUMPI PUSH2 0x10A4 PUSH2 0x107F JUMP JUMPDEST POP PUSH1 0x0 NOT ADD SWAP1 JUMP JUMPDEST PUSH1 0x1F DUP3 GT ISZERO PUSH2 0x10F6 JUMPI PUSH1 0x0 DUP2 DUP2 MSTORE PUSH1 0x20 DUP2 KECCAK256 PUSH1 0x1F DUP6 ADD PUSH1 0x5 SHR DUP2 ADD PUSH1 0x20 DUP7 LT ISZERO PUSH2 0x10D3 JUMPI POP DUP1 JUMPDEST PUSH1 0x1F DUP6 ADD PUSH1 0x5 SHR DUP3 ADD SWAP2 POP JUMPDEST DUP2 DUP2 LT ISZERO PUSH2 0x10F2 JUMPI DUP3 DUP2 SSTORE PUSH1 0x1 ADD PUSH2 0x10DF JUMP JUMPDEST POP POP POP JUMPDEST POP POP POP JUMP JUMPDEST DUP2 MLOAD PUSH8 0xFFFFFFFFFFFFFFFF DUP2 GT ISZERO PUSH2 0x1115 JUMPI PUSH2 0x1115 PUSH2 0xD43 JUMP JUMPDEST PUSH2 0x1129 DUP2 PUSH2 0x1123 DUP5 SLOAD PUSH2 0x1016 JUMP JUMPDEST DUP5 PUSH2 0x10AC JUMP JUMPDEST PUSH1 0x20 DUP1 PUSH1 0x1F DUP4 GT PUSH1 0x1 DUP2 EQ PUSH2 0x115E JUMPI PUSH1 0x0 DUP5 ISZERO PUSH2 0x1146 JUMPI POP DUP6 DUP4 ADD MLOAD JUMPDEST PUSH1 0x0 NOT PUSH1 0x3 DUP7 SWAP1 SHL SHR NOT AND PUSH1 0x1 DUP6 SWAP1 SHL OR DUP6 SSTORE PUSH2 0x10F2 JUMP JUMPDEST PUSH1 0x0 DUP6 DUP2 MSTORE PUSH1 0x20 DUP2 KECCAK256 PUSH1 0x1F NOT DUP7 AND SWAP2 JUMPDEST DUP3 DUP2 LT ISZERO PUSH2 0x118D JUMPI DUP9 DUP7 ADD MLOAD DUP3 SSTORE SWAP5 DUP5 ADD SWAP5 PUSH1 0x1 SWAP1 SWAP2 ADD SWAP1 DUP5 ADD PUSH2 0x116E JUMP JUMPDEST POP DUP6 DUP3 LT ISZERO PUSH2 0x11AB JUMPI DUP8 DUP6 ADD MLOAD PUSH1 0x0 NOT PUSH1 0x3 DUP9 SWAP1 SHL PUSH1 0xF8 AND SHR NOT AND DUP2 SSTORE JUMPDEST POP POP POP POP POP PUSH1 0x1 SWAP1 DUP2 SHL ADD SWAP1 SSTORE POP JUMP JUMPDEST PUSH1 0x0 PUSH1 0x1 DUP3 ADD PUSH2 0x11CD JUMPI PUSH2 0x11CD PUSH2 0x107F JUMP JUMPDEST POP PUSH1 0x1 ADD SWAP1 JUMP JUMPDEST DUP1 DUP3 ADD DUP1 DUP3 GT ISZERO PUSH2 0xBFF JUMPI PUSH2 0xBFF PUSH2 0x107F JUMP JUMPDEST PUSH4 0x4E487B71 PUSH1 0xE0 SHL PUSH1 0x0 MSTORE PUSH1 0x32 PUSH1 0x4 MSTORE PUSH1 0x24 PUSH1 0x0 REVERT JUMPDEST PUSH1 0x0 DUP3 MLOAD PUSH2 0x120F DUP2 DUP5 PUSH1 0x20 DUP8 ADD PUSH2 0xCC0 JUMP JUMPDEST SWAP2 SWAP1 SWAP2 ADD SWAP3 SWAP2 POP POP JUMP JUMPDEST PUSH1 0x40 DUP2 MSTORE PUSH1 0x0 PUSH2 0x122C PUSH1 0x40 DUP4 ADD DUP6 PUSH2 0xCE4 JUMP JUMPDEST SWAP1 POP DUP3 PUSH1 0x20 DUP4 ADD MSTORE SWAP4 SWAP3 POP POP POP JUMP INVALID LOG2 PUSH5 0x6970667358 0x22 SLT KECCAK256 0x2C CREATE2 0xB0 LT 0xF9 0xAE PUSH28 0x6AE9427A39A37E4688BAF5AFCADD5097170223C57DA15AE5E964736F PUSH13 0x63430008110033000000000000 "},"methodIdentifiers":{"addGame(string,string,uint256)":"a5c86b77","deleteGame(uint256)":"248a55a1","getGame(uint256)":"a2f77bcc","getGames()":"c04c5947","initialize(string)":"f62d1888","name()":"06fdde03","owner()":"8da5cb5b","updateGame(uint256,string,string,uint256,uint8,uint8)":"2652b2b5"}},"storageLayout":{"storage":[{"astId":6,"contract":"contracts/MeerkatCompetition.sol:MeerkatCompetitionV1","label":"_initialized","offset":0,"slot":"0","type":"t_uint8"},{"astId":9,"contract":"contracts/MeerkatCompetition.sol:MeerkatCompetitionV1","label":"_initializing","offset":1,"slot":"0","type":"t_bool"},{"astId":531,"contract":"contracts/MeerkatCompetition.sol:MeerkatCompetitionV1","label":"name","offset":0,"slot":"1","type":"t_string_storage"},{"astId":533,"contract":"contracts/MeerkatCompetition.sol:MeerkatCompetitionV1","label":"owner","offset":0,"slot":"2","type":"t_address"},{"astId":538,"contract":"contracts/MeerkatCompetition.sol:MeerkatCompetitionV1","label":"games","offset":0,"slot":"3","type":"t_mapping(t_uint256,t_struct(Game)518_storage)"},{"astId":540,"contract":"contracts/MeerkatCompetition.sol:MeerkatCompetitionV1","label":"numberOfGames","offset":0,"slot":"4","type":"t_uint256"},{"astId":547,"contract":"contracts/MeerkatCompetition.sol:MeerkatCompetitionV1","label":"predictions","offset":0,"slot":"5","type":"t_mapping(t_address,t_mapping(t_uint256,t_struct(Prediction)529_storage))"}],"types":{"t_address":{"encoding":"inplace","label":"address","numberOfBytes":"20"},"t_bool":{"encoding":"inplace","label":"bool","numberOfBytes":"1"},"t_mapping(t_address,t_mapping(t_uint256,t_struct(Prediction)529_storage))":{"encoding":"mapping","key":"t_address","label":"mapping(address => mapping(uint256 => struct MeerkatCompetitionV1.Prediction))","numberOfBytes":"32","value":"t_mapping(t_uint256,t_struct(Prediction)529_storage)"},"t_mapping(t_uint256,t_struct(Game)518_storage)":{"encoding":"mapping","key":"t_uint256","label":"mapping(uint256 => struct MeerkatCompetitionV1.Game)","numberOfBytes":"32","value":"t_struct(Game)518_storage"},"t_mapping(t_uint256,t_struct(Prediction)529_storage)":{"encoding":"mapping","key":"t_uint256","label":"mapping(uint256 => struct MeerkatCompetitionV1.Prediction)","numberOfBytes":"32","value":"t_struct(Prediction)529_storage"},"t_string_storage":{"encoding":"bytes","label":"string","numberOfBytes":"32"},"t_struct(Game)518_storage":{"encoding":"inplace","label":"struct MeerkatCompetitionV1.Game","members":[{"astId":507,"contract":"contracts/MeerkatCompetition.sol:MeerkatCompetitionV1","label":"id","offset":0,"slot":"0","type":"t_uint256"},{"astId":509,"contract":"contracts/MeerkatCompetition.sol:MeerkatCompetitionV1","label":"homeCompetitor","offset":0,"slot":"1","type":"t_string_storage"},{"astId":511,"contract":"contracts/MeerkatCompetition.sol:MeerkatCompetitionV1","label":"awayCompetitor","offset":0,"slot":"2","type":"t_string_storage"},{"astId":513,"contract":"contracts/MeerkatCompetition.sol:MeerkatCompetitionV1","label":"startTime","offset":0,"slot":"3","type":"t_uint256"},{"astId":515,"contract":"contracts/MeerkatCompetition.sol:MeerkatCompetitionV1","label":"homeScore","offset":0,"slot":"4","type":"t_uint8"},{"astId":517,"contract":"contracts/MeerkatCompetition.sol:MeerkatCompetitionV1","label":"awayScore","offset":1,"slot":"4","type":"t_uint8"}],"numberOfBytes":"160"},"t_struct(Prediction)529_storage":{"encoding":"inplace","label":"struct MeerkatCompetitionV1.Prediction","members":[{"astId":520,"contract":"contracts/MeerkatCompetition.sol:MeerkatCompetitionV1","label":"id","offset":0,"slot":"0","type":"t_uint256"},{"astId":522,"contract":"contracts/MeerkatCompetition.sol:MeerkatCompetitionV1","label":"competitionId","offset":0,"slot":"1","type":"t_uint256"},{"astId":524,"contract":"contracts/MeerkatCompetition.sol:MeerkatCompetitionV1","label":"gameId","offset":0,"slot":"2","type":"t_uint256"},{"astId":526,"contract":"contracts/MeerkatCompetition.sol:MeerkatCompetitionV1","label":"homeScore","offset":0,"slot":"3","type":"t_uint8"},{"astId":528,"contract":"contracts/MeerkatCompetition.sol:MeerkatCompetitionV1","label":"awayScore","offset":1,"slot":"3","type":"t_uint8"}],"numberOfBytes":"128"},"t_uint256":{"encoding":"inplace","label":"uint256","numberOfBytes":"32"},"t_uint8":{"encoding":"inplace","label":"uint8","numberOfBytes":"1"}}}}}}