{
  "_format": "hh-sol-artifact-1",
  "contractName": "MeerkatCompetitionV1",
  "sourceName": "contracts/MeerkatCompetitionV1.sol",
  "abi": [
    {
      "anonymous": false,
      "inputs": [
        {
          "indexed": false,
          "internalType": "string",
          "name": "_name",
          "type": "string"
        },
        {
          "indexed": false,
          "internalType": "address",
          "name": "_owner",
          "type": "address"
        }
      ],
      "name": "CompetitionInitialized",
      "type": "event"
    },
    {
      "anonymous": false,
      "inputs": [
        {
          "indexed": false,
          "internalType": "uint8",
          "name": "version",
          "type": "uint8"
        }
      ],
      "name": "Initialized",
      "type": "event"
    },
    {
      "inputs": [
        {
          "internalType": "string",
          "name": "_homeCompetitor",
          "type": "string"
        },
        {
          "internalType": "string",
          "name": "_awayCompetitor",
          "type": "string"
        },
        {
          "internalType": "uint256",
          "name": "_startTime",
          "type": "uint256"
        }
      ],
      "name": "addGame",
      "outputs": [],
      "stateMutability": "nonpayable",
      "type": "function"
    },
    {
      "inputs": [
        {
          "internalType": "uint256",
          "name": "_gameId",
          "type": "uint256"
        },
        {
          "internalType": "uint8",
          "name": "_homeScore",
          "type": "uint8"
        },
        {
          "internalType": "uint8",
          "name": "_awayScore",
          "type": "uint8"
        }
      ],
      "name": "addOrUpdatePrediction",
      "outputs": [],
      "stateMutability": "nonpayable",
      "type": "function"
    },
    {
      "inputs": [
        {
          "internalType": "uint256",
          "name": "_gameId",
          "type": "uint256"
        }
      ],
      "name": "deleteGame",
      "outputs": [],
      "stateMutability": "nonpayable",
      "type": "function"
    },
    {
      "inputs": [
        {
          "internalType": "uint256",
          "name": "_gameId",
          "type": "uint256"
        }
      ],
      "name": "getGame",
      "outputs": [
        {
          "components": [
            {
              "internalType": "uint256",
              "name": "id",
              "type": "uint256"
            },
            {
              "internalType": "string",
              "name": "homeCompetitor",
              "type": "string"
            },
            {
              "internalType": "string",
              "name": "awayCompetitor",
              "type": "string"
            },
            {
              "internalType": "uint256",
              "name": "startTime",
              "type": "uint256"
            },
            {
              "internalType": "uint8",
              "name": "homeScore",
              "type": "uint8"
            },
            {
              "internalType": "uint8",
              "name": "awayScore",
              "type": "uint8"
            },
            {
              "internalType": "bool",
              "name": "isFinalized",
              "type": "bool"
            }
          ],
          "internalType": "struct MeerkatCompetitionV1.Game",
          "name": "",
          "type": "tuple"
        }
      ],
      "stateMutability": "view",
      "type": "function"
    },
    {
      "inputs": [],
      "name": "getGames",
      "outputs": [
        {
          "components": [
            {
              "internalType": "uint256",
              "name": "id",
              "type": "uint256"
            },
            {
              "internalType": "string",
              "name": "homeCompetitor",
              "type": "string"
            },
            {
              "internalType": "string",
              "name": "awayCompetitor",
              "type": "string"
            },
            {
              "internalType": "uint256",
              "name": "startTime",
              "type": "uint256"
            },
            {
              "internalType": "uint8",
              "name": "homeScore",
              "type": "uint8"
            },
            {
              "internalType": "uint8",
              "name": "awayScore",
              "type": "uint8"
            },
            {
              "internalType": "bool",
              "name": "isFinalized",
              "type": "bool"
            }
          ],
          "internalType": "struct MeerkatCompetitionV1.Game[]",
          "name": "",
          "type": "tuple[]"
        }
      ],
      "stateMutability": "view",
      "type": "function"
    },
    {
      "inputs": [],
      "name": "getPoints",
      "outputs": [
        {
          "components": [
            {
              "internalType": "address",
              "name": "user",
              "type": "address"
            },
            {
              "internalType": "uint8",
              "name": "points",
              "type": "uint8"
            },
            {
              "internalType": "uint8",
              "name": "correctPredictions",
              "type": "uint8"
            },
            {
              "internalType": "uint8",
              "name": "correctOutcomes",
              "type": "uint8"
            },
            {
              "internalType": "uint8",
              "name": "totalNumberOfPredictions",
              "type": "uint8"
            }
          ],
          "internalType": "struct MeerkatCompetitionV1.UserScore[]",
          "name": "",
          "type": "tuple[]"
        }
      ],
      "stateMutability": "view",
      "type": "function"
    },
    {
      "inputs": [
        {
          "internalType": "uint256",
          "name": "_gameId",
          "type": "uint256"
        }
      ],
      "name": "getPrediction",
      "outputs": [
        {
          "components": [
            {
              "internalType": "uint256",
              "name": "gameId",
              "type": "uint256"
            },
            {
              "internalType": "uint8",
              "name": "homeScore",
              "type": "uint8"
            },
            {
              "internalType": "uint8",
              "name": "awayScore",
              "type": "uint8"
            }
          ],
          "internalType": "struct MeerkatCompetitionV1.Prediction",
          "name": "",
          "type": "tuple"
        }
      ],
      "stateMutability": "view",
      "type": "function"
    },
    {
      "inputs": [
        {
          "internalType": "address",
          "name": "_user",
          "type": "address"
        }
      ],
      "name": "getPredictions",
      "outputs": [
        {
          "components": [
            {
              "internalType": "uint256",
              "name": "gameId",
              "type": "uint256"
            },
            {
              "internalType": "uint8",
              "name": "homeScore",
              "type": "uint8"
            },
            {
              "internalType": "uint8",
              "name": "awayScore",
              "type": "uint8"
            }
          ],
          "internalType": "struct MeerkatCompetitionV1.Prediction[]",
          "name": "",
          "type": "tuple[]"
        }
      ],
      "stateMutability": "view",
      "type": "function"
    },
    {
      "inputs": [
        {
          "internalType": "string",
          "name": "_name",
          "type": "string"
        }
      ],
      "name": "initialize",
      "outputs": [],
      "stateMutability": "nonpayable",
      "type": "function"
    },
    {
      "inputs": [],
      "name": "name",
      "outputs": [
        {
          "internalType": "string",
          "name": "",
          "type": "string"
        }
      ],
      "stateMutability": "view",
      "type": "function"
    },
    {
      "inputs": [],
      "name": "owner",
      "outputs": [
        {
          "internalType": "address",
          "name": "",
          "type": "address"
        }
      ],
      "stateMutability": "view",
      "type": "function"
    },
    {
      "inputs": [
        {
          "internalType": "uint256",
          "name": "_gameId",
          "type": "uint256"
        },
        {
          "internalType": "string",
          "name": "_homeCompetitor",
          "type": "string"
        },
        {
          "internalType": "string",
          "name": "_awayCompetitor",
          "type": "string"
        },
        {
          "internalType": "uint256",
          "name": "_startTime",
          "type": "uint256"
        },
        {
          "internalType": "uint8",
          "name": "_homeScore",
          "type": "uint8"
        },
        {
          "internalType": "uint8",
          "name": "_awayScore",
          "type": "uint8"
        },
        {
          "internalType": "bool",
          "name": "_isFinalized",
          "type": "bool"
        }
      ],
      "name": "updateGame",
      "outputs": [],
      "stateMutability": "nonpayable",
      "type": "function"
    }
  ],
  "bytecode": "0x608060405234801561001057600080fd5b50611dcb806100206000396000f3fe608060405234801561001057600080fd5b50600436106100b45760003560e01c8063aaa2835d11610071578063aaa2835d1461015d578063b799bb0f14610170578063c04c594714610190578063f4b7095b146101a5578063f62d1888146101ba578063fe83bece146101cd57600080fd5b806306fdde03146100b9578063248a55a1146100d757806373abca82146100ec5780638da5cb5b146100ff578063a2f77bcc1461012a578063a5c86b771461014a575b600080fd5b6100c16101ed565b6040516100ce919061165e565b60405180910390f35b6100ea6100e5366004611678565b61027b565b005b6100ea6100fa36600461174a565b61034c565b600254610112906001600160a01b031681565b6040516001600160a01b0390911681526020016100ce565b61013d610138366004611678565b6105a9565b6040516100ce9190611871565b6100ea610158366004611884565b610738565b6100ea61016b3660046118f1565b610872565b61018361017e36600461192d565b610a6b565b6040516100ce9190611956565b610198610bd4565b6040516100ce91906119c1565b6101ad610e01565b6040516100ce9190611a23565b6100ea6101c8366004611aa4565b610ef4565b6101e06101db366004611678565b611059565b6040516100ce9190611ae1565b600180546101fa90611b0c565b80601f016020809104026020016040519081016040528092919081815260200182805461022690611b0c565b80156102735780601f1061024857610100808354040283529160200191610273565b820191906000526020600020905b81548152906001019060200180831161025657829003601f168201915b505050505081565b6002546001600160a01b031633146102ae5760405162461bcd60e51b81526004016102a590611b40565b60405180910390fd5b600081815260036020526040812080548392036102dd5760405162461bcd60e51b81526004016102a590611b6f565b6000838152600360205260408120818155906102fc6001830182611573565b61030a600283016000611573565b50600060038201556004908101805462ffffff1916905561032c600185611bb3565b8154811061033c5761033c611bc6565b6000918252602082200155505050565b6002546001600160a01b031633146103765760405162461bcd60e51b81526004016102a590611b40565b600087815260036020526040812080548992036103a55760405162461bcd60e51b81526004016102a590611b6f565b600089815260036020526040902060018101805461044b91906103c790611b0c565b80601f01602080910402602001604051908101604052809291908181526020018280546103f390611b0c565b80156104405780601f1061041557610100808354040283529160200191610440565b820191906000526020600020905b81548152906001019060200180831161042357829003601f168201915b50505050508a6110f4565b61045f576001810161045d8a82611c2b565b505b6104f581600201805461047190611b0c565b80601f016020809104026020016040519081016040528092919081815260200182805461049d90611b0c565b80156104ea5780601f106104bf576101008083540402835291602001916104ea565b820191906000526020600020905b8154815290600101906020018083116104cd57829003601f168201915b5050505050896110f4565b61050957600281016105078982611c2b565b505b8681600301541461051c57600381018790555b600481015460ff87811691161461053f5760048101805460ff191660ff88161790555b600481015460ff868116610100909204161461056c5760048101805461ff00191661010060ff8816021790555b600481015460ff620100009091041615158415151461059d5760048101805462ff0000191662010000861515021790555b50505050505050505050565b6105b16115b0565b600360008381526020019081526020016000206040518060e0016040529081600082015481526020016001820180546105e990611b0c565b80601f016020809104026020016040519081016040528092919081815260200182805461061590611b0c565b80156106625780601f1061063757610100808354040283529160200191610662565b820191906000526020600020905b81548152906001019060200180831161064557829003601f168201915b5050505050815260200160028201805461067b90611b0c565b80601f01602080910402602001604051908101604052809291908181526020018280546106a790611b0c565b80156106f45780601f106106c9576101008083540402835291602001916106f4565b820191906000526020600020905b8154815290600101906020018083116106d757829003601f168201915b50505091835250506003820154602082015260049091015460ff80821660408401526101008204811660608401526201000090910416151560809091015292915050565b6002546001600160a01b031633146107625760405162461bcd60e51b81526004016102a590611b40565b600060056000815461077390611ceb565b91829055506040805160e08101825282815260208082018881528284018890526060830187905260006080840181905260a0840181905260c0840181905285815260039092529290208151815591519293509160018201906107d59082611c2b565b50604082015160028201906107ea9082611c2b565b506060820151600382015560808201516004918201805460a085015160c0909501511515620100000262ff00001960ff9687166101000261ffff19909316969094169590951717919091169290921790915580546001810182556000919091527f8a35acfbc15ff81a39ae7d344fd709f28e8600b4aa8c65c6b64bfe7fe36bd19b0155505050565b600083815260036020526040812080548592036108a15760405162461bcd60e51b81526004016102a590611b6f565b33600090815260066020908152604080832088845282528083206003928390529220015442908111156109165760405162461bcd60e51b815260206004820152601960248201527f47616d652068617320616c72656164792073746172746564210000000000000060448201526064016102a5565b3360009081526008602052604090205460ff1661098a57336000818152600860205260408120805460ff191660019081179091556009805491820181559091527f6e1540171b6c0c960b71a7020d9f60077f6af931a8bbf590da0223dacf75c7af0180546001600160a01b03191690911790555b8154600003610a12576040805160608101825288815260ff8089166020808401918252898316848601908152336000818152600684528781208f8252845287812096518755935160019687018054935187166101000261ffff199094169190961617919091179093559181526007825292832080549283018155835290912001879055610a62565b600182015460ff878116911614610a355760018201805460ff191660ff88161790555b600182015460ff8681166101009092041614610a625760018201805461ff00191661010060ff8816021790555b50505050505050565b6001600160a01b0381166000908152600760205260408120546060919067ffffffffffffffff811115610aa057610aa0611691565b604051908082528060200260200182016040528015610aeb57816020015b6040805160608101825260008082526020808301829052928201528252600019909201910181610abe5790505b50905060005b6001600160a01b038416600090815260076020526040902054811015610bcd576001600160a01b038416600090815260066020908152604080832060079092528220805483919085908110610b4857610b48611bc6565b9060005260206000200154815260200190815260200160002090508060000154600014610bba576040805160608101825282548152600183015460ff808216602084015261010090910416918101919091528351849084908110610bae57610bae611bc6565b60200260200101819052505b5080610bc581611ceb565b915050610af1565b5092915050565b60045460609060009067ffffffffffffffff811115610bf557610bf5611691565b604051908082528060200260200182016040528015610c2e57816020015b610c1b6115b0565b815260200190600190039081610c135790505b50905060005b600454811015610dfb5760036000610c4d836001611d04565b81526020019081526020016000206040518060e001604052908160008201548152602001600182018054610c8090611b0c565b80601f0160208091040260200160405190810160405280929190818152602001828054610cac90611b0c565b8015610cf95780601f10610cce57610100808354040283529160200191610cf9565b820191906000526020600020905b815481529060010190602001808311610cdc57829003601f168201915b50505050508152602001600282018054610d1290611b0c565b80601f0160208091040260200160405190810160405280929190818152602001828054610d3e90611b0c565b8015610d8b5780601f10610d6057610100808354040283529160200191610d8b565b820191906000526020600020905b815481529060010190602001808311610d6e57829003601f168201915b50505091835250506003820154602082015260049091015460ff8082166040840152610100820481166060840152620100009091041615156080909101528251839083908110610ddd57610ddd611bc6565b60200260200101819052508080610df390611ceb565b915050610c34565b50919050565b60095460609060009067ffffffffffffffff811115610e2257610e22611691565b604051908082528060200260200182016040528015610e7b57816020015b6040805160a081018252600080825260208083018290529282018190526060820181905260808201528252600019909201910181610e405790505b50905060005b600954811015610dfb57600060098281548110610ea057610ea0611bc6565b60009182526020822001546001600160a01b03169150610ebf8261114e565b905080848481518110610ed457610ed4611bc6565b602002602001018190525050508080610eec90611ceb565b915050610e81565b600054610100900460ff1615808015610f145750600054600160ff909116105b80610f2e5750303b158015610f2e575060005460ff166001145b610f915760405162461bcd60e51b815260206004820152602e60248201527f496e697469616c697a61626c653a20636f6e747261637420697320616c72656160448201526d191e481a5b9a5d1a585b1a5e995960921b60648201526084016102a5565b6000805460ff191660011790558015610fb4576000805461ff0019166101001790555b6001610fc08382611c2b565b50600280546001600160a01b031916339081179091556040517f792712ea4f8fd9928181f96eef56f37667f9268bd0fe20a326bd98fdb7fc560a9161100791859190611d17565b60405180910390a18015611055576000805461ff0019169055604051600181527f7f26b83ff96e1f2b6a682f133852f6798a09c465da95921460cefb38474024989060200160405180910390a15b5050565b6040805160608101825260008082526020820181905291810191909152600082815260036020526040812080548492036110a55760405162461bcd60e51b81526004016102a590611b6f565b50503360009081526006602090815260408083209483529381529083902083516060810185528154815260019091015460ff808216938301939093526101009004909116928101929092525090565b6000816040516020016111079190611d41565b604051602081830303815290604052805190602001208360405160200161112e9190611d41565b604051602081830303815290604052805190602001201490505b92915050565b6040805160a0810182526000808252602082018190529181018290526060810182905260808101919091526040805160a0810182526001600160a01b03841681526000602082018190529181018290526060810182905260808101829052905b600454811015610bcd576000600482815481106111cd576111cd611bc6565b906000526020600020015490506000600360008381526020019081526020016000206040518060e00160405290816000820154815260200160018201805461121490611b0c565b80601f016020809104026020016040519081016040528092919081815260200182805461124090611b0c565b801561128d5780601f106112625761010080835404028352916020019161128d565b820191906000526020600020905b81548152906001019060200180831161127057829003601f168201915b505050505081526020016002820180546112a690611b0c565b80601f01602080910402602001604051908101604052809291908181526020018280546112d290611b0c565b801561131f5780601f106112f45761010080835404028352916020019161131f565b820191906000526020600020905b81548152906001019060200180831161130257829003601f168201915b50505091835250506003820154602082015260049091015460ff80821660408401526101008204811660608401526201000090910416151560809091015260c081015190915015611494576001600160a01b03861660009081526006602090815260408083208584528252918290208251606081018452815480825260019092015460ff808216948301949094526101009004909216928201929092529015611492576113de82608001518360a00151836020015184604001516114a9565b1561142d576003856020018181516113f69190611d5d565b60ff169052506040850180519061140c82611d76565b60ff169052506060850180519061142282611d76565b60ff1690525061147b565b61144982608001518360a00151836020015184604001516114ce565b1561147b576020850180519061145e82611d76565b60ff169052506060850180519061147482611d76565b60ff169052505b6080850180519061148b82611d76565b60ff169052505b505b505080806114a190611ceb565b9150506111ae565b60008260ff168560ff161480156114c557508160ff168460ff16145b95945050505050565b60006114dc85858585611500565b806114ee57506114ee85858585611521565b806114c557506114c585858585611542565b60008360ff168560ff161180156114c557505060ff90811691161192915050565b60008360ff168560ff161080156114c557505060ff90811691161092915050565b60008360ff168560ff1614801561155e57508160ff168360ff16145b80156114c5575050505060ff91821691161490565b50805461157f90611b0c565b6000825580601f1061158f575050565b601f0160209004906000526020600020908101906115ad91906115f5565b50565b6040518060e0016040528060008152602001606081526020016060815260200160008152602001600060ff168152602001600060ff1681526020016000151581525090565b5b8082111561160a57600081556001016115f6565b5090565b60005b83811015611629578181015183820152602001611611565b50506000910152565b6000815180845261164a81602086016020860161160e565b601f01601f19169290920160200192915050565b6020815260006116716020830184611632565b9392505050565b60006020828403121561168a57600080fd5b5035919050565b634e487b7160e01b600052604160045260246000fd5b600082601f8301126116b857600080fd5b813567ffffffffffffffff808211156116d3576116d3611691565b604051601f8301601f19908116603f011681019082821181831017156116fb576116fb611691565b8160405283815286602085880101111561171457600080fd5b836020870160208301376000602085830101528094505050505092915050565b803560ff8116811461174557600080fd5b919050565b600080600080600080600060e0888a03121561176557600080fd5b87359650602088013567ffffffffffffffff8082111561178457600080fd5b6117908b838c016116a7565b975060408a01359150808211156117a657600080fd5b506117b38a828b016116a7565b955050606088013593506117c960808901611734565b92506117d760a08901611734565b915060c088013580151581146117ec57600080fd5b8091505092959891949750929550565b805182526000602082015160e0602085015261181b60e0850182611632565b9050604083015184820360408601526118348282611632565b9150506060830151606085015260ff608084015116608085015260ff60a08401511660a085015260c0830151151560c08501528091505092915050565b60208152600061167160208301846117fc565b60008060006060848603121561189957600080fd5b833567ffffffffffffffff808211156118b157600080fd5b6118bd878388016116a7565b945060208601359150808211156118d357600080fd5b506118e0868287016116a7565b925050604084013590509250925092565b60008060006060848603121561190657600080fd5b8335925061191660208501611734565b915061192460408501611734565b90509250925092565b60006020828403121561193f57600080fd5b81356001600160a01b038116811461167157600080fd5b6020808252825182820181905260009190848201906040850190845b818110156119b5576119a28385518051825260ff602082015116602083015260ff60408201511660408301525050565b9284019260609290920191600101611972565b50909695505050505050565b6000602080830181845280855180835260408601915060408160051b870101925083870160005b82811015611a1657603f19888603018452611a048583516117fc565b945092850192908501906001016119e8565b5092979650505050505050565b602080825282518282018190526000919060409081850190868401855b82811015611a9757815180516001600160a01b031685528681015160ff9081168887015286820151811687870152606080830151821690870152608091820151169085015260a09093019290850190600101611a40565b5091979650505050505050565b600060208284031215611ab657600080fd5b813567ffffffffffffffff811115611acd57600080fd5b611ad9848285016116a7565b949350505050565b6060810161114882848051825260ff602082015116602083015260ff60408201511660408301525050565b600181811c90821680611b2057607f821691505b602082108103610dfb57634e487b7160e01b600052602260045260246000fd5b602080825260159082015274556e617574686f72697a656420726571756573742160581b604082015260600190565b60208082526014908201527347616d6520646f6573206e6f742065786973742160601b604082015260600190565b634e487b7160e01b600052601160045260246000fd5b8181038181111561114857611148611b9d565b634e487b7160e01b600052603260045260246000fd5b601f821115611c2657600081815260208120601f850160051c81016020861015611c035750805b601f850160051c820191505b81811015611c2257828155600101611c0f565b5050505b505050565b815167ffffffffffffffff811115611c4557611c45611691565b611c5981611c538454611b0c565b84611bdc565b602080601f831160018114611c8e5760008415611c765750858301515b600019600386901b1c1916600185901b178555611c22565b600085815260208120601f198616915b82811015611cbd57888601518255948401946001909101908401611c9e565b5085821015611cdb5787850151600019600388901b60f8161c191681555b5050505050600190811b01905550565b600060018201611cfd57611cfd611b9d565b5060010190565b8082018082111561114857611148611b9d565b604081526000611d2a6040830185611632565b905060018060a01b03831660208301529392505050565b60008251611d5381846020870161160e565b9190910192915050565b60ff818116838216019081111561114857611148611b9d565b600060ff821660ff8103611d8c57611d8c611b9d565b6001019291505056fea26469706673582212206831dbf052960c4a79a300e15da3a80111c4ad53ec86c1994bea842593c52a3f64736f6c63430008110033",
  "linkReferences": {},
  "deployedLinkReferences": {}
}