{
  "_format": "hh-sol-artifact-1",
  "contractName": "MeerkatCompetitionV1",
  "sourceName": "contracts/MeerkatCompetition.sol",
  "abi": [
    {
      "anonymous": false,
      "inputs": [
        {
          "indexed": false,
          "internalType": "uint8",
          "name": "version",
          "type": "uint8"
        }
      ],
      "name": "Initialized",
      "type": "event"
    },
    {
      "inputs": [
        {
          "internalType": "string",
          "name": "_homeCompetitor",
          "type": "string"
        },
        {
          "internalType": "string",
          "name": "_awayCompetitor",
          "type": "string"
        },
        {
          "internalType": "uint256",
          "name": "_startTime",
          "type": "uint256"
        }
      ],
      "name": "addGame",
      "outputs": [],
      "stateMutability": "nonpayable",
      "type": "function"
    },
    {
      "inputs": [
        {
          "internalType": "uint256",
          "name": "_gameId",
          "type": "uint256"
        },
        {
          "internalType": "uint8",
          "name": "_homeScore",
          "type": "uint8"
        },
        {
          "internalType": "uint8",
          "name": "_awayScore",
          "type": "uint8"
        }
      ],
      "name": "addOrUpdatePrediction",
      "outputs": [],
      "stateMutability": "nonpayable",
      "type": "function"
    },
    {
      "inputs": [
        {
          "internalType": "uint256",
          "name": "_gameId",
          "type": "uint256"
        }
      ],
      "name": "deleteGame",
      "outputs": [],
      "stateMutability": "nonpayable",
      "type": "function"
    },
    {
      "inputs": [
        {
          "internalType": "uint256",
          "name": "_gameId",
          "type": "uint256"
        }
      ],
      "name": "getGame",
      "outputs": [
        {
          "components": [
            {
              "internalType": "uint256",
              "name": "id",
              "type": "uint256"
            },
            {
              "internalType": "string",
              "name": "homeCompetitor",
              "type": "string"
            },
            {
              "internalType": "string",
              "name": "awayCompetitor",
              "type": "string"
            },
            {
              "internalType": "uint256",
              "name": "startTime",
              "type": "uint256"
            },
            {
              "internalType": "uint8",
              "name": "homeScore",
              "type": "uint8"
            },
            {
              "internalType": "uint8",
              "name": "awayScore",
              "type": "uint8"
            },
            {
              "internalType": "bool",
              "name": "isFinalized",
              "type": "bool"
            }
          ],
          "internalType": "struct MeerkatCompetitionV1.Game",
          "name": "",
          "type": "tuple"
        }
      ],
      "stateMutability": "view",
      "type": "function"
    },
    {
      "inputs": [],
      "name": "getGames",
      "outputs": [
        {
          "components": [
            {
              "internalType": "uint256",
              "name": "id",
              "type": "uint256"
            },
            {
              "internalType": "string",
              "name": "homeCompetitor",
              "type": "string"
            },
            {
              "internalType": "string",
              "name": "awayCompetitor",
              "type": "string"
            },
            {
              "internalType": "uint256",
              "name": "startTime",
              "type": "uint256"
            },
            {
              "internalType": "uint8",
              "name": "homeScore",
              "type": "uint8"
            },
            {
              "internalType": "uint8",
              "name": "awayScore",
              "type": "uint8"
            },
            {
              "internalType": "bool",
              "name": "isFinalized",
              "type": "bool"
            }
          ],
          "internalType": "struct MeerkatCompetitionV1.Game[]",
          "name": "",
          "type": "tuple[]"
        }
      ],
      "stateMutability": "view",
      "type": "function"
    },
    {
      "inputs": [],
      "name": "getPoints",
      "outputs": [
        {
          "components": [
            {
              "internalType": "address",
              "name": "user",
              "type": "address"
            },
            {
              "internalType": "uint8",
              "name": "points",
              "type": "uint8"
            },
            {
              "internalType": "uint8",
              "name": "correctPredictions",
              "type": "uint8"
            },
            {
              "internalType": "uint8",
              "name": "correctOutcomes",
              "type": "uint8"
            },
            {
              "internalType": "uint8",
              "name": "totalNumberOfPredictions",
              "type": "uint8"
            }
          ],
          "internalType": "struct MeerkatCompetitionV1.UserScore[]",
          "name": "",
          "type": "tuple[]"
        }
      ],
      "stateMutability": "view",
      "type": "function"
    },
    {
      "inputs": [
        {
          "internalType": "uint256",
          "name": "_gameId",
          "type": "uint256"
        }
      ],
      "name": "getPrediction",
      "outputs": [
        {
          "components": [
            {
              "internalType": "uint256",
              "name": "gameId",
              "type": "uint256"
            },
            {
              "internalType": "uint8",
              "name": "homeScore",
              "type": "uint8"
            },
            {
              "internalType": "uint8",
              "name": "awayScore",
              "type": "uint8"
            }
          ],
          "internalType": "struct MeerkatCompetitionV1.Prediction",
          "name": "",
          "type": "tuple"
        }
      ],
      "stateMutability": "view",
      "type": "function"
    },
    {
      "inputs": [
        {
          "internalType": "address",
          "name": "_user",
          "type": "address"
        }
      ],
      "name": "getPredictions",
      "outputs": [
        {
          "components": [
            {
              "internalType": "uint256",
              "name": "gameId",
              "type": "uint256"
            },
            {
              "internalType": "uint8",
              "name": "homeScore",
              "type": "uint8"
            },
            {
              "internalType": "uint8",
              "name": "awayScore",
              "type": "uint8"
            }
          ],
          "internalType": "struct MeerkatCompetitionV1.Prediction[]",
          "name": "",
          "type": "tuple[]"
        }
      ],
      "stateMutability": "view",
      "type": "function"
    },
    {
      "inputs": [
        {
          "internalType": "string",
          "name": "_name",
          "type": "string"
        }
      ],
      "name": "initialize",
      "outputs": [],
      "stateMutability": "nonpayable",
      "type": "function"
    },
    {
      "inputs": [],
      "name": "name",
      "outputs": [
        {
          "internalType": "string",
          "name": "",
          "type": "string"
        }
      ],
      "stateMutability": "view",
      "type": "function"
    },
    {
      "inputs": [],
      "name": "owner",
      "outputs": [
        {
          "internalType": "address",
          "name": "",
          "type": "address"
        }
      ],
      "stateMutability": "view",
      "type": "function"
    },
    {
      "inputs": [
        {
          "internalType": "uint256",
          "name": "_gameId",
          "type": "uint256"
        },
        {
          "internalType": "string",
          "name": "_homeCompetitor",
          "type": "string"
        },
        {
          "internalType": "string",
          "name": "_awayCompetitor",
          "type": "string"
        },
        {
          "internalType": "uint256",
          "name": "_startTime",
          "type": "uint256"
        },
        {
          "internalType": "uint8",
          "name": "_homeScore",
          "type": "uint8"
        },
        {
          "internalType": "uint8",
          "name": "_awayScore",
          "type": "uint8"
        },
        {
          "internalType": "bool",
          "name": "_isFinalized",
          "type": "bool"
        }
      ],
      "name": "updateGame",
      "outputs": [],
      "stateMutability": "nonpayable",
      "type": "function"
    }
  ],
  "bytecode": "0x608060405234801561001057600080fd5b50611d65806100206000396000f3fe608060405234801561001057600080fd5b50600436106100b45760003560e01c8063aaa2835d11610071578063aaa2835d1461015d578063b799bb0f14610170578063c04c594714610190578063f4b7095b146101a5578063f62d1888146101ba578063fe83bece146101cd57600080fd5b806306fdde03146100b9578063248a55a1146100d757806373abca82146100ec5780638da5cb5b146100ff578063a2f77bcc1461012a578063a5c86b771461014a575b600080fd5b6100c16101ed565b6040516100ce9190611622565b60405180910390f35b6100ea6100e536600461163c565b61027b565b005b6100ea6100fa36600461170e565b61034c565b600254610112906001600160a01b031681565b6040516001600160a01b0390911681526020016100ce565b61013d61013836600461163c565b6105a9565b6040516100ce9190611835565b6100ea610158366004611848565b610738565b6100ea61016b3660046118b5565b610872565b61018361017e3660046118f1565b610a6b565b6040516100ce919061191a565b610198610bd4565b6040516100ce9190611985565b6101ad610e01565b6040516100ce91906119e7565b6100ea6101c8366004611a68565b610ef4565b6101e06101db36600461163c565b61101d565b6040516100ce9190611aa5565b600180546101fa90611ad0565b80601f016020809104026020016040519081016040528092919081815260200182805461022690611ad0565b80156102735780601f1061024857610100808354040283529160200191610273565b820191906000526020600020905b81548152906001019060200180831161025657829003601f168201915b505050505081565b6002546001600160a01b031633146102ae5760405162461bcd60e51b81526004016102a590611b04565b60405180910390fd5b600081815260036020526040812080548392036102dd5760405162461bcd60e51b81526004016102a590611b33565b6000838152600360205260408120818155906102fc6001830182611537565b61030a600283016000611537565b50600060038201556004908101805462ffffff1916905561032c600185611b77565b8154811061033c5761033c611b8a565b6000918252602082200155505050565b6002546001600160a01b031633146103765760405162461bcd60e51b81526004016102a590611b04565b600087815260036020526040812080548992036103a55760405162461bcd60e51b81526004016102a590611b33565b600089815260036020526040902060018101805461044b91906103c790611ad0565b80601f01602080910402602001604051908101604052809291908181526020018280546103f390611ad0565b80156104405780601f1061041557610100808354040283529160200191610440565b820191906000526020600020905b81548152906001019060200180831161042357829003601f168201915b50505050508a6110b8565b61045f576001810161045d8a82611bef565b505b6104f581600201805461047190611ad0565b80601f016020809104026020016040519081016040528092919081815260200182805461049d90611ad0565b80156104ea5780601f106104bf576101008083540402835291602001916104ea565b820191906000526020600020905b8154815290600101906020018083116104cd57829003601f168201915b5050505050896110b8565b61050957600281016105078982611bef565b505b8681600301541461051c57600381018790555b600481015460ff87811691161461053f5760048101805460ff191660ff88161790555b600481015460ff868116610100909204161461056c5760048101805461ff00191661010060ff8816021790555b600481015460ff620100009091041615158415151461059d5760048101805462ff0000191662010000861515021790555b50505050505050505050565b6105b1611574565b600360008381526020019081526020016000206040518060e0016040529081600082015481526020016001820180546105e990611ad0565b80601f016020809104026020016040519081016040528092919081815260200182805461061590611ad0565b80156106625780601f1061063757610100808354040283529160200191610662565b820191906000526020600020905b81548152906001019060200180831161064557829003601f168201915b5050505050815260200160028201805461067b90611ad0565b80601f01602080910402602001604051908101604052809291908181526020018280546106a790611ad0565b80156106f45780601f106106c9576101008083540402835291602001916106f4565b820191906000526020600020905b8154815290600101906020018083116106d757829003601f168201915b50505091835250506003820154602082015260049091015460ff80821660408401526101008204811660608401526201000090910416151560809091015292915050565b6002546001600160a01b031633146107625760405162461bcd60e51b81526004016102a590611b04565b600060056000815461077390611caf565b91829055506040805160e08101825282815260208082018881528284018890526060830187905260006080840181905260a0840181905260c0840181905285815260039092529290208151815591519293509160018201906107d59082611bef565b50604082015160028201906107ea9082611bef565b506060820151600382015560808201516004918201805460a085015160c0909501511515620100000262ff00001960ff9687166101000261ffff19909316969094169590951717919091169290921790915580546001810182556000919091527f8a35acfbc15ff81a39ae7d344fd709f28e8600b4aa8c65c6b64bfe7fe36bd19b0155505050565b600083815260036020526040812080548592036108a15760405162461bcd60e51b81526004016102a590611b33565b33600090815260066020908152604080832088845282528083206003928390529220015442908111156109165760405162461bcd60e51b815260206004820152601960248201527f47616d652068617320616c72656164792073746172746564210000000000000060448201526064016102a5565b3360009081526008602052604090205460ff1661098a57336000818152600860205260408120805460ff191660019081179091556009805491820181559091527f6e1540171b6c0c960b71a7020d9f60077f6af931a8bbf590da0223dacf75c7af0180546001600160a01b03191690911790555b8154600003610a12576040805160608101825288815260ff8089166020808401918252898316848601908152336000818152600684528781208f8252845287812096518755935160019687018054935187166101000261ffff199094169190961617919091179093559181526007825292832080549283018155835290912001879055610a62565b600182015460ff878116911614610a355760018201805460ff191660ff88161790555b600182015460ff8681166101009092041614610a625760018201805461ff00191661010060ff8816021790555b50505050505050565b6001600160a01b0381166000908152600760205260408120546060919067ffffffffffffffff811115610aa057610aa0611655565b604051908082528060200260200182016040528015610aeb57816020015b6040805160608101825260008082526020808301829052928201528252600019909201910181610abe5790505b50905060005b6001600160a01b038416600090815260076020526040902054811015610bcd576001600160a01b038416600090815260066020908152604080832060079092528220805483919085908110610b4857610b48611b8a565b9060005260206000200154815260200190815260200160002090508060000154600014610bba576040805160608101825282548152600183015460ff808216602084015261010090910416918101919091528351849084908110610bae57610bae611b8a565b60200260200101819052505b5080610bc581611caf565b915050610af1565b5092915050565b60045460609060009067ffffffffffffffff811115610bf557610bf5611655565b604051908082528060200260200182016040528015610c2e57816020015b610c1b611574565b815260200190600190039081610c135790505b50905060005b600454811015610dfb5760036000610c4d836001611cc8565b81526020019081526020016000206040518060e001604052908160008201548152602001600182018054610c8090611ad0565b80601f0160208091040260200160405190810160405280929190818152602001828054610cac90611ad0565b8015610cf95780601f10610cce57610100808354040283529160200191610cf9565b820191906000526020600020905b815481529060010190602001808311610cdc57829003601f168201915b50505050508152602001600282018054610d1290611ad0565b80601f0160208091040260200160405190810160405280929190818152602001828054610d3e90611ad0565b8015610d8b5780601f10610d6057610100808354040283529160200191610d8b565b820191906000526020600020905b815481529060010190602001808311610d6e57829003601f168201915b50505091835250506003820154602082015260049091015460ff8082166040840152610100820481166060840152620100009091041615156080909101528251839083908110610ddd57610ddd611b8a565b60200260200101819052508080610df390611caf565b915050610c34565b50919050565b60095460609060009067ffffffffffffffff811115610e2257610e22611655565b604051908082528060200260200182016040528015610e7b57816020015b6040805160a081018252600080825260208083018290529282018190526060820181905260808201528252600019909201910181610e405790505b50905060005b600954811015610dfb57600060098281548110610ea057610ea0611b8a565b60009182526020822001546001600160a01b03169150610ebf82611112565b905080848481518110610ed457610ed4611b8a565b602002602001018190525050508080610eec90611caf565b915050610e81565b600054610100900460ff1615808015610f145750600054600160ff909116105b80610f2e5750303b158015610f2e575060005460ff166001145b610f915760405162461bcd60e51b815260206004820152602e60248201527f496e697469616c697a61626c653a20636f6e747261637420697320616c72656160448201526d191e481a5b9a5d1a585b1a5e995960921b60648201526084016102a5565b6000805460ff191660011790558015610fb4576000805461ff0019166101001790555b6001610fc08382611bef565b50600280546001600160a01b031916331790558015611019576000805461ff0019169055604051600181527f7f26b83ff96e1f2b6a682f133852f6798a09c465da95921460cefb38474024989060200160405180910390a15b5050565b6040805160608101825260008082526020820181905291810191909152600082815260036020526040812080548492036110695760405162461bcd60e51b81526004016102a590611b33565b50503360009081526006602090815260408083209483529381529083902083516060810185528154815260019091015460ff808216938301939093526101009004909116928101929092525090565b6000816040516020016110cb9190611cdb565b60405160208183030381529060405280519060200120836040516020016110f29190611cdb565b604051602081830303815290604052805190602001201490505b92915050565b6040805160a0810182526000808252602082018190529181018290526060810182905260808101919091526040805160a0810182526001600160a01b03841681526000602082018190529181018290526060810182905260808101829052905b600454811015610bcd5760006004828154811061119157611191611b8a565b906000526020600020015490506000600360008381526020019081526020016000206040518060e0016040529081600082015481526020016001820180546111d890611ad0565b80601f016020809104026020016040519081016040528092919081815260200182805461120490611ad0565b80156112515780601f1061122657610100808354040283529160200191611251565b820191906000526020600020905b81548152906001019060200180831161123457829003601f168201915b5050505050815260200160028201805461126a90611ad0565b80601f016020809104026020016040519081016040528092919081815260200182805461129690611ad0565b80156112e35780601f106112b8576101008083540402835291602001916112e3565b820191906000526020600020905b8154815290600101906020018083116112c657829003601f168201915b50505091835250506003820154602082015260049091015460ff80821660408401526101008204811660608401526201000090910416151560809091015260c081015190915015611458576001600160a01b03861660009081526006602090815260408083208584528252918290208251606081018452815480825260019092015460ff808216948301949094526101009004909216928201929092529015611456576113a282608001518360a001518360200151846040015161146d565b156113f1576003856020018181516113ba9190611cf7565b60ff16905250604085018051906113d082611d10565b60ff16905250606085018051906113e682611d10565b60ff1690525061143f565b61140d82608001518360a0015183602001518460400151611492565b1561143f576020850180519061142282611d10565b60ff169052506060850180519061143882611d10565b60ff169052505b6080850180519061144f82611d10565b60ff169052505b505b5050808061146590611caf565b915050611172565b60008260ff168560ff1614801561148957508160ff168460ff16145b95945050505050565b60006114a0858585856114c4565b806114b257506114b2858585856114e5565b80611489575061148985858585611506565b60008360ff168560ff1611801561148957505060ff90811691161192915050565b60008360ff168560ff1610801561148957505060ff90811691161092915050565b60008360ff168560ff1614801561152257508160ff168360ff16145b8015611489575050505060ff91821691161490565b50805461154390611ad0565b6000825580601f10611553575050565b601f01602090049060005260206000209081019061157191906115b9565b50565b6040518060e0016040528060008152602001606081526020016060815260200160008152602001600060ff168152602001600060ff1681526020016000151581525090565b5b808211156115ce57600081556001016115ba565b5090565b60005b838110156115ed5781810151838201526020016115d5565b50506000910152565b6000815180845261160e8160208601602086016115d2565b601f01601f19169290920160200192915050565b60208152600061163560208301846115f6565b9392505050565b60006020828403121561164e57600080fd5b5035919050565b634e487b7160e01b600052604160045260246000fd5b600082601f83011261167c57600080fd5b813567ffffffffffffffff8082111561169757611697611655565b604051601f8301601f19908116603f011681019082821181831017156116bf576116bf611655565b816040528381528660208588010111156116d857600080fd5b836020870160208301376000602085830101528094505050505092915050565b803560ff8116811461170957600080fd5b919050565b600080600080600080600060e0888a03121561172957600080fd5b87359650602088013567ffffffffffffffff8082111561174857600080fd5b6117548b838c0161166b565b975060408a013591508082111561176a57600080fd5b506117778a828b0161166b565b9550506060880135935061178d608089016116f8565b925061179b60a089016116f8565b915060c088013580151581146117b057600080fd5b8091505092959891949750929550565b805182526000602082015160e060208501526117df60e08501826115f6565b9050604083015184820360408601526117f882826115f6565b9150506060830151606085015260ff608084015116608085015260ff60a08401511660a085015260c0830151151560c08501528091505092915050565b60208152600061163560208301846117c0565b60008060006060848603121561185d57600080fd5b833567ffffffffffffffff8082111561187557600080fd5b6118818783880161166b565b9450602086013591508082111561189757600080fd5b506118a48682870161166b565b925050604084013590509250925092565b6000806000606084860312156118ca57600080fd5b833592506118da602085016116f8565b91506118e8604085016116f8565b90509250925092565b60006020828403121561190357600080fd5b81356001600160a01b038116811461163557600080fd5b6020808252825182820181905260009190848201906040850190845b81811015611979576119668385518051825260ff602082015116602083015260ff60408201511660408301525050565b9284019260609290920191600101611936565b50909695505050505050565b6000602080830181845280855180835260408601915060408160051b870101925083870160005b828110156119da57603f198886030184526119c88583516117c0565b945092850192908501906001016119ac565b5092979650505050505050565b602080825282518282018190526000919060409081850190868401855b82811015611a5b57815180516001600160a01b031685528681015160ff9081168887015286820151811687870152606080830151821690870152608091820151169085015260a09093019290850190600101611a04565b5091979650505050505050565b600060208284031215611a7a57600080fd5b813567ffffffffffffffff811115611a9157600080fd5b611a9d8482850161166b565b949350505050565b6060810161110c82848051825260ff602082015116602083015260ff60408201511660408301525050565b600181811c90821680611ae457607f821691505b602082108103610dfb57634e487b7160e01b600052602260045260246000fd5b602080825260159082015274556e617574686f72697a656420726571756573742160581b604082015260600190565b60208082526014908201527347616d6520646f6573206e6f742065786973742160601b604082015260600190565b634e487b7160e01b600052601160045260246000fd5b8181038181111561110c5761110c611b61565b634e487b7160e01b600052603260045260246000fd5b601f821115611bea57600081815260208120601f850160051c81016020861015611bc75750805b601f850160051c820191505b81811015611be657828155600101611bd3565b5050505b505050565b815167ffffffffffffffff811115611c0957611c09611655565b611c1d81611c178454611ad0565b84611ba0565b602080601f831160018114611c525760008415611c3a5750858301515b600019600386901b1c1916600185901b178555611be6565b600085815260208120601f198616915b82811015611c8157888601518255948401946001909101908401611c62565b5085821015611c9f5787850151600019600388901b60f8161c191681555b5050505050600190811b01905550565b600060018201611cc157611cc1611b61565b5060010190565b8082018082111561110c5761110c611b61565b60008251611ced8184602087016115d2565b9190910192915050565b60ff818116838216019081111561110c5761110c611b61565b600060ff821660ff8103611d2657611d26611b61565b6001019291505056fea2646970667358221220966aac2e0cbfe42d9e279f2bf089d9922d63471355dc185ef2b809d8a464435064736f6c63430008110033",
  "linkReferences": {},
  "deployedLinkReferences": {}
}