{
  "_format": "hh-sol-artifact-1",
  "contractName": "MeerkatCompetitionV1",
  "sourceName": "contracts/MeerkatCompetition.sol",
  "abi": [
    {
      "anonymous": false,
      "inputs": [
        {
          "indexed": false,
          "internalType": "uint8",
          "name": "version",
          "type": "uint8"
        }
      ],
      "name": "Initialized",
      "type": "event"
    },
    {
      "inputs": [
        {
          "internalType": "string",
          "name": "_homeCompetitor",
          "type": "string"
        },
        {
          "internalType": "string",
          "name": "_awayCompetitor",
          "type": "string"
        },
        {
          "internalType": "uint256",
          "name": "_startTime",
          "type": "uint256"
        }
      ],
      "name": "addGame",
      "outputs": [],
      "stateMutability": "nonpayable",
      "type": "function"
    },
    {
      "inputs": [
        {
          "internalType": "uint256",
          "name": "_gameId",
          "type": "uint256"
        }
      ],
      "name": "deleteGame",
      "outputs": [],
      "stateMutability": "nonpayable",
      "type": "function"
    },
    {
      "inputs": [
        {
          "internalType": "uint256",
          "name": "_gameId",
          "type": "uint256"
        }
      ],
      "name": "getGame",
      "outputs": [
        {
          "components": [
            {
              "internalType": "uint256",
              "name": "id",
              "type": "uint256"
            },
            {
              "internalType": "string",
              "name": "homeCompetitor",
              "type": "string"
            },
            {
              "internalType": "string",
              "name": "awayCompetitor",
              "type": "string"
            },
            {
              "internalType": "uint256",
              "name": "startTime",
              "type": "uint256"
            },
            {
              "internalType": "uint8",
              "name": "homeScore",
              "type": "uint8"
            },
            {
              "internalType": "uint8",
              "name": "awayScore",
              "type": "uint8"
            }
          ],
          "internalType": "struct MeerkatCompetitionV1.Game",
          "name": "",
          "type": "tuple"
        }
      ],
      "stateMutability": "view",
      "type": "function"
    },
    {
      "inputs": [],
      "name": "getGames",
      "outputs": [
        {
          "components": [
            {
              "internalType": "uint256",
              "name": "id",
              "type": "uint256"
            },
            {
              "internalType": "string",
              "name": "homeCompetitor",
              "type": "string"
            },
            {
              "internalType": "string",
              "name": "awayCompetitor",
              "type": "string"
            },
            {
              "internalType": "uint256",
              "name": "startTime",
              "type": "uint256"
            },
            {
              "internalType": "uint8",
              "name": "homeScore",
              "type": "uint8"
            },
            {
              "internalType": "uint8",
              "name": "awayScore",
              "type": "uint8"
            }
          ],
          "internalType": "struct MeerkatCompetitionV1.Game[]",
          "name": "",
          "type": "tuple[]"
        }
      ],
      "stateMutability": "view",
      "type": "function"
    },
    {
      "inputs": [
        {
          "internalType": "string",
          "name": "_name",
          "type": "string"
        }
      ],
      "name": "initialize",
      "outputs": [],
      "stateMutability": "nonpayable",
      "type": "function"
    },
    {
      "inputs": [],
      "name": "name",
      "outputs": [
        {
          "internalType": "string",
          "name": "",
          "type": "string"
        }
      ],
      "stateMutability": "view",
      "type": "function"
    },
    {
      "inputs": [],
      "name": "owner",
      "outputs": [
        {
          "internalType": "address",
          "name": "",
          "type": "address"
        }
      ],
      "stateMutability": "view",
      "type": "function"
    },
    {
      "inputs": [
        {
          "internalType": "uint256",
          "name": "_gameId",
          "type": "uint256"
        },
        {
          "internalType": "string",
          "name": "_homeCompetitor",
          "type": "string"
        },
        {
          "internalType": "string",
          "name": "_awayCompetitor",
          "type": "string"
        },
        {
          "internalType": "uint256",
          "name": "_startTime",
          "type": "uint256"
        },
        {
          "internalType": "uint8",
          "name": "_homeScore",
          "type": "uint8"
        },
        {
          "internalType": "uint8",
          "name": "_awayScore",
          "type": "uint8"
        }
      ],
      "name": "updateGame",
      "outputs": [],
      "stateMutability": "nonpayable",
      "type": "function"
    }
  ],
  "bytecode": "0x608060405234801561001057600080fd5b50611271806100206000396000f3fe608060405234801561001057600080fd5b50600436106100885760003560e01c8063a2f77bcc1161005b578063a2f77bcc146100fe578063a5c86b771461011e578063c04c594714610131578063f62d18881461014657600080fd5b806306fdde031461008d578063248a55a1146100ab5780632652b2b5146100c05780638da5cb5b146100d3575b600080fd5b610095610159565b6040516100a29190610d10565b60405180910390f35b6100be6100b9366004610d2a565b6101e7565b005b6100be6100ce366004610df7565b6102cb565b6002546100e6906001600160a01b031681565b6040516001600160a01b0390911681526020016100a2565b61011161010c366004610d2a565b61050b565b6040516100a29190610ef7565b6100be61012c366004610f0a565b6106c2565b6101396107ab565b6040516100a29190610f77565b6100be610154366004610fd9565b610a7d565b6001805461016690611016565b80601f016020809104026020016040519081016040528092919081815260200182805461019290611016565b80156101df5780601f106101b4576101008083540402835291602001916101df565b820191906000526020600020905b8154815290600101906020018083116101c257829003601f168201915b505050505081565b6002546001600160a01b0316331461021a5760405162461bcd60e51b815260040161021190611050565b60405180910390fd5b600081815260036020526040812080549091036102705760405162461bcd60e51b815260206004820152601460248201527347616d6520646f6573206e6f742065786973742160601b6044820152606401610211565b60008281526003602052604081208181559061028f6001830182610c72565b61029d600283016000610c72565b506000600382018190556004918201805461ffff19169055815491906102c283611095565b91905055505050565b6002546001600160a01b031633146102f55760405162461bcd60e51b815260040161021190611050565b6000868152600360205260408120805490910361034b5760405162461bcd60e51b815260206004820152601460248201527347616d6520646f6573206e6f742065786973742160601b6044820152606401610211565b6103e181600101805461035d90611016565b80601f016020809104026020016040519081016040528092919081815260200182805461038990611016565b80156103d65780601f106103ab576101008083540402835291602001916103d6565b820191906000526020600020905b8154815290600101906020018083116103b957829003601f168201915b505050505087610bab565b6103f557600181016103f387826110fb565b505b61048b81600201805461040790611016565b80601f016020809104026020016040519081016040528092919081815260200182805461043390611016565b80156104805780601f1061045557610100808354040283529160200191610480565b820191906000526020600020905b81548152906001019060200180831161046357829003601f168201915b505050505086610bab565b61049f576002810161049d86826110fb565b505b838160030154146104b257600381018490555b600481015460ff8481169116146104d55760048101805460ff191660ff85161790555b600481015460ff83811661010090920416146105025760048101805461ff00191661010060ff8516021790555b50505050505050565b61054a6040518060c0016040528060008152602001606081526020016060815260200160008152602001600060ff168152602001600060ff1681525090565b600360008381526020019081526020016000206040518060c00160405290816000820154815260200160018201805461058290611016565b80601f01602080910402602001604051908101604052809291908181526020018280546105ae90611016565b80156105fb5780601f106105d0576101008083540402835291602001916105fb565b820191906000526020600020905b8154815290600101906020018083116105de57829003601f168201915b5050505050815260200160028201805461061490611016565b80601f016020809104026020016040519081016040528092919081815260200182805461064090611016565b801561068d5780601f106106625761010080835404028352916020019161068d565b820191906000526020600020905b81548152906001019060200180831161067057829003601f168201915b50505091835250506003820154602082015260049091015460ff80821660408401526101009091041660609091015292915050565b6002546001600160a01b031633146106ec5760405162461bcd60e51b815260040161021190611050565b6040518060c00160405280600460008154610706906111bb565b91829055508152602080820186905260408083018690526060830185905260006080840181905260a09093018390526004548352600382529091208251815590820151600182019061075890826110fb565b506040820151600282019061076d90826110fb565b506060820151600382015560808201516004909101805460a09093015160ff9081166101000261ffff19909416921691909117919091179055505050565b6060600060045467ffffffffffffffff8111156107ca576107ca610d43565b60405190808252806020026020018201604052801561083a57816020015b6108276040518060c0016040528060008152602001606081526020016060815260200160008152602001600060ff168152602001600060ff1681525090565b8152602001906001900390816107e85790505b50905060005b600454811015610a4057600060038161085a8460016111d4565b81526020019081526020016000206040518060c00160405290816000820154815260200160018201805461088d90611016565b80601f01602080910402602001604051908101604052809291908181526020018280546108b990611016565b80156109065780601f106108db57610100808354040283529160200191610906565b820191906000526020600020905b8154815290600101906020018083116108e957829003601f168201915b5050505050815260200160028201805461091f90611016565b80601f016020809104026020016040519081016040528092919081815260200182805461094b90611016565b80156109985780601f1061096d57610100808354040283529160200191610998565b820191906000526020600020905b81548152906001019060200180831161097b57829003601f168201915b5050509183525050600382015460208083019190915260049092015460ff8082166040808501919091526101009092041660609092019190915280518082019091526008815267023b0b6b29034b2160c51b9181019190915281519192506109ff91610c05565b8051600003610a0e5750610a2e565b80838381518110610a2157610a216111e7565b6020026020010181905250505b80610a38816111bb565b915050610840565b50610a78604051806040016040528060148152602001730cccae8c6d0cac8408ec2dacae640d8cadccee8d60631b8152508251610c05565b919050565b600054610100900460ff1615808015610a9d5750600054600160ff909116105b80610ab75750303b158015610ab7575060005460ff166001145b610b1a5760405162461bcd60e51b815260206004820152602e60248201527f496e697469616c697a61626c653a20636f6e747261637420697320616c72656160448201526d191e481a5b9a5d1a585b1a5e995960921b6064820152608401610211565b6000805460ff191660011790558015610b3d576000805461ff0019166101001790555b6001610b4983826110fb565b50600280546001600160a01b0319163317905560006004558015610ba7576000805461ff0019169055604051600181527f7f26b83ff96e1f2b6a682f133852f6798a09c465da95921460cefb38474024989060200160405180910390a15b5050565b600081604051602001610bbe91906111fd565b6040516020818303038152906040528051906020012083604051602001610be591906111fd565b604051602081830303815290604052805190602001201490505b92915050565b610ba78282604051602401610c1b929190611219565b60408051601f198184030181529190526020810180516001600160e01b0316632d839cb360e21b179052610c4e81610c51565b50565b60006a636f6e736f6c652e6c6f679050600080835160208501845afa505050565b508054610c7e90611016565b6000825580601f10610c8e575050565b601f016020900490600052602060002090810190610c4e91905b80821115610cbc5760008155600101610ca8565b5090565b60005b83811015610cdb578181015183820152602001610cc3565b50506000910152565b60008151808452610cfc816020860160208601610cc0565b601f01601f19169290920160200192915050565b602081526000610d236020830184610ce4565b9392505050565b600060208284031215610d3c57600080fd5b5035919050565b634e487b7160e01b600052604160045260246000fd5b600082601f830112610d6a57600080fd5b813567ffffffffffffffff80821115610d8557610d85610d43565b604051601f8301601f19908116603f01168101908282118183101715610dad57610dad610d43565b81604052838152866020858801011115610dc657600080fd5b836020870160208301376000602085830101528094505050505092915050565b803560ff81168114610a7857600080fd5b60008060008060008060c08789031215610e1057600080fd5b86359550602087013567ffffffffffffffff80821115610e2f57600080fd5b610e3b8a838b01610d59565b96506040890135915080821115610e5157600080fd5b50610e5e89828a01610d59565b94505060608701359250610e7460808801610de6565b9150610e8260a08801610de6565b90509295509295509295565b805182526000602082015160c06020850152610ead60c0850182610ce4565b905060408301518482036040860152610ec68282610ce4565b9150506060830151606085015260ff608084015116608085015260ff60a08401511660a08501528091505092915050565b602081526000610d236020830184610e8e565b600080600060608486031215610f1f57600080fd5b833567ffffffffffffffff80821115610f3757600080fd5b610f4387838801610d59565b94506020860135915080821115610f5957600080fd5b50610f6686828701610d59565b925050604084013590509250925092565b6000602080830181845280855180835260408601915060408160051b870101925083870160005b82811015610fcc57603f19888603018452610fba858351610e8e565b94509285019290850190600101610f9e565b5092979650505050505050565b600060208284031215610feb57600080fd5b813567ffffffffffffffff81111561100257600080fd5b61100e84828501610d59565b949350505050565b600181811c9082168061102a57607f821691505b60208210810361104a57634e487b7160e01b600052602260045260246000fd5b50919050565b602080825260159082015274556e617574686f72697a656420726571756573742160581b604082015260600190565b634e487b7160e01b600052601160045260246000fd5b6000816110a4576110a461107f565b506000190190565b601f8211156110f657600081815260208120601f850160051c810160208610156110d35750805b601f850160051c820191505b818110156110f2578281556001016110df565b5050505b505050565b815167ffffffffffffffff81111561111557611115610d43565b611129816111238454611016565b846110ac565b602080601f83116001811461115e57600084156111465750858301515b600019600386901b1c1916600185901b1785556110f2565b600085815260208120601f198616915b8281101561118d5788860151825594840194600190910190840161116e565b50858210156111ab5787850151600019600388901b60f8161c191681555b5050505050600190811b01905550565b6000600182016111cd576111cd61107f565b5060010190565b80820180821115610bff57610bff61107f565b634e487b7160e01b600052603260045260246000fd5b6000825161120f818460208701610cc0565b9190910192915050565b60408152600061122c6040830185610ce4565b9050826020830152939250505056fea26469706673582212202cf5b010f9ae7b6ae9427a39a37e4688baf5afcadd5097170223c57da15ae5e964736f6c63430008110033",
  "linkReferences": {},
  "deployedLinkReferences": {}
}