{
  "_format": "hh-sol-artifact-1",
  "contractName": "MeerkatV1",
  "sourceName": "contracts/MeerkatV1.sol",
  "abi": [
    {
      "anonymous": false,
      "inputs": [
        {
          "indexed": false,
          "internalType": "uint8",
          "name": "version",
          "type": "uint8"
        }
      ],
      "name": "Initialized",
      "type": "event"
    },
    {
      "inputs": [
        {
          "internalType": "string",
          "name": "_name",
          "type": "string"
        },
        {
          "internalType": "address",
          "name": "_competitionAddress",
          "type": "address"
        },
        {
          "internalType": "address",
          "name": "_competitionOwner",
          "type": "address"
        }
      ],
      "name": "addCompetition",
      "outputs": [],
      "stateMutability": "nonpayable",
      "type": "function"
    },
    {
      "inputs": [
        {
          "internalType": "uint256",
          "name": "",
          "type": "uint256"
        }
      ],
      "name": "competitions",
      "outputs": [
        {
          "internalType": "string",
          "name": "name",
          "type": "string"
        },
        {
          "internalType": "address",
          "name": "competitionAddress",
          "type": "address"
        },
        {
          "internalType": "address",
          "name": "competitionOwner",
          "type": "address"
        },
        {
          "internalType": "uint256",
          "name": "timestamp",
          "type": "uint256"
        }
      ],
      "stateMutability": "view",
      "type": "function"
    },
    {
      "inputs": [],
      "name": "getCompetitions",
      "outputs": [
        {
          "components": [
            {
              "internalType": "string",
              "name": "name",
              "type": "string"
            },
            {
              "internalType": "address",
              "name": "competitionAddress",
              "type": "address"
            },
            {
              "internalType": "address",
              "name": "competitionOwner",
              "type": "address"
            },
            {
              "internalType": "uint256",
              "name": "timestamp",
              "type": "uint256"
            }
          ],
          "internalType": "struct MeerkatV1.CompetitionInfo[]",
          "name": "",
          "type": "tuple[]"
        }
      ],
      "stateMutability": "view",
      "type": "function"
    },
    {
      "inputs": [
        {
          "internalType": "string",
          "name": "_name",
          "type": "string"
        }
      ],
      "name": "initialize",
      "outputs": [],
      "stateMutability": "nonpayable",
      "type": "function"
    }
  ],
  "bytecode": "0x608060405234801561001057600080fd5b506109fb806100206000396000f3fe608060405234801561001057600080fd5b506004361061004c5760003560e01c80639f6828d9146100515780639f6c0ce31461007d578063a633529314610092578063f62d1888146100a7575b600080fd5b61006461005f36600461059d565b6100ba565b60405161007494939291906105fc565b60405180910390f35b61008561018f565b6040516100749190610632565b6100a56100a0366004610788565b610364565b005b6100a56100b53660046107e6565b610422565b600181815481106100ca57600080fd5b90600052602060002090600402016000915090508060000180546100ed90610823565b80601f016020809104026020016040519081016040528092919081815260200182805461011990610823565b80156101665780601f1061013b57610100808354040283529160200191610166565b820191906000526020600020905b81548152906001019060200180831161014957829003601f168201915b505050506001830154600284015460039094015492936001600160a01b03918216939116915084565b60408051808201909152600d81526c199c9bdb4818dbdb9d1c9858dd609a1b60208201526001546060916101c291610530565b60015460009067ffffffffffffffff8111156101e0576101e06106c9565b60405190808252806020026020018201604052801561023357816020015b604080516080810182526060808252600060208084018290529383018190529082015282526000199092019101816101fe5790505b50905060005b60015481101561035e576001818154811061025657610256610857565b906000526020600020906004020160405180608001604052908160008201805461027f90610823565b80601f01602080910402602001604051908101604052809291908181526020018280546102ab90610823565b80156102f85780601f106102cd576101008083540402835291602001916102f8565b820191906000526020600020905b8154815290600101906020018083116102db57829003601f168201915b505050918352505060018201546001600160a01b0390811660208301526002830154166040820152600390910154606090910152825183908390811061034057610340610857565b602002602001018190525080806103569061086d565b915050610239565b50919050565b604080516080810182528481526001600160a01b038085166020830152831691810191909152426060820152600180548082018255600091909152815182916004027fb10e2d527612073b26eecdfd717e6a320cf44b4afac2b0732d9fcbe2b7fa0cf6019081906103d590826108e3565b5060208201516001820180546001600160a01b039283166001600160a01b031991821617909155604084015160028401805491909316911617905560609091015160039091015550505050565b600054610100900460ff16158080156104425750600054600160ff909116105b8061045c5750303b15801561045c575060005460ff166001145b6104c35760405162461bcd60e51b815260206004820152602e60248201527f496e697469616c697a61626c653a20636f6e747261637420697320616c72656160448201526d191e481a5b9a5d1a585b1a5e995960921b606482015260840160405180910390fd5b6000805460ff1916600117905580156104e6576000805461ff0019166101001790555b801561052c576000805461ff0019169055604051600181527f7f26b83ff96e1f2b6a682f133852f6798a09c465da95921460cefb38474024989060200160405180910390a15b5050565b61052c82826040516024016105469291906109a3565b60408051601f198184030181529190526020810180516001600160e01b0316632d839cb360e21b1790526105798161057c565b50565b60006a636f6e736f6c652e6c6f679050600080835160208501845afa505050565b6000602082840312156105af57600080fd5b5035919050565b6000815180845260005b818110156105dc576020818501810151868301820152016105c0565b506000602082860101526020601f19601f83011685010191505092915050565b60808152600061060f60808301876105b6565b6001600160a01b0395861660208401529390941660408201526060015292915050565b60006020808301818452808551808352604092508286019150828160051b87010184880160005b838110156106bb57603f1989840301855281516080815181865261067f828701826105b6565b838b01516001600160a01b03908116888d01528a850151168a880152606093840151939096019290925250509386019390860190600101610659565b509098975050505050505050565b634e487b7160e01b600052604160045260246000fd5b600082601f8301126106f057600080fd5b813567ffffffffffffffff8082111561070b5761070b6106c9565b604051601f8301601f19908116603f01168101908282118183101715610733576107336106c9565b8160405283815286602085880101111561074c57600080fd5b836020870160208301376000602085830101528094505050505092915050565b80356001600160a01b038116811461078357600080fd5b919050565b60008060006060848603121561079d57600080fd5b833567ffffffffffffffff8111156107b457600080fd5b6107c0868287016106df565b9350506107cf6020850161076c565b91506107dd6040850161076c565b90509250925092565b6000602082840312156107f857600080fd5b813567ffffffffffffffff81111561080f57600080fd5b61081b848285016106df565b949350505050565b600181811c9082168061083757607f821691505b60208210810361035e57634e487b7160e01b600052602260045260246000fd5b634e487b7160e01b600052603260045260246000fd5b60006001820161088d57634e487b7160e01b600052601160045260246000fd5b5060010190565b601f8211156108de57600081815260208120601f850160051c810160208610156108bb5750805b601f850160051c820191505b818110156108da578281556001016108c7565b5050505b505050565b815167ffffffffffffffff8111156108fd576108fd6106c9565b6109118161090b8454610823565b84610894565b602080601f831160018114610946576000841561092e5750858301515b600019600386901b1c1916600185901b1785556108da565b600085815260208120601f198616915b8281101561097557888601518255948401946001909101908401610956565b50858210156109935787850151600019600388901b60f8161c191681555b5050505050600190811b01905550565b6040815260006109b660408301856105b6565b9050826020830152939250505056fea2646970667358221220aed85737b6c5a702e7b0609b056b9401cc91552e06a022881044d17eb460e24964736f6c63430008110033",
  "linkReferences": {},
  "deployedLinkReferences": {}
}